{
  "abi": [
    {
      "inputs": [
        {
          "internalType": "contract Kernel",
          "name": "kernel_",
          "type": "address"
        },
        {
          "components": [
            {
              "internalType": "address",
              "name": "ohm",
              "type": "address"
            },
            {
              "internalType": "address",
              "name": "pairToken",
              "type": "address"
            },
            {
              "internalType": "address",
              "name": "aura",
              "type": "address"
            },
            {
              "internalType": "address",
              "name": "bal",
              "type": "address"
            }
          ],
          "internalType": "struct IBLVaultManager.TokenData",
          "name": "tokenData_",
          "type": "tuple"
        },
        {
          "components": [
            {
              "internalType": "address",
              "name": "vault",
              "type": "address"
            },
            {
              "internalType": "address",
              "name": "liquidityPool",
              "type": "address"
            },
            {
              "internalType": "address",
              "name": "balancerHelper",
              "type": "address"
            }
          ],
          "internalType": "struct IBLVaultManager.BalancerData",
          "name": "balancerData_",
          "type": "tuple"
        },
        {
          "components": [
            {
              "internalType": "uint256",
              "name": "pid",
              "type": "uint256"
            },
            {
              "internalType": "address",
              "name": "auraBooster",
              "type": "address"
            },
            {
              "internalType": "address",
              "name": "auraRewardPool",
              "type": "address"
            }
          ],
          "internalType": "struct IBLVaultManager.AuraData",
          "name": "auraData_",
          "type": "tuple"
        },
        {
          "internalType": "address",
          "name": "auraMiningLib_",
          "type": "address"
        },
        {
          "components": [
            {
              "internalType": "contract AggregatorV3Interface",
              "name": "feed",
              "type": "address"
            },
            {
              "internalType": "uint48",
              "name": "updateThreshold",
              "type": "uint48"
            }
          ],
          "internalType": "struct IBLVaultManager.OracleFeed",
          "name": "ohmEthPriceFeed_",
          "type": "tuple"
        },
        {
          "components": [
            {
              "internalType": "contract AggregatorV3Interface",
              "name": "feed",
              "type": "address"
            },
            {
              "internalType": "uint48",
              "name": "updateThreshold",
              "type": "uint48"
            }
          ],
          "internalType": "struct IBLVaultManager.OracleFeed",
          "name": "ethUsdPriceFeed_",
          "type": "tuple"
        },
        {
          "components": [
            {
              "internalType": "contract AggregatorV3Interface",
              "name": "feed",
              "type": "address"
            },
            {
              "internalType": "uint48",
              "name": "updateThreshold",
              "type": "uint48"
            }
          ],
          "internalType": "struct IBLVaultManager.OracleFeed",
          "name": "lusdUsdPriceFeed_",
          "type": "tuple"
        },
        {
          "internalType": "address",
          "name": "implementation_",
          "type": "address"
        },
        {
          "internalType": "uint256",
          "name": "ohmLimit_",
          "type": "uint256"
        },
        {
          "internalType": "uint64",
          "name": "fee_",
          "type": "uint64"
        },
        {
          "internalType": "uint48",
          "name": "minWithdrawalDelay_",
          "type": "uint48"
        }
      ],
      "stateMutability": "nonpayable",
      "type": "constructor"
    },
    {
      "inputs": [],
      "name": "BLManagerLusd_AlreadyActive",
      "type": "error"
    },
    {
      "inputs": [],
      "name": "BLManagerLusd_AlreadyInactive",
      "type": "error"
    },
    {
      "inputs": [],
      "name": "BLManagerLusd_BadPriceFeed",
      "type": "error"
    },
    {
      "inputs": [],
      "name": "BLManagerLusd_Inactive",
      "type": "error"
    },
    {
      "inputs": [],
      "name": "BLManagerLusd_InvalidFee",
      "type": "error"
    },
    {
      "inputs": [],
      "name": "BLManagerLusd_InvalidLimit",
      "type": "error"
    },
    {
      "inputs": [],
      "name": "BLManagerLusd_InvalidLpAmount",
      "type": "error"
    },
    {
      "inputs": [],
      "name": "BLManagerLusd_InvalidVault",
      "type": "error"
    },
    {
      "inputs": [],
      "name": "BLManagerLusd_LimitViolation",
      "type": "error"
    },
    {
      "inputs": [],
      "name": "BLManagerLusd_NoUserVault",
      "type": "error"
    },
    {
      "inputs": [],
      "name": "BLManagerLusd_VaultAlreadyExists",
      "type": "error"
    },
    {
      "inputs": [],
      "name": "CreateFail",
      "type": "error"
    },
    {
      "inputs": [
        {
          "internalType": "address",
          "name": "caller_",
          "type": "address"
        }
      ],
      "name": "KernelAdapter_OnlyKernel",
      "type": "error"
    },
    {
      "inputs": [
        {
          "internalType": "Keycode",
          "name": "keycode_",
          "type": "bytes5"
        }
      ],
      "name": "Policy_ModuleDoesNotExist",
      "type": "error"
    },
    {
      "anonymous": false,
      "inputs": [
        {
          "indexed": false,
          "internalType": "address",
          "name": "vault",
          "type": "address"
        },
        {
          "indexed": false,
          "internalType": "address",
          "name": "owner",
          "type": "address"
        },
        {
          "indexed": false,
          "internalType": "uint64",
          "name": "fee",
          "type": "uint64"
        }
      ],
      "name": "VaultDeployed",
      "type": "event"
    },
    {
      "inputs": [],
      "name": "BLREG",
      "outputs": [
        {
          "internalType": "contract BLREGv1",
          "name": "",
          "type": "address"
        }
      ],
      "stateMutability": "view",
      "type": "function"
    },
    {
      "inputs": [],
      "name": "MAX_FEE",
      "outputs": [
        {
          "internalType": "uint32",
          "name": "",
          "type": "uint32"
        }
      ],
      "stateMutability": "view",
      "type": "function"
    },
    {
      "inputs": [],
      "name": "MINTR",
      "outputs": [
        {
          "internalType": "contract MINTRv1",
          "name": "",
          "type": "address"
        }
      ],
      "stateMutability": "view",
      "type": "function"
    },
    {
      "inputs": [],
      "name": "ROLES",
      "outputs": [
        {
          "internalType": "contract ROLESv1",
          "name": "",
          "type": "address"
        }
      ],
      "stateMutability": "view",
      "type": "function"
    },
    {
      "inputs": [],
      "name": "TRSRY",
      "outputs": [
        {
          "internalType": "contract TRSRYv1",
          "name": "",
          "type": "address"
        }
      ],
      "stateMutability": "view",
      "type": "function"
    },
    {
      "inputs": [],
      "name": "activate",
      "outputs": [],
      "stateMutability": "nonpayable",
      "type": "function"
    },
    {
      "inputs": [],
      "name": "aura",
      "outputs": [
        {
          "internalType": "address",
          "name": "",
          "type": "address"
        }
      ],
      "stateMutability": "view",
      "type": "function"
    },
    {
      "inputs": [],
      "name": "auraData",
      "outputs": [
        {
          "internalType": "uint256",
          "name": "pid",
          "type": "uint256"
        },
        {
          "internalType": "address",
          "name": "auraBooster",
          "type": "address"
        },
        {
          "internalType": "address",
          "name": "auraRewardPool",
          "type": "address"
        }
      ],
      "stateMutability": "view",
      "type": "function"
    },
    {
      "inputs": [],
      "name": "auraMiningLib",
      "outputs": [
        {
          "internalType": "contract IAuraMiningLib",
          "name": "",
          "type": "address"
        }
      ],
      "stateMutability": "view",
      "type": "function"
    },
    {
      "inputs": [],
      "name": "bal",
      "outputs": [
        {
          "internalType": "address",
          "name": "",
          "type": "address"
        }
      ],
      "stateMutability": "view",
      "type": "function"
    },
    {
      "inputs": [],
      "name": "balancerData",
      "outputs": [
        {
          "internalType": "address",
          "name": "vault",
          "type": "address"
        },
        {
          "internalType": "address",
          "name": "liquidityPool",
          "type": "address"
        },
        {
          "internalType": "address",
          "name": "balancerHelper",
          "type": "address"
        }
      ],
      "stateMutability": "view",
      "type": "function"
    },
    {
      "inputs": [
        {
          "internalType": "uint256",
          "name": "amount_",
          "type": "uint256"
        }
      ],
      "name": "burnOhmFromVault",
      "outputs": [],
      "stateMutability": "nonpayable",
      "type": "function"
    },
    {
      "inputs": [
        {
          "internalType": "address",
          "name": "user_",
          "type": "address"
        }
      ],
      "name": "canWithdraw",
      "outputs": [
        {
          "internalType": "bool",
          "name": "",
          "type": "bool"
        }
      ],
      "stateMutability": "view",
      "type": "function"
    },
    {
      "inputs": [
        {
          "internalType": "contract Kernel",
          "name": "newKernel_",
          "type": "address"
        }
      ],
      "name": "changeKernel",
      "outputs": [],
      "stateMutability": "nonpayable",
      "type": "function"
    },
    {
      "inputs": [
        {
          "internalType": "uint48",
          "name": "ohmEthUpdateThreshold_",
          "type": "uint48"
        },
        {
          "internalType": "uint48",
          "name": "ethUsdUpdateThreshold_",
          "type": "uint48"
        },
        {
          "internalType": "uint48",
          "name": "lusdUsdUpdateThreshold_",
          "type": "uint48"
        }
      ],
      "name": "changeUpdateThresholds",
      "outputs": [],
      "stateMutability": "nonpayable",
      "type": "function"
    },
    {
      "inputs": [],
      "name": "circulatingOhmBurned",
      "outputs": [
        {
          "internalType": "uint256",
          "name": "",
          "type": "uint256"
        }
      ],
      "stateMutability": "view",
      "type": "function"
    },
    {
      "inputs": [],
      "name": "configureDependencies",
      "outputs": [
        {
          "internalType": "Keycode[]",
          "name": "dependencies",
          "type": "bytes5[]"
        }
      ],
      "stateMutability": "nonpayable",
      "type": "function"
    },
    {
      "inputs": [],
      "name": "currentFee",
      "outputs": [
        {
          "internalType": "uint64",
          "name": "",
          "type": "uint64"
        }
      ],
      "stateMutability": "view",
      "type": "function"
    },
    {
      "inputs": [],
      "name": "deactivate",
      "outputs": [],
      "stateMutability": "nonpayable",
      "type": "function"
    },
    {
      "inputs": [
        {
          "internalType": "uint256",
          "name": "amount_",
          "type": "uint256"
        }
      ],
      "name": "decreaseTotalLp",
      "outputs": [],
      "stateMutability": "nonpayable",
      "type": "function"
    },
    {
      "inputs": [],
      "name": "deployVault",
      "outputs": [
        {
          "internalType": "address",
          "name": "vault",
          "type": "address"
        }
      ],
      "stateMutability": "nonpayable",
      "type": "function"
    },
    {
      "inputs": [],
      "name": "deployedOhm",
      "outputs": [
        {
          "internalType": "uint256",
          "name": "",
          "type": "uint256"
        }
      ],
      "stateMutability": "view",
      "type": "function"
    },
    {
      "inputs": [
        {
          "internalType": "uint256",
          "name": "amount_",
          "type": "uint256"
        }
      ],
      "name": "emergencyBurnOhm",
      "outputs": [],
      "stateMutability": "nonpayable",
      "type": "function"
    },
    {
      "inputs": [],
      "name": "ethUsdPriceFeed",
      "outputs": [
        {
          "internalType": "contract AggregatorV3Interface",
          "name": "feed",
          "type": "address"
        },
        {
          "internalType": "uint48",
          "name": "updateThreshold",
          "type": "uint48"
        }
      ],
      "stateMutability": "view",
      "type": "function"
    },
    {
      "inputs": [],
      "name": "exchangeName",
      "outputs": [
        {
          "internalType": "string",
          "name": "",
          "type": "string"
        }
      ],
      "stateMutability": "view",
      "type": "function"
    },
    {
      "inputs": [
        {
          "internalType": "uint256",
          "name": "amount_",
          "type": "uint256"
        }
      ],
      "name": "getExpectedLpAmount",
      "outputs": [
        {
          "internalType": "uint256",
          "name": "bptAmount",
          "type": "uint256"
        }
      ],
      "stateMutability": "nonpayable",
      "type": "function"
    },
    {
      "inputs": [
        {
          "internalType": "uint256",
          "name": "lpAmount_",
          "type": "uint256"
        }
      ],
      "name": "getExpectedPairTokenOutUser",
      "outputs": [
        {
          "internalType": "uint256",
          "name": "expectedTknAmount",
          "type": "uint256"
        }
      ],
      "stateMutability": "nonpayable",
      "type": "function"
    },
    {
      "inputs": [
        {
          "internalType": "uint256",
          "name": "lpAmount_",
          "type": "uint256"
        }
      ],
      "name": "getExpectedTokensOutProtocol",
      "outputs": [
        {
          "internalType": "uint256[]",
          "name": "expectedTokenAmounts",
          "type": "uint256[]"
        }
      ],
      "stateMutability": "nonpayable",
      "type": "function"
    },
    {
      "inputs": [
        {
          "internalType": "address",
          "name": "user_",
          "type": "address"
        }
      ],
      "name": "getLpBalance",
      "outputs": [
        {
          "internalType": "uint256",
          "name": "",
          "type": "uint256"
        }
      ],
      "stateMutability": "view",
      "type": "function"
    },
    {
      "inputs": [],
      "name": "getMaxDeposit",
      "outputs": [
        {
          "internalType": "uint256",
          "name": "",
          "type": "uint256"
        }
      ],
      "stateMutability": "view",
      "type": "function"
    },
    {
      "inputs": [],
      "name": "getOhmSupplyChangeData",
      "outputs": [
        {
          "internalType": "uint256",
          "name": "poolOhmShare",
          "type": "uint256"
        },
        {
          "internalType": "uint256",
          "name": "mintedOhm",
          "type": "uint256"
        },
        {
          "internalType": "uint256",
          "name": "netBurnedOhm",
          "type": "uint256"
        }
      ],
      "stateMutability": "view",
      "type": "function"
    },
    {
      "inputs": [],
      "name": "getOhmTknPoolPrice",
      "outputs": [
        {
          "internalType": "uint256",
          "name": "",
          "type": "uint256"
        }
      ],
      "stateMutability": "view",
      "type": "function"
    },
    {
      "inputs": [],
      "name": "getOhmTknPrice",
      "outputs": [
        {
          "internalType": "uint256",
          "name": "",
          "type": "uint256"
        }
      ],
      "stateMutability": "view",
      "type": "function"
    },
    {
      "inputs": [
        {
          "internalType": "address",
          "name": "user_",
          "type": "address"
        }
      ],
      "name": "getOutstandingRewards",
      "outputs": [
        {
          "components": [
            {
              "internalType": "address",
              "name": "rewardToken",
              "type": "address"
            },
            {
              "internalType": "uint256",
              "name": "outstandingRewards",
              "type": "uint256"
            }
          ],
          "internalType": "struct RewardsData[]",
          "name": "",
          "type": "tuple[]"
        }
      ],
      "stateMutability": "view",
      "type": "function"
    },
    {
      "inputs": [],
      "name": "getPoolOhmShare",
      "outputs": [
        {
          "internalType": "uint256",
          "name": "",
          "type": "uint256"
        }
      ],
      "stateMutability": "view",
      "type": "function"
    },
    {
      "inputs": [
        {
          "internalType": "address",
          "name": "rewardToken_",
          "type": "address"
        }
      ],
      "name": "getRewardRate",
      "outputs": [
        {
          "internalType": "uint256",
          "name": "rewardRate",
          "type": "uint256"
        }
      ],
      "stateMutability": "view",
      "type": "function"
    },
    {
      "inputs": [],
      "name": "getRewardTokens",
      "outputs": [
        {
          "internalType": "address[]",
          "name": "",
          "type": "address[]"
        }
      ],
      "stateMutability": "view",
      "type": "function"
    },
    {
      "inputs": [],
      "name": "getTknOhmPrice",
      "outputs": [
        {
          "internalType": "uint256",
          "name": "",
          "type": "uint256"
        }
      ],
      "stateMutability": "view",
      "type": "function"
    },
    {
      "inputs": [
        {
          "internalType": "address",
          "name": "user_",
          "type": "address"
        }
      ],
      "name": "getUserPairShare",
      "outputs": [
        {
          "internalType": "uint256",
          "name": "",
          "type": "uint256"
        }
      ],
      "stateMutability": "view",
      "type": "function"
    },
    {
      "inputs": [],
      "name": "implementation",
      "outputs": [
        {
          "internalType": "contract BLVaultLusd",
          "name": "",
          "type": "address"
        }
      ],
      "stateMutability": "view",
      "type": "function"
    },
    {
      "inputs": [
        {
          "internalType": "uint256",
          "name": "amount_",
          "type": "uint256"
        }
      ],
      "name": "increaseTotalLp",
      "outputs": [],
      "stateMutability": "nonpayable",
      "type": "function"
    },
    {
      "inputs": [],
      "name": "isActive",
      "outputs": [
        {
          "internalType": "bool",
          "name": "",
          "type": "bool"
        }
      ],
      "stateMutability": "view",
      "type": "function"
    },
    {
      "inputs": [],
      "name": "isLusdBLVaultActive",
      "outputs": [
        {
          "internalType": "bool",
          "name": "",
          "type": "bool"
        }
      ],
      "stateMutability": "view",
      "type": "function"
    },
    {
      "inputs": [],
      "name": "kernel",
      "outputs": [
        {
          "internalType": "contract Kernel",
          "name": "",
          "type": "address"
        }
      ],
      "stateMutability": "view",
      "type": "function"
    },
    {
      "inputs": [],
      "name": "lusdUsdPriceFeed",
      "outputs": [
        {
          "internalType": "contract AggregatorV3Interface",
          "name": "feed",
          "type": "address"
        },
        {
          "internalType": "uint48",
          "name": "updateThreshold",
          "type": "uint48"
        }
      ],
      "stateMutability": "view",
      "type": "function"
    },
    {
      "inputs": [],
      "name": "minWithdrawalDelay",
      "outputs": [
        {
          "internalType": "uint48",
          "name": "",
          "type": "uint48"
        }
      ],
      "stateMutability": "view",
      "type": "function"
    },
    {
      "inputs": [
        {
          "internalType": "uint256",
          "name": "amount_",
          "type": "uint256"
        }
      ],
      "name": "mintOhmToVault",
      "outputs": [],
      "stateMutability": "nonpayable",
      "type": "function"
    },
    {
      "inputs": [],
      "name": "ohm",
      "outputs": [
        {
          "internalType": "address",
          "name": "",
          "type": "address"
        }
      ],
      "stateMutability": "view",
      "type": "function"
    },
    {
      "inputs": [],
      "name": "ohmEthPriceFeed",
      "outputs": [
        {
          "internalType": "contract AggregatorV3Interface",
          "name": "feed",
          "type": "address"
        },
        {
          "internalType": "uint48",
          "name": "updateThreshold",
          "type": "uint48"
        }
      ],
      "stateMutability": "view",
      "type": "function"
    },
    {
      "inputs": [],
      "name": "ohmLimit",
      "outputs": [
        {
          "internalType": "uint256",
          "name": "",
          "type": "uint256"
        }
      ],
      "stateMutability": "view",
      "type": "function"
    },
    {
      "inputs": [],
      "name": "pairToken",
      "outputs": [
        {
          "internalType": "address",
          "name": "",
          "type": "address"
        }
      ],
      "stateMutability": "view",
      "type": "function"
    },
    {
      "inputs": [],
      "name": "requestPermissions",
      "outputs": [
        {
          "components": [
            {
              "internalType": "Keycode",
              "name": "keycode",
              "type": "bytes5"
            },
            {
              "internalType": "bytes4",
              "name": "funcSelector",
              "type": "bytes4"
            }
          ],
          "internalType": "struct Permissions[]",
          "name": "permissions",
          "type": "tuple[]"
        }
      ],
      "stateMutability": "view",
      "type": "function"
    },
    {
      "inputs": [
        {
          "internalType": "uint64",
          "name": "newFee_",
          "type": "uint64"
        }
      ],
      "name": "setFee",
      "outputs": [],
      "stateMutability": "nonpayable",
      "type": "function"
    },
    {
      "inputs": [
        {
          "internalType": "uint256",
          "name": "newLimit_",
          "type": "uint256"
        }
      ],
      "name": "setLimit",
      "outputs": [],
      "stateMutability": "nonpayable",
      "type": "function"
    },
    {
      "inputs": [
        {
          "internalType": "uint48",
          "name": "newDelay_",
          "type": "uint48"
        }
      ],
      "name": "setWithdrawalDelay",
      "outputs": [],
      "stateMutability": "nonpayable",
      "type": "function"
    },
    {
      "inputs": [],
      "name": "totalLp",
      "outputs": [
        {
          "internalType": "uint256",
          "name": "",
          "type": "uint256"
        }
      ],
      "stateMutability": "view",
      "type": "function"
    },
    {
      "inputs": [
        {
          "internalType": "address",
          "name": "",
          "type": "address"
        }
      ],
      "name": "userVaults",
      "outputs": [
        {
          "internalType": "contract BLVaultLusd",
          "name": "",
          "type": "address"
        }
      ],
      "stateMutability": "view",
      "type": "function"
    },
    {
      "inputs": [
        {
          "internalType": "contract BLVaultLusd",
          "name": "",
          "type": "address"
        }
      ],
      "name": "vaultOwners",
      "outputs": [
        {
          "internalType": "address",
          "name": "",
          "type": "address"
        }
      ],
      "stateMutability": "view",
      "type": "function"
    }
  ],
  "bytecode": {
    "object": "0x60806040523480156200001157600080fd5b5060405162004226380380620042268339810160408190526200003491620003d3565b600080546001600160a01b0319166001600160a01b038e161790556040805180820190915260088152672130b630b731b2b960c11b60208201526009906200007d9082620005bc565b508a51600580546001600160a01b03199081166001600160a01b03938416179091556020808e01516006805484169185169190911790556040808f01516007805485169186169190911790556060909e01516008805484169185169190911790558c51600a805484169185169190911790558c810151600b805484169185169190911790559b8d0151600c805483169184169190911790558a51600d558a8c0151600e8054831691841691909117905599909b0151600f80548b16918d16919091179055601080548a16988c1698909817909755855160118054978b0151918c166001600160d01b031998891617600160a01b65ffffffffffff938416810291909117909155865160128054988d0151918e16988a169890981790831682021790965584516013805496909b0151908c16959097169490941795841690940294909417909655601480549095169590961694909417909255601a91909155601b80546001600160401b039093166001600160701b0319909316929092176801000000000000000093909116929092029190911790555062000688565b6001600160a01b03811681146200022f57600080fd5b50565b634e487b7160e01b600052604160045260246000fd5b604051606081016001600160401b03811182821017156200026d576200026d62000232565b60405290565b604051608081016001600160401b03811182821017156200026d576200026d62000232565b8051620002a58162000219565b919050565b600060608284031215620002bd57600080fd5b620002c762000248565b90508151620002d68162000219565b81526020820151620002e88162000219565b60208201526040820151620002fd8162000219565b604082015292915050565b6000606082840312156200031b57600080fd5b6200032562000248565b9050815181526020820151620002e88162000219565b805165ffffffffffff81168114620002a557600080fd5b6000604082840312156200036557600080fd5b604080519081016001600160401b03811182821017156200038a576200038a62000232565b806040525080915082516200039f8162000219565b8152620003af602084016200033b565b60208201525092915050565b80516001600160401b0381168114620002a557600080fd5b6000806000806000806000806000806000808c8e036102c0811215620003f857600080fd5b8d51620004058162000219565b9c506080601f19820112156200041a57600080fd5b506200042562000273565b60208e0151620004358162000219565b815260408e0151620004478162000219565b602082015260608e01516200045c8162000219565b604082015260808e0151620004718162000219565b60608201529a50620004878e60a08f01620002aa565b9950620004998e6101008f0162000308565b9850620004aa6101608e0162000298565b9750620004bc8e6101808f0162000352565b9650620004ce8e6101c08f0162000352565b9550620004e08e6102008f0162000352565b9450620004f16102408e0162000298565b93506102608d015192506200050a6102808e01620003bb565b91506200051b6102a08e016200033b565b90509295989b509295989b509295989b565b600181811c908216806200054257607f821691505b6020821081036200056357634e487b7160e01b600052602260045260246000fd5b50919050565b601f821115620005b757600081815260208120601f850160051c81016020861015620005925750805b601f850160051c820191505b81811015620005b3578281556001016200059e565b5050505b505050565b81516001600160401b03811115620005d857620005d862000232565b620005f081620005e984546200052d565b8462000569565b602080601f8311600181146200062857600084156200060f5750858301515b600019600386901b1c1916600185901b178555620005b3565b600085815260208120601f198616915b82811015620006595788860151825594840194600190910190840162000638565b5085821015620006785787850151600019600388901b60f8161c191681555b5050505050600190811b01905550565b613b8e80620006986000396000f3fe608060405234801561001057600080fd5b506004361061029d5760003560e01c806206841a146102a257806302b1d239146102b7578063061a0568146102e05780630d5b0067146102f65780630f15f4c01461032657806310043e8e1461032e57806319262d301461034157806319e23bf0146103645780631af003fa1461036c57806322f3e2d41461037f578063242c135d1461038757806327ea6f2b146103905780632958d031146103a357806330d14a14146103cc5780633cf64cb4146103df5780633d79d1c8146103f25780633de35b791461040557806342f6fb291461041857806346305946146104625780634657b36c146104ac5780634baaee46146104bf5780634f68ea5f146104d257806351b42b00146104e757806356c04539146104ef578063577de7d0146104f85780635924be701461050b5780635a630d7a146105205780635c60da1b1461053357806360b60baf14610546578063682c437c1461054e5780636df29b91146105575780636f02d5501461056a57806372e613401461057d57806375b6cac0146105c05780637780f56d146105e057806380cee4ab146105e9578063861ab19f146105fc5780638a545c53146106205780638b84841b14610633578063901c4e4f1461065c578063923cb952146106645780639459b875146106775780639cb1b55b1461068c578063a2b0f926146106b0578063a4dbc6a8146106c3578063aa381fc6146106cb578063b53b76fd146106de578063b7dfda7e146106e6578063bc063e1a146106fa578063bce3b83614610718578063bd82361514610738578063c4f59f9b1461074b578063c4fa8d8014610760578063d4aae0c414610773578063da3c300d14610786578063e13b7f5c146107b1578063ea7cbff1146107c4578063edf7d3d1146107d7575b600080fd5b6102b56102b03660046131b8565b6107fa565b005b6005546102ca906001600160a01b031681565b6040516102d791906131d1565b60405180910390f35b6102e8610883565b6040519081526020016102d7565b601b5461030f90600160401b900465ffffffffffff1681565b60405165ffffffffffff90911681526020016102d7565b6102b56109fb565b6102e861033c3660046131b8565b610b11565b61035461034f3660046131fd565b610d9f565b60405190151581526020016102d7565b6102e8610e48565b6102b561037a3660046131b8565b610fef565b610354611144565b6102e860175481565b6102b561039e3660046131b8565b6111bb565b6102ca6103b13660046131fd565b6016602052600090815260409020546001600160a01b031681565b6102b56103da3660046131b8565b611263565b6102e86103ed3660046131b8565b611344565b6008546102ca906001600160a01b031681565b6006546102ca906001600160a01b031681565b60125461043c906001600160a01b03811690600160a01b900465ffffffffffff1682565b604080516001600160a01b03909316835265ffffffffffff9091166020830152016102d7565b600a54600b54600c54610482926001600160a01b03908116928116911683565b604080516001600160a01b03948516815292841660208401529216918101919091526060016102d7565b6102b56104ba3660046131fd565b611627565b6102b56104cd36600461323c565b61167f565b6104da61171d565b6040516102d791906132a4565b6102b56117ab565b6102e8601a5481565b6002546102ca906001600160a01b031681565b610513611889565b6040516102d791906132b7565b6102b561052e36600461331a565b611b40565b6014546102ca906001600160a01b031681565b6102e8611c02565b6102e860195481565b6010546102ca906001600160a01b031681565b6102e86105783660046131fd565b611c92565b600d54600e54600f5461059b92916001600160a01b03908116911683565b604080519384526001600160a01b0392831660208501529116908201526060016102d7565b6105d36105ce3660046131b8565b611d35565b6040516102d7919061337e565b6102e860185481565b6003546102ca906001600160a01b031681565b60115461043c906001600160a01b03811690600160a01b900465ffffffffffff1682565b6004546102ca906001600160a01b031681565b6102ca6106413660046131fd565b6015602052600090815260409020546001600160a01b031681565b6102ca611f80565b6001546102ca906001600160a01b031681565b61067f612170565b6040516102d79190613391565b60135461043c906001600160a01b03811690600160a01b900465ffffffffffff1682565b6102b56106be3660046131b8565b61237c565b6102e86123ee565b6102e86106d93660046131fd565b612443565b6102e86124c2565b601b5461035490600160701b900460ff1681565b61070361271081565b60405163ffffffff90911681526020016102d7565b61072b6107263660046131fd565b612566565b6040516102d791906133df565b6102b56107463660046131b8565b612636565b61075361277f565b6040516102d79190613463565b6102b561076e366004613476565b612a93565b6000546102ca906001600160a01b031681565b601b54610799906001600160401b031681565b6040516001600160401b0390911681526020016102d7565b6007546102ca906001600160a01b031681565b6102e86107d23660046131fd565b612b57565b6107df612f05565b604080519384526020840192909252908201526060016102d7565b601b54600160701b900460ff1661082457604051632dc1ba0760e11b815260040160405180910390fd5b336000908152601560205260409020546001600160a01b031661085a5760405163e910e6ad60e01b815260040160405180910390fd5b60175481111561086957506017545b806017600082825461087b91906134cf565b909155505050565b600b54600a546040805163038fff2d60e41b815290516000936001600160a01b039081169316918491839163f94d46689186916338fff2d09160048083019260209291908290030181865afa1580156108e0573d6000803e3d6000fd5b505050506040513d601f19601f8201168201806040525081019061090491906134e6565b6040518263ffffffff1660e01b815260040161092291815260200190565b600060405180830381865afa15801561093f573d6000803e3d6000fd5b505050506040513d6000823e601f3d908101601f1916820160405261096791908101906135fb565b5091505080600060ff1681518110610981576109816136c8565b602002602001015160000361099a576000935050505090565b80600060ff16815181106109b0576109b06136c8565b602002602001015181600160ff16815181106109ce576109ce6136c8565b6020026020010151670de0b6b3a76400006109e991906136de565b6109f391906136fd565b935050505090565b60015460405163d09a20c560e01b8152600080516020613b39833981519152916001600160a01b03169063d09a20c590610a3b908490339060040161371f565b600060405180830381600087803b158015610a5557600080fd5b505af1158015610a69573d6000803e3d6000fd5b5050601b54600160701b900460ff16159150610a9a905057604051630b75220760e21b815260040160405180910390fd5b601b805460ff60701b1916600160701b179055600480546040516312b5ad0160e11b81526001600160a01b039091169163256b5a0291610adc913091016131d1565b600060405180830381600087803b158015610af657600080fd5b505af1158015610b0a573d6000803e3d6000fd5b5050505050565b600b54600c546000916001600160a01b03908116911682610b306124c2565b90506000610b3c610883565b90506000818310610b4d5781610b4f565b825b90506000670de0b6b3a7640000610b66838a6136de565b610b7091906136fd565b6040805160028082526060820183529293506000929091602083019080368337505060055482519293506001600160a01b0316918391506001908110610bb857610bb86136c8565b6001600160a01b03928316602091820292909201015260065482519116908290600090610be757610be76136c8565b6001600160a01b039290921660209283029190910182015260408051600280825260608201835260009391929091830190803683370190505090508281600160ff1681518110610c3957610c396136c8565b6020026020010181815250508981600060ff1681518110610c5c57610c5c6136c8565b602002602001018181525050600060405180608001604052808481526020018381526020016001846000604051602001610c9893929190613736565b6040516020818303038152906040528152602001600015158152509050876001600160a01b0316639ebbf05d8a6001600160a01b03166338fff2d06040518163ffffffff1660e01b8152600401602060405180830381865afa158015610d02573d6000803e3d6000fd5b505050506040513d601f19601f82011682018060405250810190610d2691906134e6565b3030856040518563ffffffff1660e01b8152600401610d4894939291906137c6565b6000604051808303816000875af1158015610d67573d6000803e3d6000fd5b505050506040513d6000823e601f3d908101601f19168201604052610d8f9190810190613802565b509b9a5050505050505050505050565b6001600160a01b03818116600090815260166020526040812054909116610dc857506000919050565b6001600160a01b03808316600090815260166020908152604091829020548251635a8a2cff60e11b8152925193169263b51459fe9260048082019392918290030181865afa158015610e1e573d6000803e3d6000fd5b505050506040513d601f19601f82011682018060405250810190610e429190613849565b92915050565b600a54600b54604080516318160ddd60e01b815290516000936001600160a01b03908116931691849183916318160ddd9160048083019260209291908290030181865afa158015610e9d573d6000803e3d6000fd5b505050506040513d601f19601f82011682018060405250810190610ec191906134e6565b90506000836001600160a01b031663f94d4668846001600160a01b03166338fff2d06040518163ffffffff1660e01b8152600401602060405180830381865afa158015610f12573d6000803e3d6000fd5b505050506040513d601f19601f82011682018060405250810190610f3691906134e6565b6040518263ffffffff1660e01b8152600401610f5491815260200190565b600060405180830381865afa158015610f71573d6000803e3d6000fd5b505050506040513d6000823e601f3d908101601f19168201604052610f9991908101906135fb565b5091505081600003610fb057600094505050505090565b8160175482600160ff1681518110610fca57610fca6136c8565b6020026020010151610fdc91906136de565b610fe691906136fd565b94505050505090565b60015460405163d09a20c560e01b8152600080516020613b39833981519152916001600160a01b03169063d09a20c59061102f908490339060040161371f565b600060405180830381600087803b15801561104957600080fd5b505af115801561105d573d6000803e3d6000fd5b5050600554600254604051633950935160e01b81526001600160a01b039283169450633950935193506110989290911690869060040161386b565b6020604051808303816000875af11580156110b7573d6000803e3d6000fd5b505050506040513d601f19601f820116820180604052508101906110db9190613849565b5060025460405163557856ad60e11b81526001600160a01b039091169063aaf0ad5a9061110e903090869060040161386b565b600060405180830381600087803b15801561112857600080fd5b505af115801561113c573d6000803e3d6000fd5b505050505050565b6000805460405163e52223bb60e01b81526001600160a01b039091169063e52223bb906111759030906004016131d1565b602060405180830381865afa158015611192573d6000803e3d6000fd5b505050506040513d601f19601f820116820180604052508101906111b69190613849565b905090565b60015460405163d09a20c560e01b8152600080516020613b39833981519152916001600160a01b03169063d09a20c5906111fb908490339060040161371f565b600060405180830381600087803b15801561121557600080fd5b505af1158015611229573d6000803e3d6000fd5b505050506018546019548361123e9190613884565b101561125d5760405163f7b2878f60e01b815260040160405180910390fd5b50601a55565b601b54600160701b900460ff1661128d57604051632dc1ba0760e11b815260040160405180910390fd5b336000908152601560205260409020546001600160a01b03166112c35760405163e910e6ad60e01b815260040160405180910390fd5b6018548111156112fa576018546112da90826134cf565b601960008282546112eb9190613884565b90915550506000601855611312565b806018600082825461130c91906134cf565b90915550505b60025460405163557856ad60e11b81526001600160a01b039091169063aaf0ad5a90610adc903390859060040161386b565b600b54600c546040805160028082526060820183526000946001600160a01b0390811694169285929190602083019080368337505060055482519293506001600160a01b031691839150600190811061139f5761139f6136c8565b6001600160a01b039283166020918202929092010152600654825191169082906000906113ce576113ce6136c8565b6001600160a01b03929092166020928302919091018201526040805160028082526060820183526000939192909183019080368337019050509050600081600160ff1681518110611421576114216136c8565b602002602001018181525050600081600060ff1681518110611445576114456136c8565b6020026020010181815250506000604051806080016040528084815260200183815260200160018960405160200161148c92919060ff929092168252602082015260400190565b60405160208183030381529060405281526020016000151581525090506000846001600160a01b031663c7b2c52c876001600160a01b03166338fff2d06040518163ffffffff1660e01b8152600401602060405180830381865afa1580156114f8573d6000803e3d6000fd5b505050506040513d601f19601f8201168201806040525081019061151c91906134e6565b3030866040518563ffffffff1660e01b815260040161153e94939291906137c6565b6000604051808303816000875af115801561155d573d6000803e3d6000fd5b505050506040513d6000823e601f3d908101601f191682016040526115859190810190613802565b9150506000611592611c02565b90506000633b9aca008284600160ff16815181106115b2576115b26136c8565b60200260200101516115c491906136de565b6115ce91906136fd565b90508083600060ff16815181106115e7576115e76136c8565b6020026020010151116116175782600060ff168151811061160a5761160a6136c8565b6020026020010151611619565b805b9a9950505050505050505050565b6000546001600160a01b0316331461165d573360405163053e900f60e21b815260040161165491906131d1565b60405180910390fd5b600080546001600160a01b0319166001600160a01b0392909216919091179055565b60015460405163d09a20c560e01b8152600080516020613b39833981519152916001600160a01b03169063d09a20c5906116bf908490339060040161371f565b600060405180830381600087803b1580156116d957600080fd5b505af11580156116ed573d6000803e3d6000fd5b5050601b805465ffffffffffff909516600160401b0265ffffffffffff60401b1990951694909417909355505050565b6009805461172a9061389c565b80601f01602080910402602001604051908101604052809291908181526020018280546117569061389c565b80156117a35780601f10611778576101008083540402835291602001916117a3565b820191906000526020600020905b81548152906001019060200180831161178657829003601f168201915b505050505081565b60015460405163d09a20c560e01b81526e32b6b2b933b2b731bcafb0b236b4b760891b916001600160a01b03169063d09a20c5906117ef908490339060040161371f565b600060405180830381600087803b15801561180957600080fd5b505af115801561181d573d6000803e3d6000fd5b5050601b54600160701b900460ff16915061184d9050576040516315af9bab60e11b815260040160405180910390fd5b601b805460ff60701b191690556004805460405163ceb68c2360e01b81526001600160a01b039091169163ceb68c2391610adc913091016131d1565b60606000600260009054906101000a90046001600160a01b03166001600160a01b0316631ae7ec2e6040518163ffffffff1660e01b8152600401602060405180830381865afa1580156118e0573d6000803e3d6000fd5b505050506040513d601f19601f8201168201806040525081019061190491906138d0565b90506000600460009054906101000a90046001600160a01b03166001600160a01b0316631ae7ec2e6040518163ffffffff1660e01b8152600401602060405180830381865afa15801561195b573d6000803e3d6000fd5b505050506040513d601f19601f8201168201806040525081019061197f91906138d0565b60408051600580825260c08201909252919250816020015b6040805180820190915260008082526020820152815260200190600190039081611997575050604080518082019091526001600160d81b031984168152633a56e30760e01b602082015281519194509084906000906119f8576119f86136c8565b60200260200101819052506040518060400160405280836001600160d81b031916815260200163aaf0ad5a60e01b6001600160e01b03191681525083600181518110611a4657611a466136c8565b60200260200101819052506040518060400160405280836001600160d81b031916815260200163359fe78060e01b6001600160e01b03191681525083600281518110611a9457611a946136c8565b60200260200101819052506040518060400160405280826001600160d81b031916815260200163256b5a0260e01b6001600160e01b03191681525083600381518110611ae257611ae26136c8565b60200260200101819052506040518060400160405280826001600160d81b031916815260200163ceb68c2360e01b6001600160e01b03191681525083600481518110611b3057611b306136c8565b6020026020010181905250505090565b60015460405163d09a20c560e01b8152600080516020613b39833981519152916001600160a01b03169063d09a20c590611b80908490339060040161371f565b600060405180830381600087803b158015611b9a57600080fd5b505af1158015611bae573d6000803e3d6000fd5b5050506127106001600160401b03841611159050611bdf5760405163b2e88e0760e01b815260040160405180910390fd5b50601b80546001600160401b0319166001600160401b0392909216919091179055565b6011546000908190611c2d906001600160a01b03811690600160a01b900465ffffffffffff16612f23565b601254909150600090611c59906001600160a01b03811690600160a01b900465ffffffffffff16612f23565b601354909150600090611c85906001600160a01b03811690600160a01b900465ffffffffffff16612f23565b9050806109e983856136de565b6001600160a01b03818116600090815260166020526040812054909116611cbb57506000919050565b6001600160a01b03808316600090815260166020908152604091829020548251631777796560e31b8152925193169263bbbbcb289260048082019392918290030181865afa158015611d11573d6000803e3d6000fd5b505050506040513d601f19601f82011682018060405250810190610e4291906134e6565b600b54600c5460408051600280825260608083018452946001600160a01b039081169416926000929190602083019080368337505060055482519293506001600160a01b0316918391506001908110611d9057611d906136c8565b6001600160a01b03928316602091820292909201015260065482519116908290600090611dbf57611dbf6136c8565b6001600160a01b03929092166020928302919091018201526040805160028082526060820183526000939192909183019080368337019050509050600081600160ff1681518110611e1257611e126136c8565b602002602001018181525050600081600060ff1681518110611e3657611e366136c8565b60200260200101818152505060006040518060800160405280848152602001838152602001600189604051602001611e7d92919060ff929092168252602082015260400190565b6040516020818303038152906040528152602001600015158152509050836001600160a01b031663c7b2c52c866001600160a01b03166338fff2d06040518163ffffffff1660e01b8152600401602060405180830381865afa158015611ee7573d6000803e3d6000fd5b505050506040513d601f19601f82011682018060405250810190611f0b91906134e6565b3030856040518563ffffffff1660e01b8152600401611f2d94939291906137c6565b6000604051808303816000875af1158015611f4c573d6000803e3d6000fd5b505050506040513d6000823e601f3d908101601f19168201604052611f749190810190613802565b98975050505050505050565b601b54600090600160701b900460ff16611fad57604051632dc1ba0760e11b815260040160405180910390fd5b336000908152601660205260409020546001600160a01b031615611fe45760405163416bb01b60e11b815260040160405180910390fd5b600354600254600554600654600754600854600a54600b54600d54600e54600f54601b5460405160009c61205c9c339c309c6001600160a01b039384169c9284169b9184169a9084169992841698918416979084169692841695919490841693909216916001600160401b039091169060200161390b565b60408051601f19818403018152919052601454909150600090612088906001600160a01b031683612ffc565b9050806001600160a01b031663495ae9516040518163ffffffff1660e01b8152600401600060405180830381600087803b1580156120c557600080fd5b505af11580156120d9573d6000803e3d6000fd5b505050506001600160a01b03811660008181526015602090815260408083208054336001600160a01b03199182168117909255818552601684529382902080549094168517909355601b548151948552918401929092526001600160401b0316908201527f59103cb3673f480bb6bba650108838859974ef3eac459236d03cd246f03548d39060600160405180910390a191505090565b60408051600480825260a08201909252606091602082016080803683370190505090506426a4a72a2960d91b816000815181106121af576121af6136c8565b6001600160d81b0319909216602092830291909101909101526121d764545253525960d81b90565b816001815181106121ea576121ea6136c8565b6001600160d81b03199092166020928302919091019091015261221264424c52454760d81b90565b81600281518110612225576122256136c8565b6001600160d81b03199092166020928302919091019091015261224d64524f4c455360d81b90565b81600381518110612260576122606136c8565b60200260200101906001600160d81b03191690816001600160d81b031916815250506122a581600081518110612298576122986136c8565b602002602001015161311b565b600260006101000a8154816001600160a01b0302191690836001600160a01b031602179055506122e181600181518110612298576122986136c8565b600360006101000a8154816001600160a01b0302191690836001600160a01b0316021790555061231d81600281518110612298576122986136c8565b600460006101000a8154816001600160a01b0302191690836001600160a01b0316021790555061235981600381518110612298576122986136c8565b600180546001600160a01b0319166001600160a01b039290921691909117905590565b601b54600160701b900460ff166123a657604051632dc1ba0760e11b815260040160405180910390fd5b336000908152601560205260409020546001600160a01b03166123dc5760405163e910e6ad60e01b815260040160405180910390fd5b806017600082825461087b9190613884565b600080601854601954601a546124049190613884565b61240e91906134cf565b9050600061241a6124c2565b905060008161243184670de0b6b3a76400006136de565b61243b91906136fd565b949350505050565b6001600160a01b0381811660009081526016602052604081205490911661246c57506000919050565b6001600160a01b03808316600090815260166020908152604091829020548251638421403d60e01b81529251931692638421403d9260048082019392918290030181865afa158015611d11573d6000803e3d6000fd5b60115460009081906124ed906001600160a01b03811690600160a01b900465ffffffffffff16612f23565b601254909150600090612519906001600160a01b03811690600160a01b900465ffffffffffff16612f23565b601354909150600090612545906001600160a01b03811690600160a01b900465ffffffffffff16612f23565b905061255182846136de565b6109e982676765c793fa10079d601b1b6136de565b6001600160a01b0380821660009081526016602052604090205460609116806125ce5760408051600080825260208201909252906125c6565b604080518082019091526000808252602082015281526020019060019003908161259f5790505b509392505050565b6000816001600160a01b031663fef97e4c6040518163ffffffff1660e01b8152600401600060405180830381865afa15801561260e573d6000803e3d6000fd5b505050506040513d6000823e601f3d908101601f1916820160405261243b91908101906139e1565b601b54600160701b900460ff1661266057604051632dc1ba0760e11b815260040160405180910390fd5b336000908152601560205260409020546001600160a01b03166126965760405163e910e6ad60e01b815260040160405180910390fd5b601954601a546126a69190613884565b816018546126b49190613884565b11156126d357604051630296121d60e31b815260040160405180910390fd5b80601860008282546126e59190613884565b9091555050600254604051626b3fcf60e71b81526001600160a01b039091169063359fe7809061271b903090859060040161386b565b600060405180830381600087803b15801561273557600080fd5b505af1158015612749573d6000803e3d6000fd5b5050600254604051633a56e30760e01b81526001600160a01b039091169250633a56e3079150610adc903390859060040161386b565b600f546040805163355688fd60e21b815290516060926001600160a01b031691600091839163d55a23f49160048083019260209291908290030181865afa1580156127ce573d6000803e3d6000fd5b505050506040513d601f19601f820116820180604052508101906127f291906134e6565b90506000612801826002613884565b6001600160401b03811115612818576128186134ff565b604051908082528060200260200182016040528015612841578160200160208202803683370190505b5060075481519192506001600160a01b0316908290600090612865576128656136c8565b60200260200101906001600160a01b031690816001600160a01b031681525050826001600160a01b031663f7c618c16040518163ffffffff1660e01b8152600401602060405180830381865afa1580156128c3573d6000803e3d6000fd5b505050506040513d601f19601f820116820180604052508101906128e79190613a9f565b816001815181106128fa576128fa6136c8565b60200260200101906001600160a01b031690816001600160a01b03168152505060005b828110156125c657604051632061aa2360e11b8152600481018290526000906001600160a01b038616906340c3544690602401602060405180830381865afa15801561296d573d6000803e3d6000fd5b505050506040513d601f19601f820116820180604052508101906129919190613a9f565b9050806001600160a01b031663f7c618c16040518163ffffffff1660e01b8152600401602060405180830381865afa1580156129d1573d6000803e3d6000fd5b505050506040513d601f19601f820116820180604052508101906129f59190613a9f565b6001600160a01b031663c55dae636040518163ffffffff1660e01b8152600401602060405180830381865afa158015612a32573d6000803e3d6000fd5b505050506040513d601f19601f82011682018060405250810190612a569190613a9f565b83612a62846002613884565b81518110612a7257612a726136c8565b6001600160a01b03909216602092830291909101909101525060010161291d565b60015460405163d09a20c560e01b8152600080516020613b39833981519152916001600160a01b03169063d09a20c590612ad3908490339060040161371f565b600060405180830381600087803b158015612aed57600080fd5b505af1158015612b01573d6000803e3d6000fd5b50506011805465ffffffffffff978816600160a01b90810265ffffffffffff60a01b1992831617909255601280549789168302978216979097179096556013805495909716029390941692909217909355505050565b600f546008546000916001600160a01b0390811691811690841603612bdf57806001600160a01b0316637b0a47ee6040518163ffffffff1660e01b8152600401602060405180830381865afa158015612bb4573d6000803e3d6000fd5b505050506040513d601f19601f82011682018060405250810190612bd891906134e6565b9150612eff565b6007546001600160a01b0390811690841603612ccf576000816001600160a01b0316637b0a47ee6040518163ffffffff1660e01b8152600401602060405180830381865afa158015612c35573d6000803e3d6000fd5b505050506040513d601f19601f82011682018060405250810190612c5991906134e6565b60105460405163043ee96960e01b8152600481018390529192506001600160a01b03169063043ee96990602401602060405180830381865afa158015612ca3573d6000803e3d6000fd5b505050506040513d601f19601f82011682018060405250810190612cc791906134e6565b925050612eff565b6000816001600160a01b031663d55a23f46040518163ffffffff1660e01b8152600401602060405180830381865afa158015612d0f573d6000803e3d6000fd5b505050506040513d601f19601f82011682018060405250810190612d3391906134e6565b905060005b81811015612efc57604051632061aa2360e11b8152600481018290526000906001600160a01b038516906340c3544690602401602060405180830381865afa158015612d88573d6000803e3d6000fd5b505050506040513d601f19601f82011682018060405250810190612dac9190613a9f565b9050806001600160a01b031663f7c618c16040518163ffffffff1660e01b8152600401602060405180830381865afa158015612dec573d6000803e3d6000fd5b505050506040513d601f19601f82011682018060405250810190612e109190613a9f565b6001600160a01b031663c55dae636040518163ffffffff1660e01b8152600401602060405180830381865afa158015612e4d573d6000803e3d6000fd5b505050506040513d601f19601f82011682018060405250810190612e719190613a9f565b6001600160a01b0316866001600160a01b031603612ef357806001600160a01b0316637b0a47ee6040518163ffffffff1660e01b8152600401602060405180830381865afa158015612ec7573d6000803e3d6000fd5b505050506040513d601f19601f82011682018060405250810190612eeb91906134e6565b945050612efc565b50600101612d38565b50505b50919050565b6000806000612f12610e48565b925060185491506019549050909192565b6000806000806000866001600160a01b031663feaf968c6040518163ffffffff1660e01b815260040160a060405180830381865afa158015612f69573d6000803e3d6000fd5b505050506040513d601f19601f82011682018060405250810190612f8d9190613ad3565b945094505093509350600083131580612fb65750612fb365ffffffffffff8716426134cf565b82105b80612fd35750836001600160501b0316816001600160501b031614155b15612ff1576040516314c2250760e21b815260040160405180910390fd5b509095945050505050565b8051604051613d6160f01b8152603a820160f081811b6002848101919091526680600b3d3981f360c81b600485015264363d3d376160d81b600b8501528401901b6010830181905268603836393d3d3d366160b81b6012840152601b83015262013d7360e81b601d830152606085901b6020808401919091526e5af43d82803e903d91603657fd5bf360881b60348401526000939260458401929186019084604382015b602082106130bf5783518152602093840193601f1990920191016130a0565b835160001960208490036101000a0119908116825260f088901b91830191825286846000f098506001600160a01b03891661310d57604051631d7fde3160e31b815260040160405180910390fd5b505050505050505092915050565b60008054604051632d37002d60e21b815282916001600160a01b03169063b4dc00b49061314c908690600401613b23565b602060405180830381865afa158015613169573d6000803e3d6000fd5b505050506040513d601f19601f8201168201806040525081019061318d9190613a9f565b90506001600160a01b038116610e425782604051635c3fa9cd60e01b81526004016116549190613b23565b6000602082840312156131ca57600080fd5b5035919050565b6001600160a01b0391909116815260200190565b6001600160a01b03811681146131fa57600080fd5b50565b60006020828403121561320f57600080fd5b813561321a816131e5565b9392505050565b803565ffffffffffff8116811461323757600080fd5b919050565b60006020828403121561324e57600080fd5b61321a82613221565b6000815180845260005b8181101561327d57602081850181015186830182015201613261565b8181111561328f576000602083870101525b50601f01601f19169290920160200192915050565b60208152600061321a6020830184613257565b602080825282518282018190526000919060409081850190868401855b8281101561330d57815180516001600160d81b03191685528601516001600160e01b0319168685015292840192908501906001016132d4565b5091979650505050505050565b60006020828403121561332c57600080fd5b81356001600160401b038116811461321a57600080fd5b600081518084526020808501945080840160005b8381101561337357815187529582019590820190600101613357565b509495945050505050565b60208152600061321a6020830184613343565b6020808252825182820181905260009190848201906040850190845b818110156133d35783516001600160d81b031916835292840192918401916001016133ad565b50909695505050505050565b602080825282518282018190526000919060409081850190868401855b8281101561330d57815180516001600160a01b031685528601518685015292840192908501906001016133fc565b600081518084526020808501945080840160005b838110156133735781516001600160a01b03168752958201959082019060010161343e565b60208152600061321a602083018461342a565b60008060006060848603121561348b57600080fd5b61349484613221565b92506134a260208501613221565b91506134b060408501613221565b90509250925092565b634e487b7160e01b600052601160045260246000fd5b6000828210156134e1576134e16134b9565b500390565b6000602082840312156134f857600080fd5b5051919050565b634e487b7160e01b600052604160045260246000fd5b604080519081016001600160401b0381118282101715613537576135376134ff565b60405290565b604051601f8201601f191681016001600160401b0381118282101715613565576135656134ff565b604052919050565b60006001600160401b03821115613586576135866134ff565b5060051b60200190565b600082601f8301126135a157600080fd5b815160206135b66135b18361356d565b61353d565b82815260059290921b840181019181810190868411156135d557600080fd5b8286015b848110156135f057805183529183019183016135d9565b509695505050505050565b60008060006060848603121561361057600080fd5b83516001600160401b038082111561362757600080fd5b818601915086601f83011261363b57600080fd5b8151602061364b6135b18361356d565b82815260059290921b8401810191818101908a84111561366a57600080fd5b948201945b83861015613691578551613682816131e5565b8252948201949082019061366f565b918901519197509093505050808211156136aa57600080fd5b506136b786828701613590565b925050604084015190509250925092565b634e487b7160e01b600052603260045260246000fd5b60008160001904831182151516156136f8576136f86134b9565b500290565b60008261371a57634e487b7160e01b600052601260045260246000fd5b500490565b9182526001600160a01b0316602082015260400190565b60ff841681526060602082015260006137526060830185613343565b905060ff83166040830152949350505050565b600081516080845261377a608085018261342a565b9050602083015184820360208601526137938282613343565b915050604083015184820360408601526137ad8282613257565b9150506060830151151560608501528091505092915050565b8481526001600160a01b038481166020830152831660408201526080606082018190526000906137f890830184613765565b9695505050505050565b6000806040838503121561381557600080fd5b825160208401519092506001600160401b0381111561383357600080fd5b61383f85828601613590565b9150509250929050565b60006020828403121561385b57600080fd5b8151801515811461321a57600080fd5b6001600160a01b03929092168252602082015260400190565b60008219821115613897576138976134b9565b500190565b600181811c908216806138b057607f821691505b602082108103612eff57634e487b7160e01b600052602260045260246000fd5b6000602082840312156138e257600080fd5b81516001600160d81b03198116811461321a57600080fd5b60601b6001600160601b0319169052565b60608f901b6001600160601b0319168152613929601482018f6138fa565b613936602882018e6138fa565b613943603c82018d6138fa565b613950605082018c6138fa565b61395d606482018b6138fa565b61396a607882018a6138fa565b613977608c8201896138fa565b61398460a08201886138fa565b61399160b48201876138fa565b8460c88201526139a460e88201856138fa565b6139b160fc8201846138fa565b6139cb61011082018360c01b6001600160c01b0319169052565b610118019e9d5050505050505050505050505050565b600060208083850312156139f457600080fd5b82516001600160401b03811115613a0a57600080fd5b8301601f81018513613a1b57600080fd5b8051613a296135b18261356d565b81815260069190911b82018301908381019087831115613a4857600080fd5b928401925b82841015613a945760408489031215613a665760008081fd5b613a6e613515565b8451613a79816131e5565b81528486015186820152825260409093019290840190613a4d565b979650505050505050565b600060208284031215613ab157600080fd5b815161321a816131e5565b80516001600160501b038116811461323757600080fd5b600080600080600060a08688031215613aeb57600080fd5b613af486613abc565b9450602086015193506040860151925060608601519150613b1760808701613abc565b90509295509295909350565b6001600160d81b03199190911681526020019056fe6c69717569646974797661756c745f61646d696e000000000000000000000000a2646970667358221220654255ebf5c654c333c28faf1aa6d5a98a3e074c7b1b56cd02e748fff3e20b0e64736f6c634300080f0033",
    "linkReferences": {}
  },
  "methodIdentifiers": {
    "BLREG()": "8a545c53",
    "MAX_FEE()": "bc063e1a",
    "MINTR()": "577de7d0",
    "ROLES()": "923cb952",
    "TRSRY()": "80cee4ab",
    "activate()": "0f15f4c0",
    "aura()": "e13b7f5c",
    "auraData()": "72e61340",
    "auraMiningLib()": "6df29b91",
    "bal()": "3d79d1c8",
    "balancerData()": "46305946",
    "burnOhmFromVault(uint256)": "30d14a14",
    "canWithdraw(address)": "19262d30",
    "changeKernel(address)": "4657b36c",
    "changeUpdateThresholds(uint48,uint48,uint48)": "c4fa8d80",
    "circulatingOhmBurned()": "682c437c",
    "configureDependencies()": "9459b875",
    "currentFee()": "da3c300d",
    "deactivate()": "51b42b00",
    "decreaseTotalLp(uint256)": "0006841a",
    "deployVault()": "901c4e4f",
    "deployedOhm()": "7780f56d",
    "emergencyBurnOhm(uint256)": "1af003fa",
    "ethUsdPriceFeed()": "42f6fb29",
    "exchangeName()": "4f68ea5f",
    "getExpectedLpAmount(uint256)": "10043e8e",
    "getExpectedPairTokenOutUser(uint256)": "3cf64cb4",
    "getExpectedTokensOutProtocol(uint256)": "75b6cac0",
    "getLpBalance(address)": "aa381fc6",
    "getMaxDeposit()": "a4dbc6a8",
    "getOhmSupplyChangeData()": "edf7d3d1",
    "getOhmTknPoolPrice()": "061a0568",
    "getOhmTknPrice()": "b53b76fd",
    "getOutstandingRewards(address)": "bce3b836",
    "getPoolOhmShare()": "19e23bf0",
    "getRewardRate(address)": "ea7cbff1",
    "getRewardTokens()": "c4f59f9b",
    "getTknOhmPrice()": "60b60baf",
    "getUserPairShare(address)": "6f02d550",
    "implementation()": "5c60da1b",
    "increaseTotalLp(uint256)": "a2b0f926",
    "isActive()": "22f3e2d4",
    "isLusdBLVaultActive()": "b7dfda7e",
    "kernel()": "d4aae0c4",
    "lusdUsdPriceFeed()": "9cb1b55b",
    "minWithdrawalDelay()": "0d5b0067",
    "mintOhmToVault(uint256)": "bd823615",
    "ohm()": "02b1d239",
    "ohmEthPriceFeed()": "861ab19f",
    "ohmLimit()": "56c04539",
    "pairToken()": "3de35b79",
    "requestPermissions()": "5924be70",
    "setFee(uint64)": "5a630d7a",
    "setLimit(uint256)": "27ea6f2b",
    "setWithdrawalDelay(uint48)": "4baaee46",
    "totalLp()": "242c135d",
    "userVaults(address)": "2958d031",
    "vaultOwners(address)": "8b84841b"
  },
  "id": 62
}