{
  "abi": [
    {
      "inputs": [],
      "stateMutability": "nonpayable",
      "type": "constructor"
    },
    {
      "inputs": [],
      "name": "BLVaultLusd_Active",
      "type": "error"
    },
    {
      "inputs": [],
      "name": "BLVaultLusd_AlreadyInitialized",
      "type": "error"
    },
    {
      "inputs": [],
      "name": "BLVaultLusd_AuraDepositFailed",
      "type": "error"
    },
    {
      "inputs": [],
      "name": "BLVaultLusd_AuraWithdrawalFailed",
      "type": "error"
    },
    {
      "inputs": [],
      "name": "BLVaultLusd_Inactive",
      "type": "error"
    },
    {
      "inputs": [],
      "name": "BLVaultLusd_OnlyOwner",
      "type": "error"
    },
    {
      "inputs": [],
      "name": "BLVaultLusd_Reentrancy",
      "type": "error"
    },
    {
      "inputs": [],
      "name": "BLVaultLusd_WithdrawFailedPriceImbalance",
      "type": "error"
    },
    {
      "inputs": [],
      "name": "BLVaultLusd_WithdrawalDelay",
      "type": "error"
    },
    {
      "anonymous": false,
      "inputs": [
        {
          "indexed": false,
          "internalType": "uint256",
          "name": "ohmAmount",
          "type": "uint256"
        },
        {
          "indexed": false,
          "internalType": "uint256",
          "name": "lusdAmount",
          "type": "uint256"
        }
      ],
      "name": "Deposit",
      "type": "event"
    },
    {
      "anonymous": false,
      "inputs": [
        {
          "indexed": true,
          "internalType": "address",
          "name": "rewardsToken",
          "type": "address"
        },
        {
          "indexed": false,
          "internalType": "uint256",
          "name": "amount",
          "type": "uint256"
        }
      ],
      "name": "RewardsClaimed",
      "type": "event"
    },
    {
      "anonymous": false,
      "inputs": [
        {
          "indexed": false,
          "internalType": "uint256",
          "name": "ohmAmount",
          "type": "uint256"
        },
        {
          "indexed": false,
          "internalType": "uint256",
          "name": "lusdAmount",
          "type": "uint256"
        }
      ],
      "name": "Withdraw",
      "type": "event"
    },
    {
      "inputs": [],
      "name": "MINTR",
      "outputs": [
        {
          "internalType": "address",
          "name": "",
          "type": "address"
        }
      ],
      "stateMutability": "pure",
      "type": "function"
    },
    {
      "inputs": [],
      "name": "TRSRY",
      "outputs": [
        {
          "internalType": "address",
          "name": "",
          "type": "address"
        }
      ],
      "stateMutability": "pure",
      "type": "function"
    },
    {
      "inputs": [],
      "name": "aura",
      "outputs": [
        {
          "internalType": "contract ERC20",
          "name": "",
          "type": "address"
        }
      ],
      "stateMutability": "pure",
      "type": "function"
    },
    {
      "inputs": [],
      "name": "auraBooster",
      "outputs": [
        {
          "internalType": "contract IAuraBooster",
          "name": "",
          "type": "address"
        }
      ],
      "stateMutability": "pure",
      "type": "function"
    },
    {
      "inputs": [],
      "name": "auraRewardPool",
      "outputs": [
        {
          "internalType": "contract IAuraRewardPool",
          "name": "",
          "type": "address"
        }
      ],
      "stateMutability": "pure",
      "type": "function"
    },
    {
      "inputs": [],
      "name": "bal",
      "outputs": [
        {
          "internalType": "contract ERC20",
          "name": "",
          "type": "address"
        }
      ],
      "stateMutability": "pure",
      "type": "function"
    },
    {
      "inputs": [],
      "name": "canWithdraw",
      "outputs": [
        {
          "internalType": "bool",
          "name": "",
          "type": "bool"
        }
      ],
      "stateMutability": "view",
      "type": "function"
    },
    {
      "inputs": [],
      "name": "claimRewards",
      "outputs": [],
      "stateMutability": "nonpayable",
      "type": "function"
    },
    {
      "inputs": [
        {
          "internalType": "uint256",
          "name": "amount_",
          "type": "uint256"
        },
        {
          "internalType": "uint256",
          "name": "minLpAmount_",
          "type": "uint256"
        }
      ],
      "name": "deposit",
      "outputs": [
        {
          "internalType": "uint256",
          "name": "lpAmountOut",
          "type": "uint256"
        }
      ],
      "stateMutability": "nonpayable",
      "type": "function"
    },
    {
      "inputs": [
        {
          "internalType": "uint256",
          "name": "lpAmount_",
          "type": "uint256"
        },
        {
          "internalType": "uint256[]",
          "name": "minTokenAmounts_",
          "type": "uint256[]"
        }
      ],
      "name": "emergencyWithdraw",
      "outputs": [
        {
          "internalType": "uint256",
          "name": "",
          "type": "uint256"
        },
        {
          "internalType": "uint256",
          "name": "",
          "type": "uint256"
        }
      ],
      "stateMutability": "nonpayable",
      "type": "function"
    },
    {
      "inputs": [],
      "name": "fee",
      "outputs": [
        {
          "internalType": "uint64",
          "name": "",
          "type": "uint64"
        }
      ],
      "stateMutability": "pure",
      "type": "function"
    },
    {
      "inputs": [],
      "name": "getLpBalance",
      "outputs": [
        {
          "internalType": "uint256",
          "name": "",
          "type": "uint256"
        }
      ],
      "stateMutability": "view",
      "type": "function"
    },
    {
      "inputs": [],
      "name": "getOutstandingRewards",
      "outputs": [
        {
          "components": [
            {
              "internalType": "address",
              "name": "rewardToken",
              "type": "address"
            },
            {
              "internalType": "uint256",
              "name": "outstandingRewards",
              "type": "uint256"
            }
          ],
          "internalType": "struct RewardsData[]",
          "name": "",
          "type": "tuple[]"
        }
      ],
      "stateMutability": "view",
      "type": "function"
    },
    {
      "inputs": [],
      "name": "getUserPairShare",
      "outputs": [
        {
          "internalType": "uint256",
          "name": "",
          "type": "uint256"
        }
      ],
      "stateMutability": "view",
      "type": "function"
    },
    {
      "inputs": [],
      "name": "initializeClone",
      "outputs": [],
      "stateMutability": "nonpayable",
      "type": "function"
    },
    {
      "inputs": [],
      "name": "lastDeposit",
      "outputs": [
        {
          "internalType": "uint256",
          "name": "",
          "type": "uint256"
        }
      ],
      "stateMutability": "view",
      "type": "function"
    },
    {
      "inputs": [],
      "name": "liquidityPool",
      "outputs": [
        {
          "internalType": "contract IBasePool",
          "name": "",
          "type": "address"
        }
      ],
      "stateMutability": "pure",
      "type": "function"
    },
    {
      "inputs": [],
      "name": "lusd",
      "outputs": [
        {
          "internalType": "contract ERC20",
          "name": "",
          "type": "address"
        }
      ],
      "stateMutability": "pure",
      "type": "function"
    },
    {
      "inputs": [],
      "name": "manager",
      "outputs": [
        {
          "internalType": "contract BLVaultManagerLusd",
          "name": "",
          "type": "address"
        }
      ],
      "stateMutability": "pure",
      "type": "function"
    },
    {
      "inputs": [],
      "name": "ohm",
      "outputs": [
        {
          "internalType": "contract OlympusERC20Token",
          "name": "",
          "type": "address"
        }
      ],
      "stateMutability": "pure",
      "type": "function"
    },
    {
      "inputs": [],
      "name": "owner",
      "outputs": [
        {
          "internalType": "address",
          "name": "",
          "type": "address"
        }
      ],
      "stateMutability": "pure",
      "type": "function"
    },
    {
      "inputs": [],
      "name": "pid",
      "outputs": [
        {
          "internalType": "uint256",
          "name": "",
          "type": "uint256"
        }
      ],
      "stateMutability": "pure",
      "type": "function"
    },
    {
      "inputs": [],
      "name": "vault",
      "outputs": [
        {
          "internalType": "contract IVault",
          "name": "",
          "type": "address"
        }
      ],
      "stateMutability": "pure",
      "type": "function"
    },
    {
      "inputs": [
        {
          "internalType": "uint256",
          "name": "lpAmount_",
          "type": "uint256"
        },
        {
          "internalType": "uint256[]",
          "name": "minTokenAmountsBalancer_",
          "type": "uint256[]"
        },
        {
          "internalType": "uint256",
          "name": "minTokenAmountUser_",
          "type": "uint256"
        },
        {
          "internalType": "bool",
          "name": "claim_",
          "type": "bool"
        }
      ],
      "name": "withdraw",
      "outputs": [
        {
          "internalType": "uint256",
          "name": "",
          "type": "uint256"
        },
        {
          "internalType": "uint256",
          "name": "",
          "type": "uint256"
        }
      ],
      "stateMutability": "nonpayable",
      "type": "function"
    }
  ],
  "bytecode": {
    "object": "0x608060405234801561001057600080fd5b506132e1806100206000396000f3fe608060405234801561001057600080fd5b50600436106101275760003560e01c8062c362111461012c57806302b1d2391461014a57806336b7710714610152578063372500ab146101695780633d79d1c814610173578063481c6a751461017b578063495ae95114610183578063577de7d01461018b578063665a11ca1461019357806371f39ca11461019b57806380cee4ab146101c357806381bf829d146101cb5780638421403d146101d35780638da5cb5b146101db57806394fad9bb146101e357806399ad68a7146101f6578063b51459fe146101fe578063bbbbcb2814610216578063ddca3f431461021e578063e13b7f5c1461023e578063e2bbb15814610246578063f106845414610259578063fbfa77cf14610261578063fef97e4c14610269575b600080fd5b61013461027e565b6040516101419190612c4d565b60405180910390f35b61013461028f565b61015b60005481565b604051908152602001610141565b61017161029b565b005b6101346103fa565b610134610406565b610171610412565b610134610433565b61013461043f565b6101ae6101a9366004612cac565b61044b565b60408051928352602083019190915201610141565b610134610851565b61013461085d565b61015b610869565b6101346108df565b6101ae6101f1366004612d08565b6108eb565b610134610f1d565b610206610f29565b6040519015158152602001610141565b61015b610fb1565b6102266112fd565b6040516001600160401b039091168152602001610141565b61013461130a565b61015b610254366004612d72565b611316565b61015b611a59565b610134611a65565b610271611a71565b6040516101419190612d94565b600061028a60fc611f3f565b905090565b600061028a6050611f3f565b6102a3610406565b6001600160a01b031663b7dfda7e6040518163ffffffff1660e01b8152600401602060405180830381865afa1580156102e0573d6000803e3d6000fd5b505050506040513d601f19601f820116820180604052508101906103049190612dec565b61032157604051630be01d9560e21b815260040160405180910390fd5b6103296108df565b6001600160a01b0316336001600160a01b03161461035a5760405163e5dc028d60e01b815260040160405180910390fd5b60015460011461037d5760405163c1d779b160e01b815260040160405180910390fd5b600260015561038a61027e565b604051637050ccd960e01b8152306004820152600160248201526001600160a01b039190911690637050ccd990604401600060405180830381600087803b1580156103d457600080fd5b505af11580156103e8573d6000803e3d6000fd5b505050506103f4611f58565b60018055565b600061028a608c611f3f565b600061028a6014611f3f565b600154156103f4576040516397425eaf60e01b815260040160405180910390fd5b600061028a603c611f3f565b600061028a60b4611f3f565b600080610456610406565b6001600160a01b031663b7dfda7e6040518163ffffffff1660e01b8152600401602060405180830381865afa158015610493573d6000803e3d6000fd5b505050506040513d601f19601f820116820180604052508101906104b79190612dec565b156104d5576040516303bff20960e11b815260040160405180910390fd5b6104dd6108df565b6001600160a01b0316336001600160a01b03161461050e5760405163e5dc028d60e01b815260040160405180910390fd5b6001546001146105315760405163c1d779b160e01b815260040160405180910390fd5b6002600155600061054061028f565b9050600061054c610f1d565b90506000826001600160a01b03166370a08231306040518263ffffffff1660e01b815260040161057c9190612c4d565b602060405180830381865afa158015610599573d6000803e3d6000fd5b505050506040513d601f19601f820116820180604052508101906105bd9190612e10565b90506000826001600160a01b03166370a08231306040518263ffffffff1660e01b81526004016105ed9190612c4d565b602060405180830381865afa15801561060a573d6000803e3d6000fd5b505050506040513d601f19601f8201168201806040525081019061062e9190612e10565b905061063861027e565b604051636197390160e11b8152600481018b9052600060248201526001600160a01b03919091169063c32e7202906044016020604051808303816000875af1158015610688573d6000803e3d6000fd5b505050506040513d601f19601f820116820180604052508101906106ac9190612dec565b506106b88989896124b6565b600082856001600160a01b03166370a08231306040518263ffffffff1660e01b81526004016106e79190612c4d565b602060405180830381865afa158015610704573d6000803e3d6000fd5b505050506040513d601f19601f820116820180604052508101906107289190612e10565b6107329190612e3f565b9050600082856001600160a01b03166370a08231306040518263ffffffff1660e01b81526004016107639190612c4d565b602060405180830381865afa158015610780573d6000803e3d6000fd5b505050506040513d601f19601f820116820180604052508101906107a49190612e10565b6107ae9190612e3f565b90506107c46001600160a01b038616338361273b565b856001600160a01b031663a9059cbb6107db610406565b846040518363ffffffff1660e01b81526004016107f9929190612e56565b6020604051808303816000875af1158015610818573d6000803e3d6000fd5b505050506040513d601f19601f8201168201806040525081019061083c9190612dec565b5060018055909a909950975050505050505050565b600061028a6028611f3f565b600061028a60e8611f3f565b600061087361027e565b6001600160a01b03166370a08231306040518263ffffffff1660e01b815260040161089e9190612c4d565b602060405180830381865afa1580156108bb573d6000803e3d6000fd5b505050506040513d601f19601f8201168201806040525081019061028a9190612e10565b600061028a6000611f3f565b6000806108f66108df565b6001600160a01b0316336001600160a01b0316146109275760405163e5dc028d60e01b815260040160405180910390fd5b60015460011461094a5760405163c1d779b160e01b815260040160405180910390fd5b6002600155600061095961028f565b90506000610965610f1d565b90506000610971610406565b9050806001600160a01b0316630d5b00676040518163ffffffff1660e01b81526004016020604051808303816000875af11580156109b3573d6000803e3d6000fd5b505050506040513d601f19601f820116820180604052508101906109d79190612e6f565b65ffffffffffff16600054426109ed9190612e3f565b1015610a0c57604051630b1550e960e41b815260040160405180910390fd5b6040516370a0823160e01b81526000906001600160a01b038516906370a0823190610a3b903090600401612c4d565b602060405180830381865afa158015610a58573d6000803e3d6000fd5b505050506040513d601f19601f82011682018060405250810190610a7c9190612e10565b90506000836001600160a01b03166370a08231306040518263ffffffff1660e01b8152600401610aac9190612c4d565b602060405180830381865afa158015610ac9573d6000803e3d6000fd5b505050506040513d601f19601f82011682018060405250810190610aed9190612e10565b6040516203420d60e11b8152600481018e90529091506001600160a01b038416906206841a90602401600060405180830381600087803b158015610b3057600080fd5b505af1158015610b44573d6000803e3d6000fd5b505050506000610b5261027e565b604051636197390160e11b8152600481018f90528a151560248201526001600160a01b03919091169063c32e7202906044016020604051808303816000875af1158015610ba3573d6000803e3d6000fd5b505050506040513d601f19601f82011682018060405250810190610bc79190612dec565b905080610be757604051631d11677b60e21b815260040160405180910390fd5b610bf28d8d8d6124b6565b600083876001600160a01b03166370a08231306040518263ffffffff1660e01b8152600401610c219190612c4d565b602060405180830381865afa158015610c3e573d6000803e3d6000fd5b505050506040513d601f19601f82011682018060405250810190610c629190612e10565b610c6c9190612e3f565b9050600083876001600160a01b03166370a08231306040518263ffffffff1660e01b8152600401610c9d9190612c4d565b602060405180830381865afa158015610cba573d6000803e3d6000fd5b505050506040513d601f19601f82011682018060405250810190610cde9190612e10565b610ce89190612e3f565b90506000866001600160a01b03166360b60baf6040518163ffffffff1660e01b8152600401602060405180830381865afa158015610d2a573d6000803e3d6000fd5b505050506040513d601f19601f82011682018060405250810190610d4e9190612e10565b90506000633b9aca00610d618386612e97565b610d6b9190612eb6565b90506000818411610d7c5783610d7e565b815b90508e811015610da15760405163aedd123560e01b815260040160405180910390fd5b80841115610dcf57610dcf610db4610851565b610dbe8387612e3f565b6001600160a01b038d16919061273b565b8a6001600160a01b03166339509351610de6610433565b876040518363ffffffff1660e01b8152600401610e04929190612e56565b6020604051808303816000875af1158015610e23573d6000803e3d6000fd5b505050506040513d601f19601f82011682018060405250810190610e479190612dec565b50604051630c34528560e21b8152600481018690526001600160a01b038a16906330d14a1490602401600060405180830381600087803b158015610e8a57600080fd5b505af1158015610e9e573d6000803e3d6000fd5b50610eb7925050506001600160a01b038b16338361273b565b8d15610ec557610ec5611f58565b60408051868152602081018390527f56ca301a9219608c91e7bcee90e083c19671d2cdcc96752c7af291cee5f9c8c8910160405180910390a1939b509299505050505050505050506001805590969095509350505050565b600061028a6064611f3f565b6000610f33610406565b6001600160a01b0316630d5b00676040518163ffffffff1660e01b8152600401602060405180830381865afa158015610f70573d6000803e3d6000fd5b505050506040513d601f19601f82011682018060405250810190610f949190612e6f565b65ffffffffffff1660005442610faa9190612e3f565b1015905090565b6000610fbb61043f565b6001600160a01b03166318160ddd6040518163ffffffff1660e01b8152600401602060405180830381865afa158015610ff8573d6000803e3d6000fd5b505050506040513d601f19601f8201168201806040525081019061101c9190612e10565b6000036110295750600090565b6000611033610869565b9050600061103f611a65565b6001600160a01b031663f94d466861105561043f565b6001600160a01b03166338fff2d06040518163ffffffff1660e01b8152600401602060405180830381865afa158015611092573d6000803e3d6000fd5b505050506040513d601f19601f820116820180604052508101906110b69190612e10565b6040518263ffffffff1660e01b81526004016110d491815260200190565b600060405180830381865afa1580156110f1573d6000803e3d6000fd5b505050506040513d6000823e601f3d908101601f191682016040526111199190810190612fc1565b50915050600061112761043f565b6001600160a01b03166318160ddd6040518163ffffffff1660e01b8152600401602060405180830381865afa158015611164573d6000803e3d6000fd5b505050506040513d601f19601f820116820180604052508101906111889190612e10565b82600060ff168151811061119e5761119e61308e565b6020026020010151846111b19190612e97565b6111bb9190612eb6565b905060006111c7610406565b6001600160a01b03166360b60baf6040518163ffffffff1660e01b8152600401602060405180830381865afa158015611204573d6000803e3d6000fd5b505050506040513d601f19601f820116820180604052508101906112289190612e10565b90506000633b9aca0061123961043f565b6001600160a01b03166318160ddd6040518163ffffffff1660e01b8152600401602060405180830381865afa158015611276573d6000803e3d6000fd5b505050506040513d601f19601f8201168201806040525081019061129a9190612e10565b6112a49190612e97565b8285600160ff16815181106112bb576112bb61308e565b6020026020010151876112ce9190612e97565b6112d89190612e97565b6112e29190612eb6565b90508083116112f157826112f3565b805b9550505050505090565b600061028a610110612857565b600061028a6078611f3f565b6000611320610406565b6001600160a01b031663b7dfda7e6040518163ffffffff1660e01b8152600401602060405180830381865afa15801561135d573d6000803e3d6000fd5b505050506040513d601f19601f820116820180604052508101906113819190612dec565b61139e57604051630be01d9560e21b815260040160405180910390fd5b6113a66108df565b6001600160a01b0316336001600160a01b0316146113d75760405163e5dc028d60e01b815260040160405180910390fd5b6001546001146113fa5760405163c1d779b160e01b815260040160405180910390fd5b60026001556000611409610406565b9050600061141561028f565b90506000611421610f1d565b9050600061142d61043f565b9050600061143961085d565b90506000426000819055506000866001600160a01b031663b53b76fd6040518163ffffffff1660e01b8152600401602060405180830381865afa158015611484573d6000803e3d6000fd5b505050506040513d601f19601f820116820180604052508101906114a89190612e10565b90506000876001600160a01b031663061a05686040518163ffffffff1660e01b8152600401602060405180830381865afa1580156114ea573d6000803e3d6000fd5b505050506040513d601f19601f8201168201806040525081019061150e9190612e10565b9050600081831061151f5781611521565b825b9050670de0b6b3a7640000611536828e612e97565b6115409190612eb6565b93505050506000836001600160a01b03166370a08231306040518263ffffffff1660e01b81526004016115739190612c4d565b602060405180830381865afa158015611590573d6000803e3d6000fd5b505050506040513d601f19601f820116820180604052508101906115b49190612e10565b90506115cb6001600160a01b03861633308d612870565b60405163bd82361560e01b8152600481018390526001600160a01b0388169063bd82361590602401600060405180830381600087803b15801561160d57600080fd5b505af1158015611621573d6000803e3d6000fd5b50505050611630828b8b61298b565b6040516370a0823160e01b815281906001600160a01b038616906370a082319061165e903090600401612c4d565b602060405180830381865afa15801561167b573d6000803e3d6000fd5b505050506040513d601f19601f8201168201806040525081019061169f9190612e10565b6116a99190612e3f565b6040516351587c9360e11b8152600481018290529098506001600160a01b0388169063a2b0f92690602401600060405180830381600087803b1580156116ee57600080fd5b505af1158015611702573d6000803e3d6000fd5b505060405163095ea7b360e01b81526001600160a01b038716925063095ea7b391506117349086908c90600401612e56565b6020604051808303816000875af1158015611753573d6000803e3d6000fd5b505050506040513d601f19601f820116820180604052508101906117779190612dec565b506000836001600160a01b03166343a0d066611791611a59565b6040516001600160e01b031960e084901b1681526004810191909152602481018c9052600160448201526064016020604051808303816000875af11580156117dd573d6000803e3d6000fd5b505050506040513d601f19601f820116820180604052508101906118019190612dec565b905080611821576040516368981aa160e11b815260040160405180910390fd5b50506040516370a0823160e01b81526000906001600160a01b038716906370a0823190611852903090600401612c4d565b602060405180830381865afa15801561186f573d6000803e3d6000fd5b505050506040513d601f19601f820116820180604052508101906118939190612e10565b90506000856001600160a01b03166370a08231306040518263ffffffff1660e01b81526004016118c39190612c4d565b602060405180830381865afa1580156118e0573d6000803e3d6000fd5b505050506040513d601f19601f820116820180604052508101906119049190612e10565b905081156119e057866001600160a01b03166339509351611923610433565b846040518363ffffffff1660e01b8152600401611941929190612e56565b6020604051808303816000875af1158015611960573d6000803e3d6000fd5b505050506040513d601f19601f820116820180604052508101906119849190612dec565b50604051630c34528560e21b8152600481018390526001600160a01b038916906330d14a1490602401600060405180830381600087803b1580156119c757600080fd5b505af11580156119db573d6000803e3d6000fd5b505050505b80156119fa576119fa6001600160a01b038716338361273b565b7fa3af609bf46297028ce551832669030f9effef2b02606d02cbbcc40fe6b47c55611a258385612e3f565b611a2f838e612e3f565b6040805192835260208301919091520160405180910390a150505050505050506001805592915050565b600061028a60c8612c26565b600061028a60a0611f3f565b60606000611a7d61027e565b6001600160a01b031663d55a23f46040518163ffffffff1660e01b8152600401602060405180830381865afa158015611aba573d6000803e3d6000fd5b505050506040513d601f19601f82011682018060405250810190611ade9190612e10565b90506000611aed8260026130a4565b6001600160401b03811115611b0457611b04612ed8565b604051908082528060200260200182016040528015611b4957816020015b6040805180820190915260008082526020820152815260200190600190039081611b225790505b5090506000611b5661027e565b6001600160a01b0316628cc262306040518263ffffffff1660e01b8152600401611b809190612c4d565b602060405180830381865afa158015611b9d573d6000803e3d6000fd5b505050506040513d601f19601f82011682018060405250810190611bc19190612e10565b90506040518060400160405280611bd66103fa565b6001600160a01b031681526020018281525082600081518110611bfb57611bfb61308e565b60200260200101819052506000611c10610406565b6001600160a01b0316636df29b916040518163ffffffff1660e01b8152600401602060405180830381865afa158015611c4d573d6000803e3d6000fd5b505050506040513d601f19601f82011682018060405250810190611c7191906130bc565b6001600160a01b031663043ee969836040518263ffffffff1660e01b8152600401611c9e91815260200190565b602060405180830381865afa158015611cbb573d6000803e3d6000fd5b505050506040513d601f19601f82011682018060405250810190611cdf9190612e10565b90506040518060400160405280611cf461130a565b6001600160a01b031681526020018281525083600181518110611d1957611d1961308e565b602002602001018190525060005b84811015611f35576000611d3961027e565b6001600160a01b03166340c35446836040518263ffffffff1660e01b8152600401611d6691815260200190565b602060405180830381865afa158015611d83573d6000803e3d6000fd5b505050506040513d601f19601f82011682018060405250810190611da791906130bc565b90506000816001600160a01b031663f7c618c16040518163ffffffff1660e01b8152600401602060405180830381865afa158015611de9573d6000803e3d6000fd5b505050506040513d601f19601f82011682018060405250810190611e0d91906130bc565b6001600160a01b031663c55dae636040518163ffffffff1660e01b8152600401602060405180830381865afa158015611e4a573d6000803e3d6000fd5b505050506040513d601f19601f82011682018060405250810190611e6e91906130bc565b90506000826001600160a01b0316628cc262306040518263ffffffff1660e01b8152600401611e9d9190612c4d565b602060405180830381865afa158015611eba573d6000803e3d6000fd5b505050506040513d601f19601f82011682018060405250810190611ede9190612e10565b90506040518060400160405280836001600160a01b031681526020018281525087856002611f0c91906130a4565b81518110611f1c57611f1c61308e565b6020026020010181905250836001019350505050611d27565b5091949350505050565b600080611f4a612c3c565b929092013560601c92915050565b6000611f626103fa565b6001600160a01b03166370a08231306040518263ffffffff1660e01b8152600401611f8d9190612c4d565b602060405180830381865afa158015611faa573d6000803e3d6000fd5b505050506040513d601f19601f82011682018060405250810190611fce9190612e10565b90506000612710611fdd6112fd565b611ff0906001600160401b031684612e97565b611ffa9190612eb6565b905060006120088284612e3f565b11156120775761203b6120196108df565b6120238385612e3f565b61202b6103fa565b6001600160a01b0316919061273b565b6120436103fa565b6001600160a01b031660008051602061328c8339815191526120658385612e3f565b60405190815260200160405180910390a25b801561209157612091612088610851565b8261202b6103fa565b5050600061209d61130a565b6001600160a01b03166370a08231306040518263ffffffff1660e01b81526004016120c89190612c4d565b602060405180830381865afa1580156120e5573d6000803e3d6000fd5b505050506040513d601f19601f820116820180604052508101906121099190612e10565b905060006127106121186112fd565b61212b906001600160401b031684612e97565b6121359190612eb6565b905060006121438284612e3f565b11156121a2576121666121546108df565b61215e8385612e3f565b61202b61130a565b61216e61130a565b6001600160a01b031660008051602061328c8339815191526121908385612e3f565b60405190815260200160405180910390a25b80156121bc576121bc6121b3610851565b8261202b61130a565b505060006121c861027e565b6001600160a01b031663d55a23f46040518163ffffffff1660e01b8152600401602060405180830381865afa158015612205573d6000803e3d6000fd5b505050506040513d601f19601f820116820180604052508101906122299190612e10565b905060005b818110156124b257600061224061027e565b6001600160a01b03166340c35446836040518263ffffffff1660e01b815260040161226d91815260200190565b602060405180830381865afa15801561228a573d6000803e3d6000fd5b505050506040513d601f19601f820116820180604052508101906122ae91906130bc565b90506000816001600160a01b031663f7c618c16040518163ffffffff1660e01b8152600401602060405180830381865afa1580156122f0573d6000803e3d6000fd5b505050506040513d601f19601f8201168201806040525081019061231491906130bc565b6001600160a01b031663c55dae636040518163ffffffff1660e01b8152600401602060405180830381865afa158015612351573d6000803e3d6000fd5b505050506040513d601f19601f8201168201806040525081019061237591906130bc565b90506000816001600160a01b03166370a08231306040518263ffffffff1660e01b81526004016123a59190612c4d565b602060405180830381865afa1580156123c2573d6000803e3d6000fd5b505050506040513d601f19601f820116820180604052508101906123e69190612e10565b905060006127106123f56112fd565b612408906001600160401b031684612e97565b6124129190612eb6565b905060006124208284612e3f565b11156124815761244c6124316108df565b61243b8385612e3f565b6001600160a01b038616919061273b565b6001600160a01b03831660008051602061328c83398151915261246f8385612e3f565b60405190815260200160405180910390a25b80156124a3576124a3612492610851565b6001600160a01b038516908361273b565b8460010194505050505061222e565b5050565b60006124c061028f565b905060006124cc610f1d565b905060006124d861043f565b905060006124e4611a65565b60408051600280825260608201835292935060009290916020830190803683370190505090508481600160ff16815181106125215761252161308e565b60200260200101906001600160a01b031690816001600160a01b0316815250508381600060ff16815181106125585761255861308e565b60200260200101906001600160a01b031690816001600160a01b031681525050600060405180608001604052808381526020018989808060200260200160405190810160405280939291908181526020018383602002808284376000920191909152505050908252506040805160016020808301919091529181018d90529101906060016040516020818303038152906040528152602001600015158152509050836001600160a01b031663095ea7b3848b6040518363ffffffff1660e01b8152600401612627929190612e56565b6020604051808303816000875af1158015612646573d6000803e3d6000fd5b505050506040513d601f19601f8201168201806040525081019061266a9190612dec565b50826001600160a01b0316638bdb3913856001600160a01b03166338fff2d06040518163ffffffff1660e01b8152600401602060405180830381865afa1580156126b8573d6000803e3d6000fd5b505050506040513d601f19601f820116820180604052508101906126dc9190612e10565b3030856040518563ffffffff1660e01b81526004016126fe9493929190613207565b600060405180830381600087803b15801561271857600080fd5b505af115801561272c573d6000803e3d6000fd5b50505050505050505050505050565b600080846001600160a01b031663a9059cbb60e01b8585604051602401612763929190612e56565b60408051601f198184030181529181526020820180516001600160e01b03166001600160e01b03199094169390931790925290516127a19190613243565b6000604051808303816000865af19150503d80600081146127de576040519150601f19603f3d011682016040523d82523d6000602084013e6127e3565b606091505b509150915081801561280d57508051158061280d57508080602001905181019061280d9190612dec565b6128505760405162461bcd60e51b815260206004820152600f60248201526e1514905394d1915497d19052531151608a1b60448201526064015b60405180910390fd5b5050505050565b600080612862612c3c565b929092013560c01c92915050565b604080516001600160a01b0385811660248301528481166044830152606480830185905283518084039091018152608490920183526020820180516001600160e01b03166323b872dd60e01b17905291516000928392908816916128d49190613243565b6000604051808303816000865af19150503d8060008114612911576040519150601f19603f3d011682016040523d82523d6000602084013e612916565b606091505b50915091508180156129405750805115806129405750808060200190518101906129409190612dec565b6129835760405162461bcd60e51b81526020600482015260146024820152731514905394d1915497d19493d357d1905253115160621b6044820152606401612847565b505050505050565b600061299561028f565b905060006129a1610f1d565b905060006129ad611a65565b60408051600280825260608201835292935060009290916020830190803683370190505090508381600160ff16815181106129ea576129ea61308e565b60200260200101906001600160a01b031690816001600160a01b0316815250508281600060ff1681518110612a2157612a2161308e565b6001600160a01b039290921660209283029190910182015260408051600280825260608201835260009391929091830190803683370190505090508781600160ff1681518110612a7357612a7361308e565b6020026020010181815250508681600060ff1681518110612a9657612a9661308e565b602002602001018181525050600060405180608001604052808481526020018381526020016001848a604051602001612ad19392919061325f565b6040516020818303038152906040528152602001600015158152509050856001600160a01b03166339509351858b6040518363ffffffff1660e01b8152600401612b1c929190612e56565b6020604051808303816000875af1158015612b3b573d6000803e3d6000fd5b505050506040513d601f19601f82011682018060405250810190612b5f9190612dec565b5060405163095ea7b360e01b81526001600160a01b0386169063095ea7b390612b8e9087908c90600401612e56565b6020604051808303816000875af1158015612bad573d6000803e3d6000fd5b505050506040513d601f19601f82011682018060405250810190612bd19190612dec565b50836001600160a01b031663b95cac28612be961043f565b6001600160a01b03166338fff2d06040518163ffffffff1660e01b8152600401602060405180830381865afa1580156126b8573d6000803e3d6000fd5b600080612c31612c3c565b929092013592915050565b600119368181013560f01c90030190565b6001600160a01b0391909116815260200190565b60008083601f840112612c7357600080fd5b5081356001600160401b03811115612c8a57600080fd5b6020830191508360208260051b8501011115612ca557600080fd5b9250929050565b600080600060408486031215612cc157600080fd5b8335925060208401356001600160401b03811115612cde57600080fd5b612cea86828701612c61565b9497909650939450505050565b8015158114612d0557600080fd5b50565b600080600080600060808688031215612d2057600080fd5b8535945060208601356001600160401b03811115612d3d57600080fd5b612d4988828901612c61565b909550935050604086013591506060860135612d6481612cf7565b809150509295509295909350565b60008060408385031215612d8557600080fd5b50508035926020909101359150565b602080825282518282018190526000919060409081850190868401855b82811015612ddf57815180516001600160a01b03168552860151868501529284019290850190600101612db1565b5091979650505050505050565b600060208284031215612dfe57600080fd5b8151612e0981612cf7565b9392505050565b600060208284031215612e2257600080fd5b5051919050565b634e487b7160e01b600052601160045260246000fd5b600082821015612e5157612e51612e29565b500390565b6001600160a01b03929092168252602082015260400190565b600060208284031215612e8157600080fd5b815165ffffffffffff81168114612e0957600080fd5b6000816000190483118215151615612eb157612eb1612e29565b500290565b600082612ed357634e487b7160e01b600052601260045260246000fd5b500490565b634e487b7160e01b600052604160045260246000fd5b604051601f8201601f191681016001600160401b0381118282101715612f1657612f16612ed8565b604052919050565b60006001600160401b03821115612f3757612f37612ed8565b5060051b60200190565b6001600160a01b0381168114612d0557600080fd5b600082601f830112612f6757600080fd5b81516020612f7c612f7783612f1e565b612eee565b82815260059290921b84018101918181019086841115612f9b57600080fd5b8286015b84811015612fb65780518352918301918301612f9f565b509695505050505050565b600080600060608486031215612fd657600080fd5b83516001600160401b0380821115612fed57600080fd5b818601915086601f83011261300157600080fd5b81516020613011612f7783612f1e565b82815260059290921b8401810191818101908a84111561303057600080fd5b948201945b8386101561305757855161304881612f41565b82529482019490820190613035565b9189015191975090935050508082111561307057600080fd5b5061307d86828701612f56565b925050604084015190509250925092565b634e487b7160e01b600052603260045260246000fd5b600082198211156130b7576130b7612e29565b500190565b6000602082840312156130ce57600080fd5b8151612e0981612f41565b600081518084526020808501945080840160005b83811015613109578151875295820195908201906001016130ed565b509495945050505050565b60005b8381101561312f578181015183820152602001613117565b8381111561313e576000848401525b50505050565b6000815180845261315c816020860160208601613114565b601f01601f19169290920160200192915050565b8051608080845281519084018190526000916020919082019060a0860190845b818110156131b55783516001600160a01b031683529284019291840191600101613190565b5050828501519150858103838701526131ce81836130d9565b92505050604083015184820360408601526131e98282613144565b91505060608301516131ff606086018215159052565b509392505050565b8481526001600160a01b0384811660208301528316604082015260806060820181905260009061323990830184613170565b9695505050505050565b60008251613255818460208701613114565b9190910192915050565b60ff8416815260606020820152600061327b60608301856130d9565b905082604083015294935050505056fefc30cddea38e2bf4d6ea7d3f9ed3b6ad7f176419f4963bd81318067a4aee73fea26469706673582212209e5b99ef27fd152e5ba403056d05982af99047b1bbd8f9e4de514f50830d7b5d64736f6c634300080f0033",
    "linkReferences": {}
  },
  "methodIdentifiers": {
    "MINTR()": "577de7d0",
    "TRSRY()": "80cee4ab",
    "aura()": "e13b7f5c",
    "auraBooster()": "81bf829d",
    "auraRewardPool()": "00c36211",
    "bal()": "3d79d1c8",
    "canWithdraw()": "b51459fe",
    "claimRewards()": "372500ab",
    "deposit(uint256,uint256)": "e2bbb158",
    "emergencyWithdraw(uint256,uint256[])": "71f39ca1",
    "fee()": "ddca3f43",
    "getLpBalance()": "8421403d",
    "getOutstandingRewards()": "fef97e4c",
    "getUserPairShare()": "bbbbcb28",
    "initializeClone()": "495ae951",
    "lastDeposit()": "36b77107",
    "liquidityPool()": "665a11ca",
    "lusd()": "99ad68a7",
    "manager()": "481c6a75",
    "ohm()": "02b1d239",
    "owner()": "8da5cb5b",
    "pid()": "f1068454",
    "vault()": "fbfa77cf",
    "withdraw(uint256,uint256[],uint256,bool)": "94fad9bb"
  },
  "id": 60
}