{
  "contractName": "ExpiringMultiParty",
  "abi": [
    {
      "inputs": [
        {
          "components": [
            {
              "internalType": "uint256",
              "name": "expirationTimestamp",
              "type": "uint256"
            },
            {
              "internalType": "uint256",
              "name": "deploymentTimestamp",
              "type": "uint256"
            },
            {
              "internalType": "uint256",
              "name": "withdrawalLiveness",
              "type": "uint256"
            },
            {
              "internalType": "address",
              "name": "collateralAddress",
              "type": "address"
            },
            {
              "internalType": "address",
              "name": "finderAddress",
              "type": "address"
            },
            {
              "internalType": "address",
              "name": "tokenFactoryAddress",
              "type": "address"
            },
            {
              "internalType": "address",
              "name": "timerAddress",
              "type": "address"
            },
            {
              "internalType": "bytes32",
              "name": "priceFeedIdentifier",
              "type": "bytes32"
            },
            {
              "internalType": "string",
              "name": "syntheticName",
              "type": "string"
            },
            {
              "internalType": "string",
              "name": "syntheticSymbol",
              "type": "string"
            },
            {
              "components": [
                {
                  "internalType": "uint256",
                  "name": "rawValue",
                  "type": "uint256"
                }
              ],
              "internalType": "struct FixedPoint.Unsigned",
              "name": "strikePrice",
              "type": "tuple"
            },
            {
              "internalType": "uint256",
              "name": "liquidationLiveness",
              "type": "uint256"
            },
            {
              "components": [
                {
                  "internalType": "uint256",
                  "name": "rawValue",
                  "type": "uint256"
                }
              ],
              "internalType": "struct FixedPoint.Unsigned",
              "name": "collateralRequirement",
              "type": "tuple"
            },
            {
              "components": [
                {
                  "internalType": "uint256",
                  "name": "rawValue",
                  "type": "uint256"
                }
              ],
              "internalType": "struct FixedPoint.Unsigned",
              "name": "disputeBondPct",
              "type": "tuple"
            },
            {
              "components": [
                {
                  "internalType": "uint256",
                  "name": "rawValue",
                  "type": "uint256"
                }
              ],
              "internalType": "struct FixedPoint.Unsigned",
              "name": "sponsorDisputeRewardPct",
              "type": "tuple"
            },
            {
              "components": [
                {
                  "internalType": "uint256",
                  "name": "rawValue",
                  "type": "uint256"
                }
              ],
              "internalType": "struct FixedPoint.Unsigned",
              "name": "disputerDisputeRewardPct",
              "type": "tuple"
            }
          ],
          "internalType": "struct Liquidatable.ConstructorParams",
          "name": "params",
          "type": "tuple"
        }
      ],
      "stateMutability": "nonpayable",
      "type": "constructor"
    },
    {
      "anonymous": false,
      "inputs": [
        {
          "indexed": true,
          "internalType": "address",
          "name": "caller",
          "type": "address"
        }
      ],
      "name": "ContractExpired",
      "type": "event"
    },
    {
      "anonymous": false,
      "inputs": [
        {
          "indexed": true,
          "internalType": "address",
          "name": "sponsor",
          "type": "address"
        },
        {
          "indexed": true,
          "internalType": "uint256",
          "name": "collateralAmount",
          "type": "uint256"
        }
      ],
      "name": "Deposit",
      "type": "event"
    },
    {
      "anonymous": false,
      "inputs": [
        {
          "indexed": true,
          "internalType": "address",
          "name": "caller",
          "type": "address"
        },
        {
          "indexed": true,
          "internalType": "address",
          "name": "sponsor",
          "type": "address"
        },
        {
          "indexed": true,
          "internalType": "address",
          "name": "liquidator",
          "type": "address"
        },
        {
          "indexed": false,
          "internalType": "address",
          "name": "disputer",
          "type": "address"
        },
        {
          "indexed": false,
          "internalType": "uint256",
          "name": "liquidationId",
          "type": "uint256"
        },
        {
          "indexed": false,
          "internalType": "bool",
          "name": "disputeSucceeded",
          "type": "bool"
        }
      ],
      "name": "DisputeSettled",
      "type": "event"
    },
    {
      "anonymous": false,
      "inputs": [
        {
          "indexed": true,
          "internalType": "address",
          "name": "caller",
          "type": "address"
        },
        {
          "indexed": false,
          "internalType": "uint256",
          "name": "originalExpirationTimestamp",
          "type": "uint256"
        },
        {
          "indexed": false,
          "internalType": "uint256",
          "name": "shutdownTimestamp",
          "type": "uint256"
        }
      ],
      "name": "EmergencyShutdown",
      "type": "event"
    },
    {
      "anonymous": false,
      "inputs": [
        {
          "indexed": true,
          "internalType": "address",
          "name": "sponsor",
          "type": "address"
        }
      ],
      "name": "EndedSponsorPosition",
      "type": "event"
    },
    {
      "anonymous": false,
      "inputs": [
        {
          "indexed": true,
          "internalType": "uint256",
          "name": "amount",
          "type": "uint256"
        }
      ],
      "name": "FinalFeesPaid",
      "type": "event"
    },
    {
      "anonymous": false,
      "inputs": [
        {
          "indexed": true,
          "internalType": "address",
          "name": "sponsor",
          "type": "address"
        },
        {
          "indexed": true,
          "internalType": "address",
          "name": "liquidator",
          "type": "address"
        },
        {
          "indexed": true,
          "internalType": "uint256",
          "name": "liquidationId",
          "type": "uint256"
        },
        {
          "indexed": false,
          "internalType": "uint256",
          "name": "tokensOutstanding",
          "type": "uint256"
        },
        {
          "indexed": false,
          "internalType": "uint256",
          "name": "lockedCollateral",
          "type": "uint256"
        }
      ],
      "name": "LiquidationCreated",
      "type": "event"
    },
    {
      "anonymous": false,
      "inputs": [
        {
          "indexed": true,
          "internalType": "address",
          "name": "sponsor",
          "type": "address"
        },
        {
          "indexed": true,
          "internalType": "address",
          "name": "liquidator",
          "type": "address"
        },
        {
          "indexed": true,
          "internalType": "address",
          "name": "disputer",
          "type": "address"
        },
        {
          "indexed": false,
          "internalType": "uint256",
          "name": "liquidationId",
          "type": "uint256"
        },
        {
          "indexed": false,
          "internalType": "uint256",
          "name": "disputeBondAmount",
          "type": "uint256"
        }
      ],
      "name": "LiquidationDisputed",
      "type": "event"
    },
    {
      "anonymous": false,
      "inputs": [
        {
          "indexed": true,
          "internalType": "address",
          "name": "caller",
          "type": "address"
        },
        {
          "indexed": false,
          "internalType": "uint256",
          "name": "withdrawalAmount",
          "type": "uint256"
        },
        {
          "indexed": true,
          "internalType": "enum Liquidatable.Status",
          "name": "liquidationStatus",
          "type": "uint8"
        }
      ],
      "name": "LiquidationWithdrawn",
      "type": "event"
    },
    {
      "anonymous": false,
      "inputs": [
        {
          "indexed": true,
          "internalType": "address",
          "name": "sponsor",
          "type": "address"
        }
      ],
      "name": "NewSponsor",
      "type": "event"
    },
    {
      "anonymous": false,
      "inputs": [
        {
          "indexed": true,
          "internalType": "address",
          "name": "sponsor",
          "type": "address"
        },
        {
          "indexed": true,
          "internalType": "uint256",
          "name": "collateralAmount",
          "type": "uint256"
        },
        {
          "indexed": true,
          "internalType": "uint256",
          "name": "tokenAmount",
          "type": "uint256"
        }
      ],
      "name": "PositionCreated",
      "type": "event"
    },
    {
      "anonymous": false,
      "inputs": [
        {
          "indexed": true,
          "internalType": "address",
          "name": "sponsor",
          "type": "address"
        },
        {
          "indexed": true,
          "internalType": "uint256",
          "name": "collateralAmount",
          "type": "uint256"
        },
        {
          "indexed": true,
          "internalType": "uint256",
          "name": "tokenAmount",
          "type": "uint256"
        }
      ],
      "name": "Redeem",
      "type": "event"
    },
    {
      "anonymous": false,
      "inputs": [
        {
          "indexed": true,
          "internalType": "uint256",
          "name": "regularFee",
          "type": "uint256"
        },
        {
          "indexed": true,
          "internalType": "uint256",
          "name": "lateFee",
          "type": "uint256"
        }
      ],
      "name": "RegularFeesPaid",
      "type": "event"
    },
    {
      "anonymous": false,
      "inputs": [
        {
          "indexed": true,
          "internalType": "address",
          "name": "oldSponsor",
          "type": "address"
        }
      ],
      "name": "RequestTransferPosition",
      "type": "event"
    },
    {
      "anonymous": false,
      "inputs": [
        {
          "indexed": true,
          "internalType": "address",
          "name": "oldSponsor",
          "type": "address"
        }
      ],
      "name": "RequestTransferPositionCanceled",
      "type": "event"
    },
    {
      "anonymous": false,
      "inputs": [
        {
          "indexed": true,
          "internalType": "address",
          "name": "oldSponsor",
          "type": "address"
        },
        {
          "indexed": true,
          "internalType": "address",
          "name": "newSponsor",
          "type": "address"
        }
      ],
      "name": "RequestTransferPositionExecuted",
      "type": "event"
    },
    {
      "anonymous": false,
      "inputs": [
        {
          "indexed": true,
          "internalType": "address",
          "name": "sponsor",
          "type": "address"
        },
        {
          "indexed": true,
          "internalType": "uint256",
          "name": "collateralAmount",
          "type": "uint256"
        }
      ],
      "name": "RequestWithdrawal",
      "type": "event"
    },
    {
      "anonymous": false,
      "inputs": [
        {
          "indexed": true,
          "internalType": "address",
          "name": "sponsor",
          "type": "address"
        },
        {
          "indexed": true,
          "internalType": "uint256",
          "name": "collateralAmount",
          "type": "uint256"
        }
      ],
      "name": "RequestWithdrawalCanceled",
      "type": "event"
    },
    {
      "anonymous": false,
      "inputs": [
        {
          "indexed": true,
          "internalType": "address",
          "name": "sponsor",
          "type": "address"
        },
        {
          "indexed": true,
          "internalType": "uint256",
          "name": "collateralAmount",
          "type": "uint256"
        }
      ],
      "name": "RequestWithdrawalExecuted",
      "type": "event"
    },
    {
      "anonymous": false,
      "inputs": [
        {
          "indexed": true,
          "internalType": "address",
          "name": "caller",
          "type": "address"
        },
        {
          "indexed": true,
          "internalType": "uint256",
          "name": "collateralReturned",
          "type": "uint256"
        },
        {
          "indexed": true,
          "internalType": "uint256",
          "name": "tokensBurned",
          "type": "uint256"
        }
      ],
      "name": "SettleExpiredPosition",
      "type": "event"
    },
    {
      "anonymous": false,
      "inputs": [
        {
          "indexed": true,
          "internalType": "address",
          "name": "sponsor",
          "type": "address"
        },
        {
          "indexed": true,
          "internalType": "uint256",
          "name": "collateralAmount",
          "type": "uint256"
        }
      ],
      "name": "Withdrawal",
      "type": "event"
    },
    {
      "inputs": [],
      "name": "cancelTransferPosition",
      "outputs": [],
      "stateMutability": "nonpayable",
      "type": "function"
    },
    {
      "inputs": [],
      "name": "cancelWithdrawal",
      "outputs": [],
      "stateMutability": "nonpayable",
      "type": "function"
    },
    {
      "inputs": [],
      "name": "collateralCurrency",
      "outputs": [
        {
          "internalType": "contract IERC20",
          "name": "",
          "type": "address"
        }
      ],
      "stateMutability": "view",
      "type": "function"
    },
    {
      "inputs": [],
      "name": "collateralRequirement",
      "outputs": [
        {
          "internalType": "uint256",
          "name": "rawValue",
          "type": "uint256"
        }
      ],
      "stateMutability": "view",
      "type": "function"
    },
    {
      "inputs": [],
      "name": "contractState",
      "outputs": [
        {
          "internalType": "enum PricelessPositionManager.ContractState",
          "name": "",
          "type": "uint8"
        }
      ],
      "stateMutability": "view",
      "type": "function"
    },
    {
      "inputs": [
        {
          "internalType": "address",
          "name": "poolAddress",
          "type": "address"
        },
        {
          "internalType": "address",
          "name": "buyerAddress",
          "type": "address"
        },
        {
          "internalType": "address",
          "name": "empCreator",
          "type": "address"
        },
        {
          "components": [
            {
              "internalType": "uint256",
              "name": "rawValue",
              "type": "uint256"
            }
          ],
          "internalType": "struct FixedPoint.Unsigned",
          "name": "numTokens",
          "type": "tuple"
        },
        {
          "components": [
            {
              "internalType": "uint256",
              "name": "rawValue",
              "type": "uint256"
            }
          ],
          "internalType": "struct FixedPoint.Unsigned",
          "name": "premiumDeposit",
          "type": "tuple"
        },
        {
          "components": [
            {
              "internalType": "uint256",
              "name": "rawValue",
              "type": "uint256"
            }
          ],
          "internalType": "struct FixedPoint.Unsigned",
          "name": "collateralAmount",
          "type": "tuple"
        }
      ],
      "name": "create",
      "outputs": [],
      "stateMutability": "nonpayable",
      "type": "function"
    },
    {
      "inputs": [
        {
          "internalType": "address",
          "name": "sponsor",
          "type": "address"
        },
        {
          "internalType": "address",
          "name": "liquidator",
          "type": "address"
        },
        {
          "internalType": "address",
          "name": "empCreator",
          "type": "address"
        },
        {
          "components": [
            {
              "internalType": "uint256",
              "name": "rawValue",
              "type": "uint256"
            }
          ],
          "internalType": "struct FixedPoint.Unsigned",
          "name": "maxTokensToLiquidate",
          "type": "tuple"
        },
        {
          "components": [
            {
              "internalType": "uint256",
              "name": "rawValue",
              "type": "uint256"
            }
          ],
          "internalType": "struct FixedPoint.Unsigned",
          "name": "assetPrice",
          "type": "tuple"
        },
        {
          "components": [
            {
              "internalType": "uint256",
              "name": "rawValue",
              "type": "uint256"
            }
          ],
          "internalType": "struct FixedPoint.Unsigned",
          "name": "finalFeeBond",
          "type": "tuple"
        },
        {
          "components": [
            {
              "internalType": "uint256",
              "name": "rawValue",
              "type": "uint256"
            }
          ],
          "internalType": "struct FixedPoint.Unsigned",
          "name": "excessDeposit",
          "type": "tuple"
        }
      ],
      "name": "createLiquidation",
      "outputs": [
        {
          "internalType": "uint256",
          "name": "liquidationId",
          "type": "uint256"
        }
      ],
      "stateMutability": "nonpayable",
      "type": "function"
    },
    {
      "inputs": [],
      "name": "cumulativeFeeMultiplier",
      "outputs": [
        {
          "internalType": "uint256",
          "name": "rawValue",
          "type": "uint256"
        }
      ],
      "stateMutability": "view",
      "type": "function"
    },
    {
      "inputs": [],
      "name": "deploymentTimestamp",
      "outputs": [
        {
          "internalType": "uint256",
          "name": "",
          "type": "uint256"
        }
      ],
      "stateMutability": "view",
      "type": "function"
    },
    {
      "inputs": [
        {
          "components": [
            {
              "internalType": "uint256",
              "name": "rawValue",
              "type": "uint256"
            }
          ],
          "internalType": "struct FixedPoint.Unsigned",
          "name": "collateralAmount",
          "type": "tuple"
        }
      ],
      "name": "deposit",
      "outputs": [],
      "stateMutability": "nonpayable",
      "type": "function"
    },
    {
      "inputs": [
        {
          "internalType": "address",
          "name": "sponsor",
          "type": "address"
        },
        {
          "components": [
            {
              "internalType": "uint256",
              "name": "rawValue",
              "type": "uint256"
            }
          ],
          "internalType": "struct FixedPoint.Unsigned",
          "name": "collateralAmount",
          "type": "tuple"
        }
      ],
      "name": "depositTo",
      "outputs": [],
      "stateMutability": "nonpayable",
      "type": "function"
    },
    {
      "inputs": [
        {
          "internalType": "uint256",
          "name": "liquidationId",
          "type": "uint256"
        },
        {
          "internalType": "address",
          "name": "sponsor",
          "type": "address"
        }
      ],
      "name": "dispute",
      "outputs": [
        {
          "components": [
            {
              "internalType": "uint256",
              "name": "rawValue",
              "type": "uint256"
            }
          ],
          "internalType": "struct FixedPoint.Unsigned",
          "name": "totalPaid",
          "type": "tuple"
        }
      ],
      "stateMutability": "nonpayable",
      "type": "function"
    },
    {
      "inputs": [],
      "name": "disputeBondPct",
      "outputs": [
        {
          "internalType": "uint256",
          "name": "rawValue",
          "type": "uint256"
        }
      ],
      "stateMutability": "view",
      "type": "function"
    },
    {
      "inputs": [],
      "name": "disputerDisputeRewardPct",
      "outputs": [
        {
          "internalType": "uint256",
          "name": "rawValue",
          "type": "uint256"
        }
      ],
      "stateMutability": "view",
      "type": "function"
    },
    {
      "inputs": [],
      "name": "emergencyShutdown",
      "outputs": [],
      "stateMutability": "nonpayable",
      "type": "function"
    },
    {
      "inputs": [],
      "name": "expirationTimestamp",
      "outputs": [
        {
          "internalType": "uint256",
          "name": "",
          "type": "uint256"
        }
      ],
      "stateMutability": "view",
      "type": "function"
    },
    {
      "inputs": [],
      "name": "expire",
      "outputs": [],
      "stateMutability": "nonpayable",
      "type": "function"
    },
    {
      "inputs": [],
      "name": "expiryPrice",
      "outputs": [
        {
          "internalType": "uint256",
          "name": "rawValue",
          "type": "uint256"
        }
      ],
      "stateMutability": "view",
      "type": "function"
    },
    {
      "inputs": [],
      "name": "finder",
      "outputs": [
        {
          "internalType": "contract FinderInterface",
          "name": "",
          "type": "address"
        }
      ],
      "stateMutability": "view",
      "type": "function"
    },
    {
      "inputs": [
        {
          "internalType": "address",
          "name": "sponsor",
          "type": "address"
        }
      ],
      "name": "getCollateral",
      "outputs": [
        {
          "components": [
            {
              "internalType": "uint256",
              "name": "rawValue",
              "type": "uint256"
            }
          ],
          "internalType": "struct FixedPoint.Unsigned",
          "name": "collateralAmount",
          "type": "tuple"
        }
      ],
      "stateMutability": "view",
      "type": "function"
    },
    {
      "inputs": [],
      "name": "getCurrentTime",
      "outputs": [
        {
          "internalType": "uint256",
          "name": "",
          "type": "uint256"
        }
      ],
      "stateMutability": "view",
      "type": "function"
    },
    {
      "inputs": [],
      "name": "getDeploymentTimestamp",
      "outputs": [
        {
          "internalType": "uint256",
          "name": "deployTime",
          "type": "uint256"
        }
      ],
      "stateMutability": "view",
      "type": "function"
    },
    {
      "inputs": [
        {
          "internalType": "address",
          "name": "sponsor",
          "type": "address"
        }
      ],
      "name": "getLiquidations",
      "outputs": [
        {
          "components": [
            {
              "internalType": "address",
              "name": "sponsor",
              "type": "address"
            },
            {
              "internalType": "address",
              "name": "liquidator",
              "type": "address"
            },
            {
              "internalType": "enum Liquidatable.Status",
              "name": "state",
              "type": "uint8"
            },
            {
              "internalType": "uint256",
              "name": "liquidationTime",
              "type": "uint256"
            },
            {
              "components": [
                {
                  "internalType": "uint256",
                  "name": "rawValue",
                  "type": "uint256"
                }
              ],
              "internalType": "struct FixedPoint.Unsigned",
              "name": "tokensOutstanding",
              "type": "tuple"
            },
            {
              "components": [
                {
                  "internalType": "uint256",
                  "name": "rawValue",
                  "type": "uint256"
                }
              ],
              "internalType": "struct FixedPoint.Unsigned",
              "name": "lockedCollateral",
              "type": "tuple"
            },
            {
              "components": [
                {
                  "internalType": "uint256",
                  "name": "rawValue",
                  "type": "uint256"
                }
              ],
              "internalType": "struct FixedPoint.Unsigned",
              "name": "rawUnitCollateral",
              "type": "tuple"
            },
            {
              "internalType": "address",
              "name": "disputer",
              "type": "address"
            },
            {
              "components": [
                {
                  "internalType": "uint256",
                  "name": "rawValue",
                  "type": "uint256"
                }
              ],
              "internalType": "struct FixedPoint.Unsigned",
              "name": "settlementPrice",
              "type": "tuple"
            },
            {
              "components": [
                {
                  "internalType": "uint256",
                  "name": "rawValue",
                  "type": "uint256"
                }
              ],
              "internalType": "struct FixedPoint.Unsigned",
              "name": "finalFee",
              "type": "tuple"
            }
          ],
          "internalType": "struct Liquidatable.LiquidationData[]",
          "name": "liquidationData",
          "type": "tuple[]"
        }
      ],
      "stateMutability": "view",
      "type": "function"
    },
    {
      "inputs": [],
      "name": "liquidationLiveness",
      "outputs": [
        {
          "internalType": "uint256",
          "name": "",
          "type": "uint256"
        }
      ],
      "stateMutability": "view",
      "type": "function"
    },
    {
      "inputs": [
        {
          "internalType": "address",
          "name": "",
          "type": "address"
        },
        {
          "internalType": "uint256",
          "name": "",
          "type": "uint256"
        }
      ],
      "name": "liquidations",
      "outputs": [
        {
          "internalType": "address",
          "name": "sponsor",
          "type": "address"
        },
        {
          "internalType": "address",
          "name": "liquidator",
          "type": "address"
        },
        {
          "internalType": "enum Liquidatable.Status",
          "name": "state",
          "type": "uint8"
        },
        {
          "internalType": "uint256",
          "name": "liquidationTime",
          "type": "uint256"
        },
        {
          "components": [
            {
              "internalType": "uint256",
              "name": "rawValue",
              "type": "uint256"
            }
          ],
          "internalType": "struct FixedPoint.Unsigned",
          "name": "tokensOutstanding",
          "type": "tuple"
        },
        {
          "components": [
            {
              "internalType": "uint256",
              "name": "rawValue",
              "type": "uint256"
            }
          ],
          "internalType": "struct FixedPoint.Unsigned",
          "name": "lockedCollateral",
          "type": "tuple"
        },
        {
          "components": [
            {
              "internalType": "uint256",
              "name": "rawValue",
              "type": "uint256"
            }
          ],
          "internalType": "struct FixedPoint.Unsigned",
          "name": "rawUnitCollateral",
          "type": "tuple"
        },
        {
          "internalType": "address",
          "name": "disputer",
          "type": "address"
        },
        {
          "components": [
            {
              "internalType": "uint256",
              "name": "rawValue",
              "type": "uint256"
            }
          ],
          "internalType": "struct FixedPoint.Unsigned",
          "name": "settlementPrice",
          "type": "tuple"
        },
        {
          "components": [
            {
              "internalType": "uint256",
              "name": "rawValue",
              "type": "uint256"
            }
          ],
          "internalType": "struct FixedPoint.Unsigned",
          "name": "finalFee",
          "type": "tuple"
        }
      ],
      "stateMutability": "view",
      "type": "function"
    },
    {
      "inputs": [],
      "name": "payRegularFees",
      "outputs": [
        {
          "components": [
            {
              "internalType": "uint256",
              "name": "rawValue",
              "type": "uint256"
            }
          ],
          "internalType": "struct FixedPoint.Unsigned",
          "name": "totalPaid",
          "type": "tuple"
        }
      ],
      "stateMutability": "nonpayable",
      "type": "function"
    },
    {
      "inputs": [],
      "name": "pfc",
      "outputs": [
        {
          "components": [
            {
              "internalType": "uint256",
              "name": "rawValue",
              "type": "uint256"
            }
          ],
          "internalType": "struct FixedPoint.Unsigned",
          "name": "",
          "type": "tuple"
        }
      ],
      "stateMutability": "view",
      "type": "function"
    },
    {
      "inputs": [
        {
          "internalType": "address",
          "name": "",
          "type": "address"
        }
      ],
      "name": "positions",
      "outputs": [
        {
          "components": [
            {
              "internalType": "uint256",
              "name": "rawValue",
              "type": "uint256"
            }
          ],
          "internalType": "struct FixedPoint.Unsigned",
          "name": "tokensOutstanding",
          "type": "tuple"
        },
        {
          "internalType": "uint256",
          "name": "withdrawalRequestPassTimestamp",
          "type": "uint256"
        },
        {
          "components": [
            {
              "internalType": "uint256",
              "name": "rawValue",
              "type": "uint256"
            }
          ],
          "internalType": "struct FixedPoint.Unsigned",
          "name": "withdrawalRequestAmount",
          "type": "tuple"
        },
        {
          "components": [
            {
              "internalType": "uint256",
              "name": "rawValue",
              "type": "uint256"
            }
          ],
          "internalType": "struct FixedPoint.Unsigned",
          "name": "rawCollateral",
          "type": "tuple"
        },
        {
          "internalType": "uint256",
          "name": "transferPositionRequestPassTimestamp",
          "type": "uint256"
        }
      ],
      "stateMutability": "view",
      "type": "function"
    },
    {
      "inputs": [],
      "name": "priceIdentifier",
      "outputs": [
        {
          "internalType": "bytes32",
          "name": "",
          "type": "bytes32"
        }
      ],
      "stateMutability": "view",
      "type": "function"
    },
    {
      "inputs": [],
      "name": "rawLiquidationCollateral",
      "outputs": [
        {
          "internalType": "uint256",
          "name": "rawValue",
          "type": "uint256"
        }
      ],
      "stateMutability": "view",
      "type": "function"
    },
    {
      "inputs": [],
      "name": "rawTotalPositionCollateral",
      "outputs": [
        {
          "internalType": "uint256",
          "name": "rawValue",
          "type": "uint256"
        }
      ],
      "stateMutability": "view",
      "type": "function"
    },
    {
      "inputs": [
        {
          "components": [
            {
              "internalType": "uint256",
              "name": "rawValue",
              "type": "uint256"
            }
          ],
          "internalType": "struct FixedPoint.Unsigned",
          "name": "numTokens",
          "type": "tuple"
        }
      ],
      "name": "redeem",
      "outputs": [
        {
          "components": [
            {
              "internalType": "uint256",
              "name": "rawValue",
              "type": "uint256"
            }
          ],
          "internalType": "struct FixedPoint.Unsigned",
          "name": "amountWithdrawn",
          "type": "tuple"
        }
      ],
      "stateMutability": "nonpayable",
      "type": "function"
    },
    {
      "inputs": [],
      "name": "remargin",
      "outputs": [],
      "stateMutability": "nonpayable",
      "type": "function"
    },
    {
      "inputs": [],
      "name": "requestTransferPosition",
      "outputs": [],
      "stateMutability": "nonpayable",
      "type": "function"
    },
    {
      "inputs": [
        {
          "components": [
            {
              "internalType": "uint256",
              "name": "rawValue",
              "type": "uint256"
            }
          ],
          "internalType": "struct FixedPoint.Unsigned",
          "name": "collateralAmount",
          "type": "tuple"
        }
      ],
      "name": "requestWithdrawal",
      "outputs": [],
      "stateMutability": "nonpayable",
      "type": "function"
    },
    {
      "inputs": [
        {
          "internalType": "uint256",
          "name": "time",
          "type": "uint256"
        }
      ],
      "name": "setCurrentTime",
      "outputs": [],
      "stateMutability": "nonpayable",
      "type": "function"
    },
    {
      "inputs": [],
      "name": "settleExpired",
      "outputs": [
        {
          "components": [
            {
              "internalType": "uint256",
              "name": "rawValue",
              "type": "uint256"
            }
          ],
          "internalType": "struct FixedPoint.Unsigned",
          "name": "amountWithdrawn",
          "type": "tuple"
        }
      ],
      "stateMutability": "nonpayable",
      "type": "function"
    },
    {
      "inputs": [],
      "name": "sponsorDisputeRewardPct",
      "outputs": [
        {
          "internalType": "uint256",
          "name": "rawValue",
          "type": "uint256"
        }
      ],
      "stateMutability": "view",
      "type": "function"
    },
    {
      "inputs": [],
      "name": "strikePrice",
      "outputs": [
        {
          "internalType": "uint256",
          "name": "rawValue",
          "type": "uint256"
        }
      ],
      "stateMutability": "view",
      "type": "function"
    },
    {
      "inputs": [],
      "name": "timerAddress",
      "outputs": [
        {
          "internalType": "address",
          "name": "",
          "type": "address"
        }
      ],
      "stateMutability": "view",
      "type": "function"
    },
    {
      "inputs": [],
      "name": "tokenCurrency",
      "outputs": [
        {
          "internalType": "contract ExpandedIERC20",
          "name": "",
          "type": "address"
        }
      ],
      "stateMutability": "view",
      "type": "function"
    },
    {
      "inputs": [],
      "name": "totalPositionCollateral",
      "outputs": [
        {
          "components": [
            {
              "internalType": "uint256",
              "name": "rawValue",
              "type": "uint256"
            }
          ],
          "internalType": "struct FixedPoint.Unsigned",
          "name": "totalCollateral",
          "type": "tuple"
        }
      ],
      "stateMutability": "view",
      "type": "function"
    },
    {
      "inputs": [],
      "name": "totalTokensOutstanding",
      "outputs": [
        {
          "internalType": "uint256",
          "name": "rawValue",
          "type": "uint256"
        }
      ],
      "stateMutability": "view",
      "type": "function"
    },
    {
      "inputs": [
        {
          "internalType": "address",
          "name": "newSponsorAddress",
          "type": "address"
        }
      ],
      "name": "transferPositionPassedRequest",
      "outputs": [],
      "stateMutability": "nonpayable",
      "type": "function"
    },
    {
      "inputs": [
        {
          "components": [
            {
              "internalType": "uint256",
              "name": "rawValue",
              "type": "uint256"
            }
          ],
          "internalType": "struct FixedPoint.Unsigned",
          "name": "collateralAmount",
          "type": "tuple"
        }
      ],
      "name": "withdraw",
      "outputs": [
        {
          "components": [
            {
              "internalType": "uint256",
              "name": "rawValue",
              "type": "uint256"
            }
          ],
          "internalType": "struct FixedPoint.Unsigned",
          "name": "amountWithdrawn",
          "type": "tuple"
        }
      ],
      "stateMutability": "nonpayable",
      "type": "function"
    },
    {
      "inputs": [
        {
          "internalType": "uint256",
          "name": "liquidationId",
          "type": "uint256"
        },
        {
          "internalType": "address",
          "name": "sponsor",
          "type": "address"
        },
        {
          "internalType": "address",
          "name": "caller",
          "type": "address"
        }
      ],
      "name": "withdrawLiquidation",
      "outputs": [],
      "stateMutability": "nonpayable",
      "type": "function"
    },
    {
      "inputs": [],
      "name": "withdrawPassedRequest",
      "outputs": [
        {
          "components": [
            {
              "internalType": "uint256",
              "name": "rawValue",
              "type": "uint256"
            }
          ],
          "internalType": "struct FixedPoint.Unsigned",
          "name": "amountWithdrawn",
          "type": "tuple"
        }
      ],
      "stateMutability": "nonpayable",
      "type": "function"
    },
    {
      "inputs": [],
      "name": "withdrawalLiveness",
      "outputs": [
        {
          "internalType": "uint256",
          "name": "",
          "type": "uint256"
        }
      ],
      "stateMutability": "view",
      "type": "function"
    }
  ],
  "bytecode": "0x60806040523480156200001157600080fd5b506040516200596038038062005960833981016040819052620000349162000814565b8051602082015160408301516060840151608085015160e086015161010087015161012088015160a08901516101408a015160c08b015160008054600160a01b6001600160a01b03199091166001600160a01b0384161760ff60a01b19161790558b9a99989796959493929190878782620000ae62000441565b620000c16001600160e01b036200046f16565b600180546001600160a01b038086166001600160a01b0319928316179092556002805492851692909116919091179055620001046001600160e01b036200047e16565b6003819055506200012160016200052860201b62002f631760201c565b51600455620001386001600160e01b036200056716565b506200014f9150506001600160e01b036200044116565b620001626001600160e01b036200046f16565b620001756001600160e01b036200047e16565b8b116200019f5760405162461bcd60e51b8152600401620001969062000ad3565b60405180910390fd5b620001b26001600160e01b036200057c16565b6001600160a01b03166390978d1b876040518263ffffffff1660e01b8152600401620001df9190620009f5565b60206040518083038186803b158015620001f857600080fd5b505afa1580156200020d573d6000803e3d6000fd5b505050506040513d601f19601f82011682018060405250810190620002339190620007f2565b620002525760405162461bcd60e51b8152600401620001969062000b4b565b600b8b9055600c8a9055600d89905560405163e8a0aed360e01b815283906001600160a01b0382169063e8a0aed390620002969089908990601290600401620009fe565b602060405180830381600087803b158015620002b157600080fd5b505af1158015620002c6573d6000803e3d6000fd5b505050506040513d601f19601f82011682018060405250810190620002ec9190620007d3565b600980546001600160a01b0319166001600160a01b0392909216919091179055508151600e55600a8690556200032162000567565b50505050505050505050506200033c6200044160201b60201c565b6200034f6001600160e01b036200046f16565b6200036f60018261018001516200062860201b62004cbf1790919060201c565b6200038e5760405162461bcd60e51b8152600401620001969062000a3b565b620003cc6001620003b8836101e00151846101c001516200064c60201b62002f971790919060201c565b6200068c60201b62004cd71790919060201c565b620003eb5760405162461bcd60e51b8152600401620001969062000a9c565b610160810151601255610180810151516013556101a08101515160145561014081015151600e556101c0810151516015556101e081015151601655620004396001600160e01b036200056716565b505062000c2c565b600054600160a01b900460ff166200046d5760405162461bcd60e51b8152600401620001969062000b82565b565b6000805460ff60a01b19169055565b600080546001600160a01b03161562000522576000809054906101000a90046001600160a01b03166001600160a01b03166329cb924d6040518163ffffffff1660e01b815260040160206040518083038186803b158015620004df57600080fd5b505afa158015620004f4573d6000803e3d6000fd5b505050506040513d601f19601f820116820180604052508101906200051a9190620009ae565b905062000525565b50425b90565b620005326200071d565b60405180602001604052806200055f670de0b6b3a764000085620006ae60201b62003c531790919060201c565b905292915050565b6000805460ff60a01b1916600160a01b179055565b6002546040516302abf57960e61b81526000916001600160a01b03169063aafd5e4090620005cf907f4964656e74696669657257686974656c6973740000000000000000000000000090600401620009f5565b60206040518083038186803b158015620005e857600080fd5b505afa158015620005fd573d6000803e3d6000fd5b505050506040513d601f19601f82011682018060405250810190620006239190620007d3565b905090565b60006200063e826001600160e01b036200052816565b518351101590505b92915050565b620006566200071d565b60405180602001604052806200068384600001518660000151620006f560201b620031821790919060201c565b90529392505050565b6000620006a2826001600160e01b036200052816565b51835110905092915050565b600082620006bf5750600062000646565b82820282848281620006cd57fe5b0414620006ee5760405162461bcd60e51b8152600401620001969062000b0a565b9392505050565b600082820183811015620006ee5760405162461bcd60e51b8152600401620001969062000a65565b6040518060200160405280600081525090565b8051620006468162000c13565b600082601f8301126200074e578081fd5b81516001600160401b0381111562000764578182fd5b62000779601f8201601f191660200162000bb9565b91508082528360208285010111156200079157600080fd5b620007a481602084016020860162000be0565b5092915050565b600060208284031215620007bd578081fd5b620007c9602062000bb9565b9151825250919050565b600060208284031215620007e5578081fd5b8151620006ee8162000c13565b60006020828403121562000804578081fd5b81518015158114620006ee578182fd5b60006020828403121562000826578081fd5b81516001600160401b03808211156200083d578283fd5b61020091840180860383131562000852578384fd5b6200085d8362000bb9565b81518152602082015160208201526040820151604082015262000884876060840162000730565b606082015262000898876080840162000730565b6080820152620008ac8760a0840162000730565b60a0820152620008c08760c0840162000730565b60c082015260e082015160e082015261010093508382015183811115620008e5578586fd5b620008f3888285016200073d565b8583015250610120935083820151838111156200090e578586fd5b6200091c888285016200073d565b858301525061014093506200093487858401620007ab565b848201526101609350838201518482015261018093506200095887858401620007ab565b848201526101a093506200096f87858401620007ab565b848201526101c093506200098687858401620007ab565b848201526101e093506200099d87858401620007ab565b848201528094505050505092915050565b600060208284031215620009c0578081fd5b5051919050565b60008151808452620009e181602086016020860162000be0565b601f01601f19169290920160200192915050565b90815260200190565b60006060825262000a136060830186620009c7565b828103602084015262000a278186620009c7565b91505060ff83166040830152949350505050565b60208082526010908201526f43522069732062656c6f77203130302560801b604082015260600190565b6020808252601b908201527f536166654d6174683a206164646974696f6e206f766572666c6f770000000000604082015260600190565b6020808252601a908201527f5265776172647320617265206d6f7265207468616e2031303025000000000000604082015260600190565b6020808252601c908201527f496e76616c69642065787069726174696f6e20696e2066757475726500000000604082015260600190565b60208082526021908201527f536166654d6174683a206d756c7469706c69636174696f6e206f766572666c6f6040820152607760f81b606082015260800190565b6020808252601c908201527f556e737570706f72746564207072696365206964656e74696669657200000000604082015260600190565b6020808252601f908201527f5265656e7472616e637947756172643a207265656e7472616e742063616c6c00604082015260600190565b6040518181016001600160401b038111828210171562000bd857600080fd5b604052919050565b60005b8381101562000bfd57818101518382015260200162000be3565b8381111562000c0d576000848401525b50505050565b6001600160a01b038116811462000c2957600080fd5b50565b614d248062000c3c6000396000f3fe608060405234801561001057600080fd5b50600436106102a05760003560e01c80637048594b11610167578063a765fbea116100ce578063c13f62e111610087578063c13f62e114610502578063c52987cf1461050a578063d1e92c1114610512578063dd0eef3d14610525578063edfa9a9b1461052d578063fcccedc714610535576102a0565b8063a765fbea146104bc578063b795f0d4146104cf578063b9a3c84c146104d7578063bc121630146104df578063bda02e77146104f2578063bfc12c05146104fa576102a0565b80639752366111610120578063975236611461045e5780639b56d6c9146104665780639e01c5fd146104795780639f43ddd21461048c5780639ff4dea814610494578063a1c4d1e71461049c576102a0565b80637048594b1461042157806379599f961461042957806381a10ae11461043157806385209ee0146104395780638c382eb21461044e57806396a379d814610456576102a0565b806336980f581161020b5780634f8c4847116101c45780634f8c48471461039e57806350f49846146103c757806355f57510146103cf5780635617151c146103f35780635ee0fe32146104065780635f1af1ca1461040e576102a0565b806336980f5814610363578063391fe4e21461036b5780633cb6ce83146103735780633ee7a5ce1461037b57806343e4771b1461038e57806348e30c3f14610396576102a0565b806329b9ccdb1161025d57806329b9ccdb1461031057806329cb924d146103235780632d5436cf1461032b5780632da222c91461033357806333a46ca2146103465780633403c2fc1461035b576102a0565b80630c9229ca146102a55780630de15fd9146102c357806318928a0c146102d85780631c39c38d146102ed57806322611280146102f557806322f8e566146102fd575b600080fd5b6102ad61053d565b6040516102ba9190614524565b60405180910390f35b6102cb610543565b6040516102ba9190614316565b6102eb6102e6366004614159565b610552565b005b6102cb610633565b6102eb610642565b6102eb61030b366004614252565b6106d0565b6102eb61031e366004614299565b61074a565b6102ad610e73565b6102ad610f17565b6102eb6103413660046140dd565b610f1d565b61034e61113d565b6040516102ba9190614c12565b6102eb611296565b6102eb61135a565b6102ad61141e565b61034e611424565b61034e6103893660046141f1565b61170b565b61034e6117e4565b6102ad611812565b6103b16103ac36600461418e565b611818565b6040516102ba9a99989796959493929190614344565b6102ad6118ca565b6103e26103dd366004614016565b6118d0565b6040516102ba959493929190614c1c565b6102eb610401366004614016565b61191d565b6102ad611af7565b61034e61041c3660046141f1565b611afd565b6102cb611d52565b6102eb611d61565b61034e611de6565b610441611dfe565b6040516102ba919061453b565b6102ad611e07565b6102ad611e0d565b6102ad611e1e565b61034e610474366004614016565b611e24565b6102ad61048736600461404e565b611e6f565b6102ad612298565b6102ad61229e565b6104af6104aa366004614016565b6122a4565b6040516102ba919061442a565b61034e6104ca36600461426a565b6123ee565b6102eb61259b565b6102cb612620565b6102eb6104ed3660046141f1565b61262f565b6102eb612736565b6102ad612756565b6102ad61275c565b6102ad612762565b6102eb6105203660046141f1565b612768565b6102ad612775565b6102ad61277b565b61034e612781565b60075481565b6001546001600160a01b031681565b61055a612b5c565b8161056481612b84565b61056c611424565b50610575612bae565b61057d612bd7565b61058e82600063ffffffff612be616565b6105b35760405162461bcd60e51b81526004016105aa9061478c565b60405180910390fd5b60006105be84612bfd565b90506105ca8184612c25565b5082516040516001600160a01b038616907fe1fffcc4923d04b559f4d29a8bfc6cda04eb5b0d3c460751c2402c5c5cc9109c90600090a38251600154610625916001600160a01b03909116903390309063ffffffff612c4d16565b5061062e612cab565b505050565b6000546001600160a01b031681565b61064a612b5c565b610652612bae565b61065a612bd7565b600061066533612bfd565b905080600101546000141561068c5760405162461bcd60e51b81526004016105aa90614be3565b600281015460405133907f74d8a3658feb89d1a5c335229bbbfc3bbcfaf492769feb7aa4cd2d92efeaf69190600090a36106c581612cc0565b506106ce612cab565b565b6000546001600160a01b03166106e557600080fd5b60005460405163117c72b360e11b81526001600160a01b03909116906322f8e56690610715908490600401614524565b600060405180830381600087803b15801561072f57600080fd5b505af1158015610743573d6000803e3d6000fd5b5050505050565b82826107568282612cda565b61075e611424565b50610767612bae565b61076f612bd7565b600061077b8587612d54565b60068101549091506001600160a01b03858116911614806107ab575060018101546001600160a01b038581169116145b806107c2575080546001600160a01b038581169116145b6107de5760405162461bcd60e51b81526004016105aa906145f0565b6107e88686612df1565b6107f0613fa8565b6040805160208082018352600785015482528251908101909252600e548252610840916108229163ffffffff612eee16565b6040805160208101909152600385015481529063ffffffff612f2016565b905061084a613fa8565b60408051602080820183526007860154825282519081019092526003850154825261087b919063ffffffff612f2016565b9050610885613fa8565b604080516020810190915260165481526108a5908463ffffffff612f2016565b90506108af613fa8565b604080516020810190915260155481526108cf908563ffffffff612f2016565b90506108d9613fa8565b60408051602080820183526014548252825190810190925260048801548252610908919063ffffffff612f2016565b9050610912613fa8565b61091c6000612f63565b905060036001880154600160a01b900460ff16600481111561093a57fe5b1415610b4b5760068701546001600160a01b038b8116911614156109ba57610960613fa8565b60408051602081019091526008890154815261099290610986878663ffffffff612f9716565b9063ffffffff612f9716565b90506109a4828263ffffffff612f9716565b6006890180546001600160a01b03191690559150505b86546001600160a01b038b811691161415610a2357610a1285610986856109868a610a068d60040160405180602001604052908160008201548152505088612f9790919063ffffffff16565b9063ffffffff612eee16565b87546001600160a01b031916885590505b60018701546001600160a01b038b811691161415610a7f57610a43613fa8565b610a5785610a06898763ffffffff612eee16565b9050610a69828263ffffffff612f9716565b6001890180546001600160a01b03191690559150505b60068701546001600160a01b0316158015610aa2575086546001600160a01b0316155b8015610ab9575060018701546001600160a01b0316155b15610b46576001600160a01b038b16600090815260106020526040902080548d908110610ae257fe5b60009182526020822060099091020180546001600160a01b031990811682556001820180546001600160a81b031916905560028201839055600382018390556004820183905560058201839055600682018054909116905560078101829055600801555b610db6565b60046001880154600160a01b900460ff166004811115610b6757fe5b1415610c3e5760018701546001600160a01b038b811691161415610bcf57604080516020808201835260088a01548252825190810190925260048901548252610bba91610986908563ffffffff612f9716565b6001880180546001600160a01b031916905590505b86546001600160a01b038b811691161415610bf5575085546001600160a01b0319168655835b86546001600160a01b0316158015610ab9575060018701546001600160a01b0316610b46576001600160a01b038b16600090815260106020526040902080548d908110610ae257fe5b600180880154600160a01b900460ff166004811115610c5957fe5b1415610db65760018701546001600160a01b038b811691161415610cbd57604080516020808201835260088a01548252825190810190925260048901548252610ca8919063ffffffff612f9716565b6001880180546001600160a01b031916905590505b86546001600160a01b038b811691161415610d0657604080516020810190915260088801548152610cf590869063ffffffff612eee16565b87546001600160a01b031916885590505b86546001600160a01b0316158015610d29575060018701546001600160a01b0316155b15610db6576001600160a01b038b16600090815260106020526040902080548d908110610d5257fe5b60009182526020822060099091020180546001600160a01b031990811682556001820180546001600160a81b031916905560028201839055600382018390556004820183905560058201839055600682018054909116905560078101829055600801555b610dc781600063ffffffff612be616565b610de35760405162461bcd60e51b81526004016105aa90614582565b6001870154600160a01b900460ff166004811115610dfd57fe5b8a6001600160a01b03167f6b1dd0a2f9139859db0869429aa0d5042a624c6da84633f568767549a58937b08360000151604051610e3a9190614524565b60405180910390a38051600154610e64916001600160a01b03909116908c9063ffffffff612fc016565b50505050505050610743612cab565b600080546001600160a01b031615610f11576000809054906101000a90046001600160a01b03166001600160a01b03166329cb924d6040518163ffffffff1660e01b815260040160206040518083038186803b158015610ed257600080fd5b505afa158015610ee6573d6000803e3d6000fd5b505050506040513d601f19601f82011682018060405250810190610f0a91906141d9565b9050610f14565b50425b90565b60125481565b610f25612b5c565b610f2d611424565b50610f36612bae565b610f3e612bd7565b6001600160a01b0386166000908152600660205260409020600181015415610f785760405162461bcd60e51b81526004016105aa90614872565b604080516020810190915281548152610f9890600063ffffffff612fdf16565b15610fd2576040516001600160a01b038816907ff60993fa76f94c9e0a803526ee6e1314814ed4d2b0d223febf1436b36897fb3790600090a25b610fdc8183612c25565b50604080516020810190915281548152610ffc908563ffffffff612f9716565b5181556040805160208101909152600754815261101f908563ffffffff612f9716565b51600755835182516040516001600160a01b038a16907f4b82aa16e071a61de1a6b9aeec9edab0356331f8122c78683b469ac8e685dabc90600090a461108b8530611070858763ffffffff612f9716565b516001546001600160a01b031692919063ffffffff612c4d16565b60095484516040516340c10f1960e01b81526001600160a01b03909216916340c10f19916110be918a91906004016143ee565b602060405180830381600087803b1580156110d857600080fd5b505af11580156110ec573d6000803e3d6000fd5b505050506040513d601f19601f8201168201806040525081019061111091906141b9565b61112c5760405162461bcd60e51b81526004016105aa90614939565b50611135612cab565b505050505050565b611145613fa8565b61114d612b5c565b611155611424565b5061115e612bae565b611166612bd7565b600061117133612bfd565b90508060010154600014158015611193575061118b610e73565b816001015411155b6111af5760405162461bcd60e51b81526004016105aa9061489e565b6111b7613fa8565b5060408051602080820183526002840154825282519081019092526003830154825290611205906111e790612ff6565b6040805160208101909152600285015481529063ffffffff61301f16565b156112285760408051602081019091526003830154815261122590612ff6565b90505b6112328282613026565b925061123d82612cc0565b825160015461125f916001600160a01b0390911690339063ffffffff612fc016565b825160405133907fc86c3298cb79f486674dca87d9247e88b76146160e7d412cc59b26b14c358a6890600090a35050610f14612cab565b61129e612b5c565b6112a6613047565b6112ae612bae565b6112b6612bd7565b6112be613077565b6001600160a01b0316336001600160a01b0316146112ee5760405162461bcd60e51b81526004016105aa9061490c565b6005805460ff19166001179055600b54611306610e73565b600b81905561131490613118565b600b5460405133917fd39eeb7157d9c446579a0893ecf9ecd87d1f466cdb270c6a189cf38ca1e30f489161134991859161452d565b60405180910390a2506106ce612cab565b611362612b5c565b61136a612bae565b611372612bd7565b600061137d33612bfd565b905080600401546000146113a35760405162461bcd60e51b81526004016105aa90614b4b565b60006113bf600d546113b3610e73565b9063ffffffff61318216565b9050600b5481106113e25760405162461bcd60e51b81526004016105aa90614a3b565b6004820181905560405133907fbf457c80c8bf299d5c48272c4c1168bf87b33d83b13f0ab9aac332ce1161ed1e90600090a250506106ce612cab565b60145481565b61142c613fa8565b611434612bae565b61143c612bd7565b60006114466131a7565b90506000611452610e73565b905061145c613fa8565b6114646131e0565b905061147781600063ffffffff612fdf16565b156114855750611703915050565b8160035414156114985750611703915050565b6114a0613fa8565b6114a8613fa8565b6003546040516374201feb60e01b81526001600160a01b038716916374201feb916114da919088908890600401614c40565b604080518083038186803b1580156114f157600080fd5b505afa158015611505573d6000803e3d6000fd5b505050506040513d601f19601f820116820180604052508101906115299190614227565b60038690559092509050611543828263ffffffff612f9716565b955061155686600063ffffffff612fdf16565b1561156657506117039350505050565b611576868463ffffffff61301f16565b156115ef57611583613fa8565b611593878563ffffffff612eee16565b905061159d613fa8565b6115a7838361320d565b90506115b9838263ffffffff612eee16565b92506115cb828263ffffffff612eee16565b91506115e76115da858461320d565b859063ffffffff612eee16565b935084975050505b805182516040517f19b92e73d08d517d71ec46136266e4f5d526a8cd4f8501d73713cebfe4f335ef90600090a3611626868461322b565b61163782600063ffffffff612be616565b156116c557815160015461165e916001600160a01b0390911690879063ffffffff61327b16565b60015460405163432ce91960e11b81526001600160a01b0387811692638659d23292611692929091169086906004016143d4565b600060405180830381600087803b1580156116ac57600080fd5b505af11580156116c0573d6000803e3d6000fd5b505050505b6116d681600063ffffffff612be616565b156116fd5780516001546116fd916001600160a01b0390911690339063ffffffff612fc016565b50505050505b610f14612cab565b611713613fa8565b61171b612b5c565b3361172581612b84565b61172d611424565b50611736612bae565b61173e612bd7565b600061174933612bfd565b905061175c84600063ffffffff612be616565b6117785760405162461bcd60e51b81526004016105aa9061478c565b6117828185613320565b80516040519194509033907f7fcf532c15f0a6db0bd6d0e038bea71d30d808c7d98cb3bf7268a95bf5081b6590600090a382516001546117d5916001600160a01b0390911690339063ffffffff612fc016565b506117de612cab565b50919050565b6117ec613fa8565b6117f4612bae565b6040805160208101909152600854815261180d90612ff6565b905090565b60135481565b6010602052816000526040600020818154811061183157fe5b600091825260209182902060099190910201805460018201546002830154604080518087018252600386015481528151808801835260048701548152825180890184526005880154815260068801548451808b01865260078a0154815285519a8b0190955260089098015489526001600160a01b039687169a508686169950600160a01b90950460ff169793969195909493911691908a565b60115481565b600660209081526000918252604091829020825180830184528154815260018201548451808501865260028401548152855194850190955260038301548452600490920154909391929085565b611925612b5c565b3361192f81612b84565b611937612bae565b61193f612bd7565b61198d61194c6000612f63565b6001600160a01b0384166000908152600660209081526040918290208251918201909252600390910154815261198190612ff6565b9063ffffffff61336616565b6119a95760405162461bcd60e51b81526004016105aa90614996565b60006119b433612bfd565b905080600401546000141580156119d657506119ce610e73565b816004015411155b6119f25760405162461bcd60e51b81526004016105aa906148d5565b600060048083018281556001600160a01b038616808452600660205260408085208654815560018088015481830155600280890154818401556003808a01548185015595549287019290925533808852838820888155918201889055918101879055938401869055929093018490559151919290917ff1a2dcf23621f1a96185c79d39a5776b5ba3dadbea70c5aa86d84c17c7e9418e9190a36040516001600160a01b038416907ff60993fa76f94c9e0a803526ee6e1314814ed4d2b0d223febf1436b36897fb3790600090a260405133907fcad20625296d189a6fc6e5b39d0d544e5bd99dbda0c8f2f0ecffef3e0fbcc28290600090a250611af3612cab565b5050565b60165481565b611b05613fa8565b611b0d612b5c565b33611b1781612b84565b611b1f611424565b50611b28612bae565b611b30612bd7565b6000611b3b33612bfd565b604080516020810190915281548152909150611b5e90859063ffffffff61301f16565b15611b7b5760405162461bcd60e51b81526004016105aa906146c0565b611b83613fa8565b604080516020810190915282548152611ba390869063ffffffff61336d16565b9050611bad613fa8565b604080516020810190915260038401548152611bd990611bcc90612ff6565b839063ffffffff612f2016565b604080516020810190915284548152909150611bfb908763ffffffff61336616565b15611c1057611c09336133ae565b9450611c70565b611c1a8382613026565b9450611c24613fa8565b604080516020810190915284548152611c43908863ffffffff612eee16565b8051855560408051602081019091526007548152909150611c6a908863ffffffff612eee16565b51600755505b8551855160405133907fe5b754fb1abb7f01b499791d0b820ae3b6af3424ac1c59768edb53f4ec31a92990600090a48451600154611cc1916001600160a01b0390911690339063ffffffff612fc016565b8551600954611ce5916001600160a01b03909116903390309063ffffffff612c4d16565b6009548651604051630852cd8d60e31b81526001600160a01b03909216916342966c6891611d1591600401614524565b600060405180830381600087803b158015611d2f57600080fd5b505af1158015611d43573d6000803e3d6000fd5b505050505050506117de612cab565b6009546001600160a01b031681565b611d696134e2565b611d71613047565b611d79611424565b50611d82612bae565b611d8a612bd7565b6005805460ff19166001179055611da830611da361350b565b6135a6565b611db3600b54613118565b60405133907f18600820405d6cf356e3556301762ca32395e72d8c81494fa344835c9da3633d90600090a26106ce612cab565b611dee613fa8565b611df6612bae565b61180d6131e0565b60055460ff1681565b60085481565b6000611e17612bae565b50600c5490565b600a5481565b611e2c613fa8565b611e34612bae565b6001600160a01b03821660009081526006602090815260409182902082519182019092526003909101548152611e6990612ff6565b92915050565b6000611e79611424565b50611e82612b5c565b611e8a612bae565b611e92612bd7565b6040805160208101909152600e548152611ec190611eb5368790038701876141f1565b9063ffffffff61370716565b611edd5760405162461bcd60e51b81526004016105aa90614a72565b6000611ee889612bfd565b9050611ef2613fa8565b611f18611f04368990038901896141f1565b60408051602081019091528454815261320d565b9050611f22613fa8565b611f72611f63611f56611f3a368b90038b018b6141f1565b6040805160208101909152600e5481529063ffffffff612eee16565b849063ffffffff612f2016565b610986368890038801886141f1565b6040805160208101909152600e548152909150611fa3908c908490611f9e90829063ffffffff612f2016565b61370f565b6040805160208101909152600e548152611fd090601190611fcb90859063ffffffff612f2016565b6137de565b506001600160a01b03808c166000818152601060209081526040918290208054835161014081018552948552948f169184019190915292965081016001815260200161201a610e73565b815260200184815260200183815260200161203d6120386001612f63565b61385c565b815260006020820152604001612058368b90038b018b6141f1565b815260200161206c368a90038a018a6141f1565b90528154600181810184556000938452602093849020835160099093020180546001600160a01b039384166001600160a01b03199182161782559484015191810180549290931691909416178082556040830151929392919060ff60a01b1916600160a01b8360048111156120dd57fe5b02179055506060820151816002015560808201518160030160008201518160000155505060a08201518160040160008201518160000155505060c08201518160050160008201518160000155505060e08201518160060160006101000a8154816001600160a01b0302191690836001600160a01b031602179055506101008201518160070160008201518160000155505061012082015181600801600082015181600001555050505083336001600160a01b03168c6001600160a01b03167f5c55ae4d250e567acef104ff0ede2d80bb5fef52c5b3b9b33a54b43689401066856000015185600001516040516121d492919061452d565b60405180910390a48151600954612200916001600160a01b03909116908b90309063ffffffff612c4d16565b6009548251604051630852cd8d60e31b81526001600160a01b03909216916342966c689161223091600401614524565b600060405180830381600087803b15801561224a57600080fd5b505af115801561225e573d6000803e3d6000fd5b505060015461228292506001600160a01b031690508a30893563ffffffff612c4d16565b50505061228d612cab565b979650505050505050565b600b5481565b600d5481565b60606122ae612bae565b6001600160a01b038216600090815260106020908152604080832080548251818502810185019093528083529193909284015b828210156123e357600084815260209081902060408051610140810182526009860290920180546001600160a01b039081168452600182015490811694840194909452919290830190600160a01b900460ff16600481111561233f57fe5b600481111561234a57fe5b815260028201546020808301919091526040805180830182526003850154815281840152805180830182526004850154815260608401528051808301825260058501548152608084015260068401546001600160a01b031660a0840152805180830182526007850154815260c08401528051808301909152600890930154835260e09091019190915290825260019290920191016122e1565b505050509050919050565b6123f6613fa8565b82826124028282613885565b61240a611424565b50612413612bae565b61241b612bd7565b60006124278587612d54565b9050612431613fa8565b60408051602081019091526005830154815261248b9061245090612ff6565b6040805160208082018352601454825282519081019092526004860154825261247f919063ffffffff612f2016565b9063ffffffff612f2016565b90506124986011826137de565b5060018201805460ff60a01b1916600160a11b1790556006820180546001600160a01b0319163317905560028201546124d090613118565b6001820154815160405133926001600160a01b0390811692908a16917fcaca181ccad7979cf36ed4fc921e496001ab5264608f0fac7007ae1b43d361029161251a918d919061452d565b60405180910390a460408051602081019091526008830154815261254590829063ffffffff612f9716565b6040805160208101909152600884015481529095506125659033906135a6565b8051600154612589916001600160a01b03909116903390309063ffffffff612c4d16565b5050612593612cab565b505092915050565b6125a3612b5c565b6125ab612bae565b6125b3612bd7565b60006125be33612bfd565b90508060040154600014156125e55760405162461bcd60e51b81526004016105aa9061465e565b60405133907f2e5702420c76e041698ad7ba57a9ff5cadccf647ea8d96e6007a40b5b2662f5690600090a260006004909101556106ce612cab565b6002546001600160a01b031681565b612637612b5c565b3361264181612b84565b612649612bae565b612651612bd7565b600061265c33612bfd565b905061266f83600063ffffffff612be616565b80156126a257506040805160208101909152600382015481526126a29061269590612ff6565b849063ffffffff61370716565b6126be5760405162461bcd60e51b81526004016105aa9061478c565b60006126ce600d546113b3610e73565b9050600b5481106126f15760405162461bcd60e51b81526004016105aa90614a3b565b6001820181905583516002830181905560405133907fd33b726e11d2c5d38e6702b16613df0160a07f7ba5185455ee3c45d0494fab1190600090a35050611af3612cab565b61273e612b5c565b612746612bae565b61274e612bd7565b6106ce612cab565b600c5481565b60155481565b600e5481565b6127723382610552565b50565b60045481565b600f5481565b612789613fa8565b6127916134e2565b612799611424565b506127a2612bae565b6127aa612bd7565b600060055460ff1660028111156127bd57fe5b14156127db5760405162461bcd60e51b81526004016105aa90614b1f565b600260055460ff1660028111156127ee57fe5b14612810576127fe600b546138e5565b51600f556005805460ff191660021790555b612818613fa8565b6040805160208101918290526009546370a0823160e01b9092529081906001600160a01b03166370a082316128503360248501614316565b60206040518083038186803b15801561286857600080fd5b505afa15801561287c573d6000803e3d6000fd5b505050506040513d601f19601f820116820180604052508101906128a091906141d9565b905290506128ac613fa8565b6040805160208101909152600f5481526128cd90839063ffffffff612f2016565b33600090815260066020908152604080832081519283019091526003810154825292935061290b91906128ff90612ff6565b9063ffffffff612be616565b15612a1a57612918613fa8565b6040805160208082018352600f548252825190810190925283548252612944919063ffffffff612f2016565b905061294e613fa8565b60408051602081019091526003840154815261296990612ff6565b9050612973613fa8565b612983838363ffffffff613a3b16565b61299c57604051806020016040528060008152506129ac565b6129ac828463ffffffff612eee16565b90506129be858263ffffffff612f9716565b336000818152600660205260408082208281556001810183905560028101839055600381018390556004018290555192975090917fcad20625296d189a6fc6e5b39d0d544e5bd99dbda0c8f2f0ecffef3e0fbcc2829190a25050505b612a22613fa8565b60408051602081019091526008548152612a4590612a3f90612ff6565b8461320d565b9050612a52600882613a42565b60408051602081019091526007548152909550612a75908563ffffffff612eee16565b516007558351855160405133907f9d349c102bec959fb7f20f9a3621e015819d3ae4ed6e9afd1f56a69d5845600690600090a48451600154612aca916001600160a01b0390911690339063ffffffff612fc016565b8351600954612aee916001600160a01b03909116903390309063ffffffff612c4d16565b6009548451604051630852cd8d60e31b81526001600160a01b03909216916342966c6891612b1e91600401614524565b600060405180830381600087803b158015612b3857600080fd5b505af1158015612b4c573d6000803e3d6000fd5b5050505050505050610f14612cab565b600b54612b67610e73565b106106ce5760405162461bcd60e51b81526004016105aa906149cd565b612b8d81612bfd565b60010154156127725760405162461bcd60e51b81526004016105aa90614872565b600054600160a01b900460ff166106ce5760405162461bcd60e51b81526004016105aa90614ae8565b6000805460ff60a01b19169055565b6000612bf182612f63565b51835111905092915050565b600081612c0981613abe565b50506001600160a01b0316600090815260066020526040902090565b612c2d613fa8565b612c3a83600301836137de565b50612c466008836137de565b9392505050565b612ca5846323b872dd60e01b858585604051602401612c6e939291906143b0565b60408051601f198184030181529190526020810180516001600160e01b03166001600160e01b031990931692909217909152613b11565b50505050565b6000805460ff60a01b1916600160a01b179055565b612cca6000612f63565b5160028201556000600190910155565b6000612ce68284612d54565b600181810154919250600160a01b90910460ff1690816004811115612d0757fe5b1180612d385750612d16610e73565b612d1f83613bf6565b11158015612d3857506001816004811115612d3657fe5b145b612ca55760405162461bcd60e51b81526004016105aa906145b9565b6001600160a01b0382166000908152601060205260408120805483108015612db257506000818481548110612d8557fe5b906000526020600020906009020160010160149054906101000a900460ff166004811115612daf57fe5b14155b612dce5760405162461bcd60e51b81526004016105aa9061475c565b808381548110612dda57fe5b906000526020600020906009020191505092915050565b6000612dfd8284612d54565b905060026001820154600160a01b900460ff166004811115612e1b57fe5b14612e265750611af3565b612e3381600201546138e5565b51600782018190556040805160208101909152908152600090612e5c908263ffffffff612be616565b905080612e6a576004612e6d565b60035b60018301805460ff60a01b1916600160a01b836004811115612e8b57fe5b0217905550600182015460068301546040516001600160a01b03928316928681169233927f6c5582199868fabbe697f9ea10abe481bacf53ac78c02a965b34dff82fd20e3b92612ee09216908a908890614407565b60405180910390a450505050565b612ef6613fa8565b6040805160208101909152825184518291612f17919063ffffffff613c1116565b90529392505050565b612f28613fa8565b6040805160208101909152825184518291670de0b6b3a764000091612f529163ffffffff613c5316565b81612f5957fe5b0490529392505050565b612f6b613fa8565b604080516020810190915280612f8f84670de0b6b3a764000063ffffffff613c5316565b905292915050565b612f9f613fa8565b6040805160208101909152825184518291612f17919063ffffffff61318216565b61062e8363a9059cbb60e01b8484604051602401612c6e9291906143ee565b6000612fea82612f63565b51835114905092915050565b612ffe613fa8565b60408051602081019091526004548152611e6990839063ffffffff612f2016565b5190511190565b61302e613fa8565b61303b8360030183613a42565b50612c46600883613a42565b600060055460ff16600281111561305a57fe5b146106ce5760405162461bcd60e51b81526004016105aa906146ee565b6002546040516302abf57960e61b81526000916001600160a01b03169063aafd5e40906130c8907f46696e616e6369616c436f6e74726163747341646d696e00000000000000000090600401614524565b60206040518083038186803b1580156130e057600080fd5b505afa1580156130f4573d6000803e3d6000fd5b505050506040513d601f19601f8201168201806040525081019061180d9190614032565b6000613122613c8d565b600a546040516368ad8ae360e01b81529192506001600160a01b038316916368ad8ae39161315491869060040161452d565b600060405180830381600087803b15801561316e57600080fd5b505af1158015611135573d6000803e3d6000fd5b600082820183811015612c465760405162461bcd60e51b81526004016105aa90614627565b6002546040516302abf57960e61b81526000916001600160a01b03169063aafd5e40906130c8906453746f726560d81b90600401614524565b6131e8613fa8565b6040805160208101909152601154815261180d9061320590612ff6565b610986613cc7565b613215613fa8565b81518351106132245781612c46565b5090919050565b613233613fa8565b613243838363ffffffff613ccf16565b905061327261325682610a066001612f63565b604080516020810190915260045481529063ffffffff612f2016565b51600455505050565b60006132ff82856001600160a01b031663dd62ed3e30876040518363ffffffff1660e01b81526004016132af92919061432a565b60206040518083038186803b1580156132c757600080fd5b505afa1580156132db573d6000803e3d6000fd5b505050506040513d601f19601f820116820180604052508101906113b391906141d9565b9050612ca58463095ea7b360e01b8584604051602401612c6e9291906143ee565b613328613fa8565b6133358360030183613a42565b5061333f83613d71565b61335b5760405162461bcd60e51b81526004016105aa90614970565b612c46600883613a42565b5190511490565b613375613fa8565b6040805160208101909152825184518291612f17916133a290670de0b6b3a764000063ffffffff613c5316565b9063ffffffff613da716565b6133b6613fa8565b60006133c183612bfd565b90506133cb613fa8565b604080516020810190915260085481526133e490612ff6565b90506133ee613fa8565b50604080516020808201835260038501548252825190810190925260085482529061341f908263ffffffff612eee16565b516008556040805160208082018352855482528251908101909252600754825261344f919063ffffffff612eee16565b516007556001600160a01b038516600081815260066020526040808220828155600181018390556002810183905560038101839055600401829055517fcad20625296d189a6fc6e5b39d0d544e5bd99dbda0c8f2f0ecffef3e0fbcc2829190a2604080516020810190915260085481526134d9906134cc90612ff6565b839063ffffffff612eee16565b95945050505050565b600b546134ed610e73565b10156106ce5760405162461bcd60e51b81526004016105aa90614a04565b613513613fa8565b600061351d6131a7565b600154604051635b97aadd60e01b81529192506001600160a01b0380841692635b97aadd92613550921690600401614316565b60206040518083038186803b15801561356857600080fd5b505afa15801561357c573d6000803e3d6000fd5b505050506040513d601f19601f820116820180604052508101906135a0919061420c565b91505090565b6135b781600063ffffffff612fdf16565b156135c157611af3565b6001600160a01b03821630146135fa5780516001546135f5916001600160a01b03909116908490309063ffffffff612c4d16565b613644565b613602613fa8565b61360a6131e0565b905061361c818363ffffffff61301f16565b6136385760405162461bcd60e51b81526004016105aa90614bac565b613642828261322b565b505b80516040517f4f9bf7e8cd0f2456f9c43d2597bedcf1446c9c64544053f1ece6423ae9a07e5290600090a260006136796131a7565b825160015491925061369c916001600160a01b031690839063ffffffff61327b16565b60015460405163432ce91960e11b81526001600160a01b0383811692638659d232926136d0929091169086906004016143d4565b600060405180830381600087803b1580156136ea57600080fd5b505af11580156136fe573d6000803e3d6000fd5b50505050505050565b519051111590565b600061371a84612bfd565b60408051602081019091528154815290915061373d90849063ffffffff61336616565b8015613765575060408051602081019091526003820154815261376590839061198190612ff6565b1561377a57613773846133ae565b505061062e565b6137848183613026565b5061378d613fa8565b6040805160208101909152825481526137ac908563ffffffff612eee16565b80518355604080516020810190915260075481529091506137d3908563ffffffff612eee16565b516007555050505050565b6137e6613fa8565b6137ee613fa8565b60408051602081019091528454815261380690612ff6565b9050613810613fa8565b6138198461385c565b60408051602081019091528654815290915061383b908263ffffffff612f9716565b5180865560408051602081019091529081526134d9908390610a0690612ff6565b613864613fa8565b60408051602081019091526004548152611e6990839063ffffffff61336d16565b60006138918284612d54565b905061389c81613bf6565b6138a4610e73565b1080156138c95750600180820154600160a01b900460ff1660048111156138c757fe5b145b61062e5760405162461bcd60e51b81526004016105aa906147fa565b6138ed613fa8565b60006138f7613c8d565b600a5460405163501f440d60e11b81529192506001600160a01b0383169163a03e881a9161392991879060040161452d565b60206040518083038186803b15801561394157600080fd5b505afa158015613955573d6000803e3d6000fd5b505050506040513d601f19601f8201168201806040525081019061397991906141b9565b6139955760405162461bcd60e51b81526004016105aa90614725565b600a54604051636494078360e11b81526000916001600160a01b0384169163c9280f06916139c791889060040161452d565b60206040518083038186803b1580156139df57600080fd5b505afa1580156139f3573d6000803e3d6000fd5b505050506040513d601f19601f82011682018060405250810190613a1791906141d9565b90506000811215613a26575060005b60408051602081019091529081529392505050565b5190511090565b613a4a613fa8565b613a52613fa8565b604080516020810190915284548152613a6a90612ff6565b9050613a74613fa8565b613a7d8461385c565b604080516020810190915286548152909150613a9f908263ffffffff612eee16565b5180865560408051602081019091529081526134d9906134cc90612ff6565b6001600160a01b03811660009081526006602090815260408083208151928301909152600301548152613af591906128ff90612ff6565b6127725760405162461bcd60e51b81526004016105aa906147c3565b613b23826001600160a01b0316613de9565b613b3f5760405162461bcd60e51b81526004016105aa90614b75565b60006060836001600160a01b031683604051613b5b91906142fa565b6000604051808303816000865af19150503d8060008114613b98576040519150601f19603f3d011682016040523d82523d6000602084013e613b9d565b606091505b509150915081613bbf5760405162461bcd60e51b81526004016105aa9061468b565b805115612ca55780806020019051810190613bda91906141b9565b612ca55760405162461bcd60e51b81526004016105aa90614a9e565b6000611e69601254836002015461318290919063ffffffff16565b6000612c4683836040518060400160405280601e81526020017f536166654d6174683a207375627472616374696f6e206f766572666c6f770000815250613e25565b600082613c6257506000611e69565b82820282848281613c6f57fe5b0414612c465760405162461bcd60e51b81526004016105aa90614831565b6002546040516302abf57960e61b81526000916001600160a01b03169063aafd5e40906130c890654f7261636c6560d01b90600401614524565b6117f4613fa8565b613cd7613fa8565b8251600090613cf490670de0b6b3a764000063ffffffff613c5316565b8351909150600090613d0d90839063ffffffff613da716565b8451909150600090613d2690849063ffffffff613e5116565b90508015613d5857604080516020810190915280613d4b84600163ffffffff61318216565b8152509350505050611e69565b6040518060200160405280838152509350505050611e69565b604080516020810190915260038201548152600090611e6990613d9390612ff6565b604080516020810190915284548152613e93565b6000612c4683836040518060400160405280601a81526020017f536166654d6174683a206469766973696f6e206279207a65726f000000000000815250613eff565b6000813f7fc5d2460186f7233c927e7db2dcc703c0e500b653ca82273b7bfad8045d85a470818114801590613e1d57508115155b949350505050565b60008184841115613e495760405162461bcd60e51b81526004016105aa919061454f565b505050900390565b6000612c4683836040518060400160405280601881526020017f536166654d6174683a206d6f64756c6f206279207a65726f0000000000000000815250613f36565b6000613e9d613fa8565b60408051602081019091526008548152613ecf90613eba90612ff6565b60408051602081019091526007548152613f6a565b9050613ed9613fa8565b613ee38585613f6a565b9050613ef5828263ffffffff61301f16565b1595945050505050565b60008183613f205760405162461bcd60e51b81526004016105aa919061454f565b506000838581613f2c57fe5b0495945050505050565b60008183613f575760405162461bcd60e51b81526004016105aa919061454f565b50828481613f6157fe5b06949350505050565b613f72613fa8565b613f8382600063ffffffff612be616565b613f9857613f916000612f63565b9050611e69565b613f91838363ffffffff61336d16565b6040518060200160405280600081525090565b6000602082840312156117de578081fd5b600060208284031215613fdd578081fd5b613fe76020614c57565b9135825250919050565b600060208284031215614002578081fd5b61400c6020614c57565b9151825250919050565b600060208284031215614027578081fd5b8135612c4681614caa565b600060208284031215614043578081fd5b8151612c4681614caa565b600080600080600080600060e0888a031215614068578283fd5b873561407381614caa565b9650602088013561408381614caa565b9550604088013561409381614caa565b94506140a28960608a01613fbb565b93506140b18960808a01613fbb565b92506140c08960a08a01613fbb565b91506140cf8960c08a01613fbb565b905092959891949750929550565b60008060008060008060c087890312156140f5578182fd5b863561410081614caa565b9550602087013561411081614caa565b9450604087013561412081614caa565b935061412f8860608901613fcc565b925061413e8860808901613fcc565b915061414d8860a08901613fcc565b90509295509295509295565b6000806040838503121561416b578182fd5b823561417681614caa565b91506141858460208501613fcc565b90509250929050565b600080604083850312156141a0578182fd5b82356141ab81614caa565b946020939093013593505050565b6000602082840312156141ca578081fd5b81518015158114612c46578182fd5b6000602082840312156141ea578081fd5b5051919050565b600060208284031215614202578081fd5b612c468383613fcc565b60006020828403121561421d578081fd5b612c468383613ff1565b60008060408385031215614239578182fd5b6142438484613ff1565b91506141858460208501613ff1565b600060208284031215614263578081fd5b5035919050565b6000806040838503121561427c578182fd5b82359150602083013561428e81614caa565b809150509250929050565b6000806000606084860312156142ad578081fd5b8335925060208401356142bf81614caa565b915060408401356142cf81614caa565b809150509250925092565b6001600160a01b03169052565b600581106142f157fe5b9052565b519052565b6000825161430c818460208701614c7e565b9190910192915050565b6001600160a01b0391909116815260200190565b6001600160a01b0392831681529116602082015260400190565b6001600160a01b038b811682528a8116602083015261014082019060058b1061436957fe5b604083019a909a52606082019890985295516080870152935160a0860152915160c085015290941660e0830152925161010082015291516101209092019190915292915050565b6001600160a01b039384168152919092166020820152604081019190915260600190565b6001600160a01b0392909216825251602082015260400190565b6001600160a01b03929092168252602082015260400190565b6001600160a01b0393909316835260208301919091521515604082015260600190565b602080825282518282018190526000919060409081850190868401855b8281101561451757815161445c8582516142da565b8681015161446c888701826142da565b508581015161447d878701826142e7565b506060818101519086015260808082015161449a828801826142f5565b505060a0808201516144ae828801826142f5565b505060c0808201516144c2828801826142f5565b505060e0808201516144d6828801826142da565b5050610100808201516144eb828801826142f5565b505061012080820151614500828801826142f5565b505050610140939093019290850190600101614447565b5091979650505050505050565b90815260200190565b918252602082015260400190565b602081016003831061454957fe5b91905290565b600060208252825180602084015261456e816040850160208701614c7e565b601f01601f19169190910160400192915050565b60208082526019908201527f496e76616c6964207769746864726177616c20616d6f756e7400000000000000604082015260600190565b6020808252601c908201527f4c69717569646174696f6e206e6f7420776974686472617761626c6500000000604082015260600190565b6020808252601e908201527f43616c6c65722063616e6e6f7420776974686472617720726577617264730000604082015260600190565b6020808252601b908201527f536166654d6174683a206164646974696f6e206f766572666c6f770000000000604082015260600190565b6020808252601390820152722737903832b73234b733903a3930b739b332b960691b604082015260600190565b6020808252818101527f5361666545524332303a206c6f772d6c6576656c2063616c6c206661696c6564604082015260600190565b602080825260149082015273125b9d985b1a59081d1bdad95b88185b5bdd5b9d60621b604082015260600190565b6020808252601a908201527f436f6e7472616374207374617465206973206e6f74204f50454e000000000000604082015260600190565b60208082526017908201527f556e7265736f6c766564206f7261636c65207072696365000000000000000000604082015260600190565b602080825260169082015275125b9d985b1a59081b1a5c5d5a59185d1a5bdb88125160521b604082015260600190565b60208082526019908201527f496e76616c696420636f6c6c61746572616c20616d6f756e7400000000000000604082015260600190565b6020808252601a908201527f506f736974696f6e20686173206e6f20636f6c6c61746572616c000000000000604082015260600190565b6020808252601a908201527f4c69717569646174696f6e206e6f742064697370757461626c65000000000000604082015260600190565b60208082526021908201527f536166654d6174683a206d756c7469706c69636174696f6e206f766572666c6f6040820152607760f81b606082015260800190565b60208082526012908201527114195b991a5b99c81dda5d1a191c985dd85b60721b604082015260600190565b60208082526018908201527f496e76616c696420776974686472617720726571756573740000000000000000604082015260600190565b60208082526018908201527f496e76616c6964207472616e7366657220726571756573740000000000000000604082015260600190565b60208082526013908201527221b0b63632b9103737ba1023b7bb32b93737b960691b604082015260600190565b6020808252601f908201527f4d696e74696e672073796e74686574696320746f6b656e73206661696c656400604082015260600190565b6020808252600c908201526b21a9103132b637bb9023a1a960a11b604082015260600190565b6020808252601c908201527f53706f6e736f7220616c72656164792068617320706f736974696f6e00000000604082015260600190565b60208082526018908201527f4f6e6c792063616c6c61626c65207072652d6578706972790000000000000000604082015260600190565b60208082526019908201527f4f6e6c792063616c6c61626c6520706f73742d65787069727900000000000000604082015260600190565b6020808252601b908201527f52657175657374206578706972657320706f73742d6578706972790000000000604082015260600190565b60208082526012908201527141626f766520537472696b6520507269636560701b604082015260600190565b6020808252602a908201527f5361666545524332303a204552433230206f7065726174696f6e20646964206e6040820152691bdd081cdd58d8d9595960b21b606082015260800190565b6020808252601f908201527f5265656e7472616e637947756172643a207265656e7472616e742063616c6c00604082015260600190565b6020808252601290820152712ab732bc3834b932b2103837b9b4ba34b7b760711b604082015260600190565b60208082526010908201526f2832b73234b733903a3930b739b332b960811b604082015260600190565b6020808252601f908201527f5361666545524332303a2063616c6c20746f206e6f6e2d636f6e747261637400604082015260600190565b6020808252601a908201527f46696e616c20666565206973206d6f7265207468616e20506643000000000000604082015260600190565b602080825260159082015274139bc81c195b991a5b99c81dda5d1a191c985dd85b605a1b604082015260600190565b9051815260200190565b94518552602085019390935290516040840152516060830152608082015260a00190565b928352602083019190915251604082015260600190565b60405181810167ffffffffffffffff81118282101715614c7657600080fd5b604052919050565b60005b83811015614c99578181015183820152602001614c81565b83811115612ca55750506000910152565b6001600160a01b038116811461277257600080fd5b6000614cca82612f63565b5183511015905092915050565b6000614ce282612f63565b5183511090509291505056fea2646970667358221220b1d30b7038331a1f017b794b32d329210e96c81b29c6f2f60fd61456c098001064736f6c63430006060033",
  "immutableReferences": {},
  "source": "pragma solidity ^0.6.0;\npragma experimental ABIEncoderV2;\n\nimport \"./Liquidatable.sol\";\n\n\n/**\n * @title Expiring Multi Party.\n * @notice Convenient wrapper for Liquidatable.\n */\ncontract ExpiringMultiParty is Liquidatable {\n    /**\n     * @notice Constructs the ExpiringMultiParty contract.\n     * @param params struct to define input parameters for construction of Liquidatable. Some params\n     * are fed directly into the PricelessPositionManager's constructor within the inheritance tree.\n     */\n    constructor(ConstructorParams memory params)\n        public\n        Liquidatable(params)\n    // Note: since there is no logic here, there is no need to add a re-entrancy guard.\n    {\n\n    }\n}\n",
  "sourcePath": "/Users/guillem/Documents/Ethereum/Hedger/core/contracts/financial-templates/expiring-multiparty/ExpiringMultiParty.sol",
  "compiler": {
    "name": "solc",
    "version": "0.6.6+commit.6c089d02.Emscripten.clang"
  },
  "schemaVersion": "3.1.0",
  "updatedAt": "2020-05-23T16:51:15.091Z",
  "devdoc": {
    "methods": {
      "constructor": {
        "params": {
          "params": "struct to define input parameters for construction of Liquidatable. Some params are fed directly into the PricelessPositionManager's constructor within the inheritance tree."
        }
      },
      "create(address,address,address,(uint256),(uint256),(uint256))": {
        "details": "Reverts if minting these tokens would put the position's collateralization ratio below the global collateralization ratio. This contract must be approved to spend at least `collateralAmount` of `collateralCurrency`.",
        "params": {
          "numTokens": "is the number of tokens to mint from the position.",
          "poolAddress": "is the address of the liquidity pool."
        }
      },
      "createLiquidation(address,address,address,(uint256),(uint256),(uint256),(uint256))": {
        "details": "This method generates an ID that will uniquely identify liquidation for the sponsor. This contract must be approved to spend at least `tokensLiquidated` of `tokenCurrency` and at least `finalFeeBond` of `collateralCurrency`.",
        "params": {
          "maxTokensToLiquidate": "max number of tokens to liquidate.",
          "sponsor": "address of the sponsor to liquidate."
        },
        "returns": {
          "liquidationId": "ID of the newly created liquidation."
        }
      },
      "deposit((uint256))": {
        "details": "Increases the collateralization level of a position after creation. This contract must be approved to spend at least `collateralAmount` of `collateralCurrency`.",
        "params": {
          "collateralAmount": "total amount of collateral tokens to be sent to the sponsor's position."
        }
      },
      "depositTo(address,(uint256))": {
        "details": "Increases the collateralization level of a position after creation. This contract must be approved to spend at least `collateralAmount` of `collateralCurrency`.",
        "params": {
          "collateralAmount": "total amount of collateral tokens to be sent to the sponsor's position.",
          "sponsor": "the sponsor to credit the deposit to."
        }
      },
      "dispute(uint256,address)": {
        "details": "Can only dispute a liquidation before the liquidation expires and if there are no other pending disputes. This contract must be approved to spend at least the dispute bond amount of `collateralCurrency`. This dispute bond amount is calculated from `disputeBondPct` times the collateral in the liquidation.",
        "params": {
          "liquidationId": "of the disputed liquidation.",
          "sponsor": "the address of the sponsor whose liquidation is being disputed."
        },
        "returns": {
          "totalPaid": "amount of collateral charged to disputer (i.e. final fee bond + dispute bond)."
        }
      },
      "emergencyShutdown()": {
        "details": "Only the governor can call this function as they are permissioned within the `FinancialContractAdmin`. Upon emergency shutdown, the contract settlement time is set to the shutdown time. This enables withdrawal to occur via the standard `settleExpired` function. Contract state is set to `ExpiredPriceRequested` which prevents re-entry into this function or the `expire` function. No fees are paid when calling `emergencyShutdown` as the governor who would call the function would also receive the fees."
      },
      "expire()": {
        "details": "this function can only be called once the contract is expired and can't be re-called."
      },
      "getCollateral(address)": {
        "details": "This is necessary because the struct returned by the positions() method shows rawCollateral, which isn't a user-readable value.",
        "params": {
          "sponsor": "address whose collateral amount is retrieved."
        },
        "returns": {
          "collateralAmount": "amount of collateral within a sponsors position."
        }
      },
      "getLiquidations(address)": {
        "params": {
          "sponsor": "address of the position sponsor."
        },
        "returns": {
          "liquidationData": "array of all liquidation information for the given sponsor address."
        }
      },
      "payRegularFees()": {
        "details": "These must be paid periodically for the life of the contract. If the contract has not paid its regular fee in a week or more then a late penalty is applied which is sent to the caller. If the amount of fees owed are greater than the pfc, then this will pay as much as possible from the available collateral. An event is only fired if the fees charged are greater than 0.",
        "returns": {
          "totalPaid": "Amount of collateral that the contract paid (sum of the amount paid to the Store and caller). This returns 0 and exit early if there is no pfc, fees were already paid during the current block, or the fee rate is 0."
        }
      },
      "pfc()": {
        "details": "This is equivalent to the collateral pool available from which to pay fees. Therefore, derived contracts are expected to implement this so that pay-fee methods can correctly compute the owed fees as a % of PfC.",
        "returns": {
          "_0": "pfc value for equal to the current profit from corrution denominated in collateral currency."
        }
      },
      "redeem((uint256))": {
        "details": "Can only be called by a token sponsor. Might not redeem the full proportional amount of collateral in order to account for precision loss. This contract must be approved to spend at least `numTokens` of `tokenCurrency`.",
        "params": {
          "numTokens": "is the number of tokens to be burnt for a commensurate amount of collateral."
        },
        "returns": {
          "amountWithdrawn": "The actual amount of collateral withdrawn."
        }
      },
      "remargin()": {
        "details": "This is supposed to be implemented by any contract that inherits `AdministrateeInterface` and callable only by the Governor contract. This method is therefore minimally implemented in this contract and does nothing."
      },
      "requestTransferPosition()": {
        "details": "The liveness length is the same as the withdrawal liveness."
      },
      "requestWithdrawal((uint256))": {
        "details": "The request will be pending for `withdrawalLiveness`, during which the position can be liquidated.",
        "params": {
          "collateralAmount": "the amount of collateral requested to withdraw"
        }
      },
      "setCurrentTime(uint256)": {
        "details": "Will revert if not running in test mode.",
        "params": {
          "time": "timestamp to set current Testable time to."
        }
      },
      "settleExpired()": {
        "details": "This burns all tokens from the caller of `tokenCurrency` and sends back the proportional amount of `collateralCurrency`. Might not redeem the full proportional amount of collateral in order to account for precision loss. This contract must be approved to spend `tokenCurrency` at least up to the caller's full balance.",
        "returns": {
          "amountWithdrawn": "The actual amount of collateral withdrawn."
        }
      },
      "transferPositionPassedRequest(address)": {
        "details": "Transferring positions can only occur if the recipient does not already have a position.",
        "params": {
          "newSponsorAddress": "is the address to which the position will be transferred."
        }
      },
      "withdraw((uint256))": {
        "details": "Reverts if the withdrawal puts this position's collateralization ratio below the global collateralization ratio. In that case, use `requestWithdrawal`. Might not withdraw the full requested amount to account for precision loss.",
        "params": {
          "collateralAmount": "is the amount of collateral to withdraw."
        },
        "returns": {
          "amountWithdrawn": "The actual amount of collateral withdrawn."
        }
      },
      "withdrawPassedRequest()": {
        "details": "Might not withdraw the full requested amount in order to account for precision loss or if the full requested amount exceeds the collateral in the position (due to paying fees).",
        "returns": {
          "amountWithdrawn": "The actual amount of collateral withdrawn."
        }
      }
    },
    "title": "Expiring Multi Party."
  },
  "userdoc": {
    "methods": {
      "cancelTransferPosition()": {
        "notice": "Cancels a pending transfer position request."
      },
      "cancelWithdrawal()": {
        "notice": "Cancels a pending withdrawal request."
      },
      "constructor": "Constructs the ExpiringMultiParty contract.",
      "create(address,address,address,(uint256),(uint256),(uint256))": {
        "notice": "Creates tokens by creating a new position or by augmenting an existing position. Pulls `collateralAmount` into the sponsor's position and mints `numTokens` of `tokenCurrency`."
      },
      "createLiquidation(address,address,address,(uint256),(uint256),(uint256),(uint256))": {
        "notice": "Liquidates the sponsor's position if the caller has enough synthetic tokens to retire the position's outstanding tokens."
      },
      "deposit((uint256))": {
        "notice": "Transfers `collateralAmount` of `collateralCurrency` into the caller's position."
      },
      "depositTo(address,(uint256))": {
        "notice": "Transfers `collateralAmount` of `collateralCurrency` into the specified sponsor's position."
      },
      "dispute(uint256,address)": {
        "notice": "Disputes a liquidation, if the caller has enough collateral to post a dispute bond and pay a fixed final fee charged on each price request."
      },
      "emergencyShutdown()": {
        "notice": "Premature contract settlement under emergency circumstances."
      },
      "expire()": {
        "notice": "Locks contract state in expired and requests oracle price."
      },
      "getCollateral(address)": {
        "notice": "Accessor method for a sponsor's collateral."
      },
      "getCurrentTime()": {
        "notice": "Gets the current time. Will return the last time set in `setCurrentTime` if running in test mode. Otherwise, it will return the block timestamp."
      },
      "getLiquidations(address)": {
        "notice": "Gets all liquidation information for a given sponsor address."
      },
      "payRegularFees()": {
        "notice": "Pays UMA DVM regular fees (as a % of the collateral pool) to the Store contract."
      },
      "pfc()": {
        "notice": "Gets the current profit from corruption for this contract in terms of the collateral currency."
      },
      "redeem((uint256))": {
        "notice": "Burns `numTokens` of `tokenCurrency` and sends back the proportional amount of `collateralCurrency`."
      },
      "remargin()": {
        "notice": "Theoretically supposed to pay fees and move money between margin accounts to make sure they reflect the NAV of the contract. However, this functionality doesn't apply to this contract."
      },
      "requestTransferPosition()": {
        "notice": "Requests to transfer ownership of the caller's current position to a new sponsor address. Once the request liveness is passed, the sponsor can execute the transfer and specify the new sponsor."
      },
      "requestWithdrawal((uint256))": {
        "notice": "Starts a withdrawal request that, if passed, allows the sponsor to withdraw` from their position."
      },
      "setCurrentTime(uint256)": {
        "notice": "Sets the current time."
      },
      "settleExpired()": {
        "notice": "After a contract has passed expiry all token holders can redeem their tokens for underlying at the prevailing price defined by the DVM from the `expire` function."
      },
      "totalPositionCollateral()": {
        "notice": "Accessor method for the total collateral stored within the PricelessPositionManager."
      },
      "transferPositionPassedRequest(address)": {
        "notice": "After a passed transfer position request (i.e., by a call to `requestTransferPosition` and waiting `withdrawalLiveness`), transfers ownership of the caller's current position to `newSponsorAddress`."
      },
      "withdraw((uint256))": {
        "notice": "Transfers `collateralAmount` of `collateralCurrency` from the sponsor's position to the sponsor."
      },
      "withdrawPassedRequest()": {
        "notice": "After a passed withdrawal request (i.e., by a call to `requestWithdrawal` and waiting `withdrawalLiveness`), withdraws `positionData.withdrawalRequestAmount` of collateral currency."
      }
    },
    "notice": "Convenient wrapper for Liquidatable."
  }
}