{
  "address": "0x2d5ed0420B411887c24e17deA8FC04F0b45e9294",
  "abi": [
    {
      "inputs": [
        {
          "internalType": "contract IERC20[]",
          "name": "_tokens",
          "type": "address[]"
        },
        {
          "internalType": "address[]",
          "name": "_auxContracts",
          "type": "address[]"
        },
        {
          "internalType": "address",
          "name": "_chainlinkPriceFeed",
          "type": "address"
        },
        {
          "internalType": "address",
          "name": "_chainlinkIndexFeed",
          "type": "address"
        },
        {
          "internalType": "uint256",
          "name": "_daiExchangeRate",
          "type": "uint256"
        },
        {
          "internalType": "uint256",
          "name": "_daiLaggardExchangeRate",
          "type": "uint256"
        },
        {
          "internalType": "uint256",
          "name": "_gohmExchangeRate",
          "type": "uint256"
        },
        {
          "internalType": "uint256",
          "name": "_gohmLaggardExchangeRate",
          "type": "uint256"
        },
        {
          "internalType": "uint256",
          "name": "_maxDeposits",
          "type": "uint256"
        },
        {
          "internalType": "uint256",
          "name": "_tenderDecimals",
          "type": "uint256"
        }
      ],
      "stateMutability": "nonpayable",
      "type": "constructor"
    },
    {
      "inputs": [],
      "name": "AlreadyRedeemed",
      "type": "error"
    },
    {
      "inputs": [],
      "name": "AlreadyWithdrawn",
      "type": "error"
    },
    {
      "inputs": [],
      "name": "BadChoice",
      "type": "error"
    },
    {
      "inputs": [],
      "name": "ChoiceChange",
      "type": "error"
    },
    {
      "inputs": [],
      "name": "DepositLimit",
      "type": "error"
    },
    {
      "inputs": [],
      "name": "InvalidState",
      "type": "error"
    },
    {
      "anonymous": false,
      "inputs": [
        {
          "indexed": true,
          "internalType": "address",
          "name": "previousOwner",
          "type": "address"
        },
        {
          "indexed": true,
          "internalType": "address",
          "name": "newOwner",
          "type": "address"
        }
      ],
      "name": "OwnershipTransferred",
      "type": "event"
    },
    {
      "inputs": [],
      "name": "dai",
      "outputs": [
        {
          "internalType": "contract IERC20",
          "name": "",
          "type": "address"
        }
      ],
      "stateMutability": "view",
      "type": "function"
    },
    {
      "inputs": [],
      "name": "daiDistributed",
      "outputs": [
        {
          "internalType": "uint256",
          "name": "",
          "type": "uint256"
        }
      ],
      "stateMutability": "view",
      "type": "function"
    },
    {
      "inputs": [],
      "name": "daiExchangeRate",
      "outputs": [
        {
          "internalType": "uint256",
          "name": "",
          "type": "uint256"
        }
      ],
      "stateMutability": "view",
      "type": "function"
    },
    {
      "inputs": [],
      "name": "daiLaggardExchangeRate",
      "outputs": [
        {
          "internalType": "uint256",
          "name": "",
          "type": "uint256"
        }
      ],
      "stateMutability": "view",
      "type": "function"
    },
    {
      "inputs": [
        {
          "internalType": "uint256",
          "name": "_amount",
          "type": "uint256"
        },
        {
          "internalType": "enum Escrow.RedemptionChoice",
          "name": "_choice",
          "type": "uint8"
        },
        {
          "internalType": "enum Escrow.DepositToken",
          "name": "_depositToken",
          "type": "uint8"
        }
      ],
      "name": "deposit",
      "outputs": [],
      "stateMutability": "nonpayable",
      "type": "function"
    },
    {
      "inputs": [
        {
          "internalType": "address",
          "name": "",
          "type": "address"
        }
      ],
      "name": "deposits",
      "outputs": [
        {
          "internalType": "uint256",
          "name": "amount",
          "type": "uint256"
        },
        {
          "internalType": "uint256",
          "name": "index",
          "type": "uint256"
        },
        {
          "internalType": "uint256",
          "name": "ohmPrice",
          "type": "uint256"
        },
        {
          "internalType": "enum Escrow.RedemptionChoice",
          "name": "choice",
          "type": "uint8"
        },
        {
          "internalType": "bool",
          "name": "didRedeem",
          "type": "bool"
        },
        {
          "internalType": "bool",
          "name": "isLaggard",
          "type": "bool"
        }
      ],
      "stateMutability": "view",
      "type": "function"
    },
    {
      "inputs": [],
      "name": "gOHM",
      "outputs": [
        {
          "internalType": "contract IERC20",
          "name": "",
          "type": "address"
        }
      ],
      "stateMutability": "view",
      "type": "function"
    },
    {
      "inputs": [],
      "name": "gOHMDistributed",
      "outputs": [
        {
          "internalType": "uint256",
          "name": "",
          "type": "uint256"
        }
      ],
      "stateMutability": "view",
      "type": "function"
    },
    {
      "inputs": [
        {
          "internalType": "uint256",
          "name": "_index",
          "type": "uint256"
        },
        {
          "internalType": "uint256",
          "name": "_ohmPrice",
          "type": "uint256"
        },
        {
          "internalType": "bool",
          "name": "isLaggard",
          "type": "bool"
        }
      ],
      "name": "getGohmExchangeRate",
      "outputs": [
        {
          "internalType": "uint256",
          "name": "",
          "type": "uint256"
        }
      ],
      "stateMutability": "view",
      "type": "function"
    },
    {
      "inputs": [],
      "name": "getLatestOHMIndex",
      "outputs": [
        {
          "internalType": "uint256",
          "name": "",
          "type": "uint256"
        }
      ],
      "stateMutability": "view",
      "type": "function"
    },
    {
      "inputs": [],
      "name": "getLatestOHMPrice",
      "outputs": [
        {
          "internalType": "uint256",
          "name": "",
          "type": "uint256"
        }
      ],
      "stateMutability": "view",
      "type": "function"
    },
    {
      "inputs": [],
      "name": "gohmExchangeRate",
      "outputs": [
        {
          "internalType": "uint256",
          "name": "",
          "type": "uint256"
        }
      ],
      "stateMutability": "view",
      "type": "function"
    },
    {
      "inputs": [],
      "name": "gohmLaggardExchangeRate",
      "outputs": [
        {
          "internalType": "uint256",
          "name": "",
          "type": "uint256"
        }
      ],
      "stateMutability": "view",
      "type": "function"
    },
    {
      "inputs": [],
      "name": "maxDeposits",
      "outputs": [
        {
          "internalType": "uint256",
          "name": "",
          "type": "uint256"
        }
      ],
      "stateMutability": "view",
      "type": "function"
    },
    {
      "inputs": [],
      "name": "owner",
      "outputs": [
        {
          "internalType": "address",
          "name": "",
          "type": "address"
        }
      ],
      "stateMutability": "view",
      "type": "function"
    },
    {
      "inputs": [
        {
          "internalType": "address",
          "name": "_token",
          "type": "address"
        },
        {
          "internalType": "uint256",
          "name": "_amount",
          "type": "uint256"
        }
      ],
      "name": "recoverERC20",
      "outputs": [],
      "stateMutability": "nonpayable",
      "type": "function"
    },
    {
      "inputs": [],
      "name": "redeem",
      "outputs": [],
      "stateMutability": "nonpayable",
      "type": "function"
    },
    {
      "inputs": [],
      "name": "renounceOwnership",
      "outputs": [],
      "stateMutability": "nonpayable",
      "type": "function"
    },
    {
      "inputs": [],
      "name": "setFailed",
      "outputs": [],
      "stateMutability": "nonpayable",
      "type": "function"
    },
    {
      "inputs": [],
      "name": "setPassed",
      "outputs": [],
      "stateMutability": "nonpayable",
      "type": "function"
    },
    {
      "inputs": [],
      "name": "setPending",
      "outputs": [],
      "stateMutability": "nonpayable",
      "type": "function"
    },
    {
      "inputs": [],
      "name": "staking",
      "outputs": [
        {
          "internalType": "contract IStaking",
          "name": "",
          "type": "address"
        }
      ],
      "stateMutability": "view",
      "type": "function"
    },
    {
      "inputs": [],
      "name": "state",
      "outputs": [
        {
          "internalType": "enum Escrow.State",
          "name": "",
          "type": "uint8"
        }
      ],
      "stateMutability": "view",
      "type": "function"
    },
    {
      "inputs": [],
      "name": "tenderToken",
      "outputs": [
        {
          "internalType": "contract IERC20",
          "name": "",
          "type": "address"
        }
      ],
      "stateMutability": "view",
      "type": "function"
    },
    {
      "inputs": [],
      "name": "totalDeposits",
      "outputs": [
        {
          "internalType": "uint256",
          "name": "",
          "type": "uint256"
        }
      ],
      "stateMutability": "view",
      "type": "function"
    },
    {
      "inputs": [],
      "name": "totalRedemptions",
      "outputs": [
        {
          "internalType": "uint256",
          "name": "",
          "type": "uint256"
        }
      ],
      "stateMutability": "view",
      "type": "function"
    },
    {
      "inputs": [
        {
          "internalType": "address",
          "name": "newOwner",
          "type": "address"
        }
      ],
      "name": "transferOwnership",
      "outputs": [],
      "stateMutability": "nonpayable",
      "type": "function"
    },
    {
      "inputs": [],
      "name": "unstakedTenderToken",
      "outputs": [
        {
          "internalType": "contract IERC20",
          "name": "",
          "type": "address"
        }
      ],
      "stateMutability": "view",
      "type": "function"
    },
    {
      "inputs": [],
      "name": "withdraw",
      "outputs": [],
      "stateMutability": "nonpayable",
      "type": "function"
    },
    {
      "inputs": [],
      "name": "wsTenderToken",
      "outputs": [
        {
          "internalType": "contract IwsTT",
          "name": "",
          "type": "address"
        }
      ],
      "stateMutability": "view",
      "type": "function"
    }
  ],
  "transactionHash": "0xa6352a4f65bc9293b09b16e7a682d617a7e49b92c6a80ea90f5b9b68506c2f55",
  "args": [
    [
      "0x5ee644AE1aA7D8DA5697A1435a8CEC5a110875A8",
      "0x313987763809Fa69E02744aaA817A4A6909CBd73",
      "0xF4a012D3384646F5E1d1F41b2Af6E6cEE40E0e97",
      "0x50B3e0676E153Addf7983d5AE755d356972FaD4C"
    ],
    [
      "0xDF28F23a2A6ddB46cd59420dE6c0313aC95A194C",
      "0x74BbDF5841551dae205bFE4BA9dAc0C78Ef993C4"
    ],
    "0x2c97A5542135b6cE80Cd6Af94015Ac3E3F3B650a",
    "0x58318fEeB32DBB17324D67989AA01EFc2f722f71",
    "50000000000000000000",
    0,
    "55000000000000000000",
    "45000000000000000000",
    "123612225892886635748159",
    "1000000000"
  ],
  "numDeployments": 3,
  "solcInputHash": "6ab5c29c46b4b4d620a4340d6dfb2724",
  "bytecode": "0x6101c06040523480156200001257600080fd5b506040516200241b3803806200241b8339810160408190526200003591620006d2565b6200004033620004fd565b60006001600160a01b03168a6000815181106200006157620000616200079d565b60200260200101516001600160a01b03161415620000b95760405162461bcd60e51b815260206004820152601060248201526f183c18103a32b73232b9103a37b5b2b760811b60448201526064015b60405180910390fd5b60006001600160a01b03168a600181518110620000da57620000da6200079d565b60200260200101516001600160a01b031614156200013b5760405162461bcd60e51b815260206004820152601960248201527f30783020756e7374616b65642074656e64657220746f6b656e000000000000006044820152606401620000b0565b60006001600160a01b03168a6002815181106200015c576200015c6200079d565b60200260200101516001600160a01b03161415620001a75760405162461bcd60e51b81526020600482015260076024820152663078302044414960c81b6044820152606401620000b0565b60006001600160a01b03168a600381518110620001c857620001c86200079d565b60200260200101516001600160a01b03161415620002145760405162461bcd60e51b815260206004820152600860248201526730783020674f484d60c01b6044820152606401620000b0565b60006001600160a01b0316896000815181106200023557620002356200079d565b60200260200101516001600160a01b03161415620002965760405162461bcd60e51b815260206004820152601f60248201527f3078302077726170706564207374616b65642074656e64657220746f6b656e006044820152606401620000b0565b88600081518110620002ac57620002ac6200079d565b60200260200101516001600160a01b03166318160ddd6040518163ffffffff1660e01b8152600401602060405180830381865afa158015620002f2573d6000803e3d6000fd5b505050506040513d601f19601f82011682018060405250810190620003189190620007b3565b821115620003695760405162461bcd60e51b815260206004820152601360248201527f6d6178206465706f73697420746f6f20626967000000000000000000000000006044820152606401620000b0565b6101a082905289518a906000906200038557620003856200079d565b60200260200101516001600160a01b03166080816001600160a01b03168152505089600181518110620003bc57620003bc6200079d565b60200260200101516001600160a01b031660a0816001600160a01b03168152505089600281518110620003f357620003f36200079d565b60200260200101516001600160a01b031660c0816001600160a01b031681525050896003815181106200042a576200042a6200079d565b60200260200101516001600160a01b031660e0816001600160a01b031681525050886000815181106200046157620004616200079d565b60200260200101516001600160a01b0316610100816001600160a01b031681525050886001815181106200049957620004996200079d565b60209081029190910101516001600160a01b0390811661012052888116610140528716610160526001869055600285905560038490556004839055620004e881670de0b6b3a7640000620007cd565b6101805250620007f098505050505050505050565b600080546001600160a01b038381166001600160a01b0319831681178455604051919092169283917f8be0079c531659141344cd1fd0a4f28419497f9722a3daafe3b4186f6b6457e09190a35050565b634e487b7160e01b600052604160045260246000fd5b604051601f8201601f191681016001600160401b03811182821017156200058e576200058e6200054d565b604052919050565b60006001600160401b03821115620005b257620005b26200054d565b5060051b60200190565b6001600160a01b0381168114620005d257600080fd5b50565b600082601f830112620005e757600080fd5b8151602062000600620005fa8362000596565b62000563565b82815260059290921b840181019181810190868411156200062057600080fd5b8286015b84811015620006485780516200063a81620005bc565b835291830191830162000624565b509695505050505050565b80516200066081620005bc565b919050565b600082601f8301126200067757600080fd5b815160206200068a620005fa8362000596565b82815260059290921b84018101918181019086841115620006aa57600080fd5b8286015b8481101562000648578051620006c481620005bc565b8352918301918301620006ae565b6000806000806000806000806000806101408b8d031215620006f357600080fd5b8a516001600160401b03808211156200070b57600080fd5b620007198e838f01620005d5565b9b5060208d01519150808211156200073057600080fd5b506200073f8d828e0162000665565b9950506200075060408c0162000653565b97506200076060608c0162000653565b965060808b0151955060a08b0151945060c08b0151935060e08b015192506101008b015191506101208b015190509295989b9194979a5092959850565b634e487b7160e01b600052603260045260246000fd5b600060208284031215620007c657600080fd5b5051919050565b600082620007eb57634e487b7160e01b600052601260045260246000fd5b500490565b60805160a05160c05160e05161010051610120516101405161016051610180516101a051611b2a620008f1600039600081816102a9015261089001526000818161107901526111740152600061127f015260006106a001526000818161031a01528181610d0f01528181610d500152610ddb0152600081816101e401528181610629015281816107f401528181610b3001528181610bdb01528181610c1601528181610e700152610eab01526000818161022801526111f40152600081816103fa01526110f90152600081816102f301528181610cb80152610ced01526000818161028201528181610b8401528181610bb90152610e4c0152611b2a6000f3fe608060405234801561001057600080fd5b50600436106101da5760003560e01c80637d88209711610104578063be040fb0116100a2578063ed9c080911610071578063ed9c0809146103da578063f2fde38b146103e2578063f4b9fa75146103f5578063fc7e286d1461041c57600080fd5b8063be040fb0146103a7578063c19d93fb146103af578063e21cef39146103c9578063e3d6ae3d146103d157600080fd5b80638da5cb5b116100de5780638da5cb5b14610371578063a2649ab414610382578063b62f1cb31461038b578063b881b3571461039457600080fd5b80637d8820971461034c57806381064b25146103555780638980f11f1461035e57600080fd5b8063354d594b1161017c5780634b8e72301161014b5780634b8e7230146102ee5780634cf088d9146103155780636b2923a51461033c578063715018a61461034457600080fd5b8063354d594b146102a4578063396d3781146102cb5780633ccfd60b146102d357806340bda99c146102db57600080fd5b806318404196116101b857806318404196146102545780631b0b32581461026b57806327927390146102745780632d8221601461027d57600080fd5b80630552e978146101df5780630cd3058514610223578063146901db1461024a575b600080fd5b6102067f000000000000000000000000000000000000000000000000000000000000000081565b6040516001600160a01b0390911681526020015b60405180910390f35b6102067f000000000000000000000000000000000000000000000000000000000000000081565b610252610479565b005b61025d60015481565b60405190815260200161021a565b61025d60095481565b61025d60035481565b6102067f000000000000000000000000000000000000000000000000000000000000000081565b61025d7f000000000000000000000000000000000000000000000000000000000000000081565b6102526104c2565b610252610500565b61025d6102e93660046117d1565b610654565b6102067f000000000000000000000000000000000000000000000000000000000000000081565b6102067f000000000000000000000000000000000000000000000000000000000000000081565b61025d61069b565b61025261072b565b61025d60075481565b61025d60085481565b61025261036c366004611826565b610761565b6000546001600160a01b0316610206565b61025d600a5481565b61025d60025481565b6102526103a2366004611850565b6107a3565b610252610f2a565b6005546103bc9060ff1681565b60405161021a91906118a5565b61025261123c565b61025d60045481565b61025d61127a565b6102526103f03660046118bf565b6112db565b6102067f000000000000000000000000000000000000000000000000000000000000000081565b61046761042a3660046118bf565b60066020526000908152604090208054600182015460028301546003909301549192909160ff808216916101008104821691620100009091041686565b60405161021a969594939291906118da565b6000546001600160a01b031633146104ac5760405162461bcd60e51b81526004016104a39061191e565b60405180910390fd5b600580546001919060ff191682805b0217905550565b6000546001600160a01b031633146104ec5760405162461bcd60e51b81526004016104a39061191e565b600580546000919060ff19166001836104bb565b600160055460ff1660028111156105195761051961188f565b146105375760405163baf3f0f760e01b815260040160405180910390fd5b336000908152600660209081526040808320815160c0810183528154815260018083015494820194909452600282015492810192909252600381015491929091606084019160ff909116908111156105915761059161188f565b60018111156105a2576105a261188f565b81526003919091015460ff61010082048116151560208401526201000090910416151560409091015280519091506105ed57604051636507689f60e01b815260040160405180910390fd5b33600090815260066020526040812081905581516007805491929091610614908490611969565b90915550508051610651906001600160a01b037f000000000000000000000000000000000000000000000000000000000000000016903390611373565b50565b6000808261066457600354610668565b6004545b90506106748486611980565b6106868267016345785d8a0000611980565b610690919061199f565b9150505b9392505050565b6000807f00000000000000000000000000000000000000000000000000000000000000006001600160a01b031663feaf968c6040518163ffffffff1660e01b815260040160a060405180830381865afa1580156106fc573d6000803e3d6000fd5b505050506040513d601f19601f8201168201806040525081019061072091906119db565b509195945050505050565b6000546001600160a01b031633146107555760405162461bcd60e51b81526004016104a39061191e565b61075f60006113d6565b565b6000546001600160a01b0316331461078b5760405162461bcd60e51b81526004016104a39061191e565b61079f6001600160a01b0383163383611373565b5050565b600160055460ff1660028111156107bc576107bc61188f565b14156107db5760405163baf3f0f760e01b815260040160405180910390fd5b604051631cfde70160e21b8152600481018490526000907f00000000000000000000000000000000000000000000000000000000000000006001600160a01b0316906373f79c0490602401602060405180830381865afa158015610843573d6000803e3d6000fd5b505050506040513d601f19601f820116820180604052508101906108679190611a2b565b90506000600283600281111561087f5761087f61188f565b1461088a578161088c565b845b90507f0000000000000000000000000000000000000000000000000000000000000000816007546108bd9190611a44565b11156108dc576040516366fef29360e11b815260040160405180910390fd5b336000908152600660209081526040808320815160c0810183528154815260018083015494820194909452600282015492810192909252600381015491929091606084019160ff909116908111156109365761093661188f565b60018111156109475761094761188f565b81526003919091015460ff6101008204811615156020840152620100009091041615156040909101528051909150158015906109a957508460018111156109905761099061188f565b816060015160018111156109a6576109a661188f565b14155b156109c7576040516310bccbb960e31b815260040160405180910390fd5b8051156109f85733600090815260066020526040812080548492906109ed908490611a44565b90915550610af19050565b6040518060c00160405280838152602001610a1161127a565b8152602001610a1e61069b565b8152602001866001811115610a3557610a3561188f565b815260006020820152604001600260055460ff166002811115610a5a57610a5a61188f565b149052336000908152600660209081526040918290208351815590830151600180830191909155918301516002820155606083015160038201805492939192909160ff19909116908381811115610ab357610ab361188f565b021790555060808201516003909101805460a0909301511515620100000262ff000019921515610100029290921662ffff0019909316929092171790555b8160076000828254610b039190611a44565b9091555060029050846002811115610b1d57610b1d61188f565b1415610b5d57610b586001600160a01b037f000000000000000000000000000000000000000000000000000000000000000016333089611426565b610f22565b6001846002811115610b7157610b7161188f565b1415610c9157610bac6001600160a01b037f000000000000000000000000000000000000000000000000000000000000000016333089611426565b610c006001600160a01b037f0000000000000000000000000000000000000000000000000000000000000000167f000000000000000000000000000000000000000000000000000000000000000088611464565b604051630ea598cb60e41b8152600481018790527f00000000000000000000000000000000000000000000000000000000000000006001600160a01b03169063ea598cb0906024016020604051808303816000875af1158015610c67573d6000803e3d6000fd5b505050506040513d601f19601f82011682018060405250810190610c8b9190611a2b565b50610f22565b6000846002811115610ca557610ca561188f565b1415610f2257610ce06001600160a01b037f000000000000000000000000000000000000000000000000000000000000000016333089611426565b610d346001600160a01b037f0000000000000000000000000000000000000000000000000000000000000000167f000000000000000000000000000000000000000000000000000000000000000088611464565b604051637acb775760e01b8152600481018790523060248201527f00000000000000000000000000000000000000000000000000000000000000006001600160a01b031690637acb7757906044016020604051808303816000875af1158015610da1573d6000803e3d6000fd5b505050506040513d601f19601f82011682018060405250810190610dc59190611a5c565b50604051630f41a04d60e11b81523060048201527f00000000000000000000000000000000000000000000000000000000000000006001600160a01b031690631e83409a90602401600060405180830381600087803b158015610e2757600080fd5b505af1158015610e3b573d6000803e3d6000fd5b50610e959250506001600160a01b037f00000000000000000000000000000000000000000000000000000000000000001690507f000000000000000000000000000000000000000000000000000000000000000088611464565b604051630ea598cb60e41b8152600481018790527f00000000000000000000000000000000000000000000000000000000000000006001600160a01b03169063ea598cb0906024016020604051808303816000875af1158015610efc573d6000803e3d6000fd5b505050506040513d601f19601f82011682018060405250810190610f209190611a2b565b505b505050505050565b336000908152600660209081526040808320815160c0810183528154815260018083015494820194909452600282015492810192909252600381015491929091606084019160ff90911690811115610f8457610f8461188f565b6001811115610f9557610f9561188f565b81526003919091015460ff6101008204811615156020840152620100009091041615156040909101529050600260055460ff166002811115610fd957610fd961188f565b14610ff75760405163baf3f0f760e01b815260040160405180910390fd5b80608001511561101a576040516306d3830f60e21b815260040160405180910390fd5b80516008805460009061102e908490611a44565b90915550600090508160600151600181111561104c5761104c61188f565b141561112d5760008160a0015161106557600154611069565b6002545b90506000670de0b6b3a7640000827f000000000000000000000000000000000000000000000000000000000000000085600001516110a79190611980565b6110b19190611980565b6110bb919061199f565b905080600960008282546110cf9190611a44565b9091555050336000818152600660205260409020600301805461ff001916610100179055611128907f00000000000000000000000000000000000000000000000000000000000000006001600160a01b03169083611373565b505050565b6001816060015160018111156111455761114561188f565b1415611223576000611164826020015183604001518460a00151610654565b90506000670de0b6b3a7640000827f000000000000000000000000000000000000000000000000000000000000000085600001516111a29190611980565b6111ac9190611980565b6111b6919061199f565b905080600a60008282546111ca9190611a44565b9091555050336000818152600660205260409020600301805461ff001916610100179055611128907f00000000000000000000000000000000000000000000000000000000000000006001600160a01b03169083611373565b60405163094fcf0160e41b815260040160405180910390fd5b6000546001600160a01b031633146112665760405162461bcd60e51b81526004016104a39061191e565b600580546002919060ff19166001836104bb565b6000807f00000000000000000000000000000000000000000000000000000000000000006001600160a01b031663feaf968c6040518163ffffffff1660e01b815260040160a060405180830381865afa1580156106fc573d6000803e3d6000fd5b6000546001600160a01b031633146113055760405162461bcd60e51b81526004016104a39061191e565b6001600160a01b03811661136a5760405162461bcd60e51b815260206004820152602660248201527f4f776e61626c653a206e6577206f776e657220697320746865207a65726f206160448201526564647265737360d01b60648201526084016104a3565b610651816113d6565b6040516001600160a01b03831660248201526044810182905261112890849063a9059cbb60e01b906064015b60408051601f198184030181529190526020810180516001600160e01b03166001600160e01b031990931692909217909152611579565b600080546001600160a01b038381166001600160a01b0319831681178455604051919092169283917f8be0079c531659141344cd1fd0a4f28419497f9722a3daafe3b4186f6b6457e09190a35050565b6040516001600160a01b038085166024830152831660448201526064810182905261145e9085906323b872dd60e01b9060840161139f565b50505050565b8015806114de5750604051636eb1769f60e11b81523060048201526001600160a01b03838116602483015284169063dd62ed3e90604401602060405180830381865afa1580156114b8573d6000803e3d6000fd5b505050506040513d601f19601f820116820180604052508101906114dc9190611a2b565b155b6115495760405162461bcd60e51b815260206004820152603660248201527f5361666545524332303a20617070726f76652066726f6d206e6f6e2d7a65726f60448201527520746f206e6f6e2d7a65726f20616c6c6f77616e636560501b60648201526084016104a3565b6040516001600160a01b03831660248201526044810182905261112890849063095ea7b360e01b9060640161139f565b60006115ce826040518060400160405280602081526020017f5361666545524332303a206c6f772d6c6576656c2063616c6c206661696c6564815250856001600160a01b031661164b9092919063ffffffff16565b80519091501561112857808060200190518101906115ec9190611a5c565b6111285760405162461bcd60e51b815260206004820152602a60248201527f5361666545524332303a204552433230206f7065726174696f6e20646964206e6044820152691bdd081cdd58d8d9595960b21b60648201526084016104a3565b606061165a8484600085611662565b949350505050565b6060824710156116c35760405162461bcd60e51b815260206004820152602660248201527f416464726573733a20696e73756666696369656e742062616c616e636520666f6044820152651c8818d85b1b60d21b60648201526084016104a3565b843b6117115760405162461bcd60e51b815260206004820152601d60248201527f416464726573733a2063616c6c20746f206e6f6e2d636f6e747261637400000060448201526064016104a3565b600080866001600160a01b0316858760405161172d9190611aa5565b60006040518083038185875af1925050503d806000811461176a576040519150601f19603f3d011682016040523d82523d6000602084013e61176f565b606091505b509150915061177f82828661178a565b979650505050505050565b60608315611799575081610694565b8251156117a95782518084602001fd5b8160405162461bcd60e51b81526004016104a39190611ac1565b801515811461065157600080fd5b6000806000606084860312156117e657600080fd5b833592506020840135915060408401356117ff816117c3565b809150509250925092565b80356001600160a01b038116811461182157600080fd5b919050565b6000806040838503121561183957600080fd5b6118428361180a565b946020939093013593505050565b60008060006060848603121561186557600080fd5b8335925060208401356002811061187b57600080fd5b91506040840135600381106117ff57600080fd5b634e487b7160e01b600052602160045260246000fd5b60208101600383106118b9576118b961188f565b91905290565b6000602082840312156118d157600080fd5b6106948261180a565b868152602081018690526040810185905260c08101600285106118ff576118ff61188f565b60608201949094529115156080830152151560a0909101529392505050565b6020808252818101527f4f776e61626c653a2063616c6c6572206973206e6f7420746865206f776e6572604082015260600190565b634e487b7160e01b600052601160045260246000fd5b60008282101561197b5761197b611953565b500390565b600081600019048311821515161561199a5761199a611953565b500290565b6000826119bc57634e487b7160e01b600052601260045260246000fd5b500490565b805169ffffffffffffffffffff8116811461182157600080fd5b600080600080600060a086880312156119f357600080fd5b6119fc866119c1565b9450602086015193506040860151925060608601519150611a1f608087016119c1565b90509295509295909350565b600060208284031215611a3d57600080fd5b5051919050565b60008219821115611a5757611a57611953565b500190565b600060208284031215611a6e57600080fd5b8151610694816117c3565b60005b83811015611a94578181015183820152602001611a7c565b8381111561145e5750506000910152565b60008251611ab7818460208701611a79565b9190910192915050565b6020815260008251806020840152611ae0816040850160208701611a79565b601f01601f1916919091016040019291505056fea26469706673582212208aae0dd394a72fa2157b6720bbb639c30e3fc6671f20416fb6381bf69d8ffe9864736f6c634300080a0033",
  "devdoc": {
    "kind": "dev",
    "methods": {
      "deposit(uint256,uint8,uint8)": {
        "details": "tenderToken, unstaked tenderToken, or wrapped tenderTokens should be  approved for _amount before calling this",
        "params": {
          "_amount": "the about of tender tokens to deposit (9 decimals)",
          "_choice": "the redemption choice (see: RedemptionChoice)",
          "_depositToken": "0 - unstaked, 1 - staked, 2 - wrapped"
        }
      },
      "getGohmExchangeRate(uint256,uint256,bool)": {
        "details": "1e17 is to compensate for Chainlink oracle decimals of 9 for _index and 8 for _ohmPrice"
      },
      "getLatestOHMIndex()": {
        "returns": {
          "_0": "most recent OHM index in 9 decimals from Chainlink"
        }
      },
      "getLatestOHMPrice()": {
        "returns": {
          "_0": "most recent OHM price in 8 decimals from Chainlink"
        }
      },
      "owner()": {
        "details": "Returns the address of the current owner."
      },
      "recoverERC20(address,uint256)": {
        "params": {
          "_amount": "the amount of `_token` to recover",
          "_token": "the token's address"
        }
      },
      "redeem()": {
        "details": "Since the target token is in 9 decimals"
      },
      "renounceOwnership()": {
        "details": "Leaves the contract without owner. It will not be possible to call `onlyOwner` functions anymore. Can only be called by the current owner. NOTE: Renouncing ownership will leave the contract without an owner, thereby removing any functionality that is only available to the owner."
      },
      "transferOwnership(address)": {
        "details": "Transfers ownership of the contract to a new account (`newOwner`). Can only be called by the current owner."
      }
    },
    "version": 1
  },
  "userdoc": {
    "kind": "user",
    "methods": {
      "daiExchangeRate()": {
        "notice": "DAI per tender token if depositing BEFORE decision (18 decimals)"
      },
      "daiLaggardExchangeRate()": {
        "notice": "DAI per tender token if depositing AFTER decision (18 decimals)"
      },
      "deposit(uint256,uint8,uint8)": {
        "notice": "deposits tender tokens. Includes the desired redemption currency if the takeover bid succeeds. Locks in the price and index of gOHM at time of deposit. Subsequent deposits can be made, but the must include the same redemption choice as before. Will do the necessary steps to stake and wrap tokens. - Depositing wrapped tokens just transfers - Depositing staked tokens will transfer then wrap - Depositing unstaked tokens will transfer, stake, then wrap"
      },
      "getGohmExchangeRate(uint256,uint256,bool)": {
        "notice": "Returns what gOHM amount represents the tender offer exchange rate"
      },
      "getLatestOHMIndex()": {
        "notice": "Gets lates OHM index from Chainlink Oracle"
      },
      "getLatestOHMPrice()": {
        "notice": "Gets lates OHM price from Chainlink Oracle"
      },
      "gohmExchangeRate()": {
        "notice": "gOHM per tender token if depositing BEFORE decision (18 decimals)"
      },
      "gohmLaggardExchangeRate()": {
        "notice": "gOHM per tender token if depositing AFTER decision (18 decimals)"
      },
      "recoverERC20(address,uint256)": {
        "notice": "allows owner to withdraw arbitratry ERC20 tokens to msg.sender. Must be called by the owner"
      },
      "redeem()": {
        "notice": "redeems the tender tokens for the depositors chosen currency"
      },
      "setFailed()": {
        "notice": "set takeover state to failed. Allows depositors to withdraw"
      },
      "setPassed()": {
        "notice": "set the takeover state to passed. Allows depositors to redeem"
      },
      "setPending()": {
        "notice": "set the takeover state back to pending. Useful on testnets"
      },
      "withdraw()": {
        "notice": "withdraw all tender tokens after a failed takeover"
      }
    },
    "version": 1
  },
  "storageLayout": {
    "storage": [
      {
        "astId": 53,
        "contract": "contracts/Escrow.sol:Escrow",
        "label": "_owner",
        "offset": 0,
        "slot": "0",
        "type": "t_address"
      },
      {
        "astId": 1405,
        "contract": "contracts/Escrow.sol:Escrow",
        "label": "daiExchangeRate",
        "offset": 0,
        "slot": "1",
        "type": "t_uint256"
      },
      {
        "astId": 1408,
        "contract": "contracts/Escrow.sol:Escrow",
        "label": "daiLaggardExchangeRate",
        "offset": 0,
        "slot": "2",
        "type": "t_uint256"
      },
      {
        "astId": 1411,
        "contract": "contracts/Escrow.sol:Escrow",
        "label": "gohmExchangeRate",
        "offset": 0,
        "slot": "3",
        "type": "t_uint256"
      },
      {
        "astId": 1414,
        "contract": "contracts/Escrow.sol:Escrow",
        "label": "gohmLaggardExchangeRate",
        "offset": 0,
        "slot": "4",
        "type": "t_uint256"
      },
      {
        "astId": 1424,
        "contract": "contracts/Escrow.sol:Escrow",
        "label": "state",
        "offset": 0,
        "slot": "5",
        "type": "t_enum(State)1421"
      },
      {
        "astId": 1450,
        "contract": "contracts/Escrow.sol:Escrow",
        "label": "deposits",
        "offset": 0,
        "slot": "6",
        "type": "t_mapping(t_address,t_struct(Deposit)1445_storage)"
      },
      {
        "astId": 1452,
        "contract": "contracts/Escrow.sol:Escrow",
        "label": "totalDeposits",
        "offset": 0,
        "slot": "7",
        "type": "t_uint256"
      },
      {
        "astId": 1456,
        "contract": "contracts/Escrow.sol:Escrow",
        "label": "totalRedemptions",
        "offset": 0,
        "slot": "8",
        "type": "t_uint256"
      },
      {
        "astId": 1458,
        "contract": "contracts/Escrow.sol:Escrow",
        "label": "daiDistributed",
        "offset": 0,
        "slot": "9",
        "type": "t_uint256"
      },
      {
        "astId": 1460,
        "contract": "contracts/Escrow.sol:Escrow",
        "label": "gOHMDistributed",
        "offset": 0,
        "slot": "10",
        "type": "t_uint256"
      }
    ],
    "types": {
      "t_address": {
        "encoding": "inplace",
        "label": "address",
        "numberOfBytes": "20"
      },
      "t_bool": {
        "encoding": "inplace",
        "label": "bool",
        "numberOfBytes": "1"
      },
      "t_enum(RedemptionChoice)1427": {
        "encoding": "inplace",
        "label": "enum Escrow.RedemptionChoice",
        "numberOfBytes": "1"
      },
      "t_enum(State)1421": {
        "encoding": "inplace",
        "label": "enum Escrow.State",
        "numberOfBytes": "1"
      },
      "t_mapping(t_address,t_struct(Deposit)1445_storage)": {
        "encoding": "mapping",
        "key": "t_address",
        "label": "mapping(address => struct Escrow.Deposit)",
        "numberOfBytes": "32",
        "value": "t_struct(Deposit)1445_storage"
      },
      "t_struct(Deposit)1445_storage": {
        "encoding": "inplace",
        "label": "struct Escrow.Deposit",
        "members": [
          {
            "astId": 1433,
            "contract": "contracts/Escrow.sol:Escrow",
            "label": "amount",
            "offset": 0,
            "slot": "0",
            "type": "t_uint256"
          },
          {
            "astId": 1435,
            "contract": "contracts/Escrow.sol:Escrow",
            "label": "index",
            "offset": 0,
            "slot": "1",
            "type": "t_uint256"
          },
          {
            "astId": 1437,
            "contract": "contracts/Escrow.sol:Escrow",
            "label": "ohmPrice",
            "offset": 0,
            "slot": "2",
            "type": "t_uint256"
          },
          {
            "astId": 1440,
            "contract": "contracts/Escrow.sol:Escrow",
            "label": "choice",
            "offset": 0,
            "slot": "3",
            "type": "t_enum(RedemptionChoice)1427"
          },
          {
            "astId": 1442,
            "contract": "contracts/Escrow.sol:Escrow",
            "label": "didRedeem",
            "offset": 1,
            "slot": "3",
            "type": "t_bool"
          },
          {
            "astId": 1444,
            "contract": "contracts/Escrow.sol:Escrow",
            "label": "isLaggard",
            "offset": 2,
            "slot": "3",
            "type": "t_bool"
          }
        ],
        "numberOfBytes": "128"
      },
      "t_uint256": {
        "encoding": "inplace",
        "label": "uint256",
        "numberOfBytes": "32"
      }
    }
  }
}