{
  "contractName": "CurveLpTokenPriceOracle",
  "abi": [
    {
      "inputs": [
        {
          "internalType": "address",
          "name": "",
          "type": "address"
        }
      ],
      "name": "poolOf",
      "outputs": [
        {
          "internalType": "address",
          "name": "",
          "type": "address"
        }
      ],
      "stateMutability": "view",
      "type": "function"
    },
    {
      "inputs": [],
      "name": "registry",
      "outputs": [
        {
          "internalType": "contract ICurveRegistry",
          "name": "",
          "type": "address"
        }
      ],
      "stateMutability": "view",
      "type": "function"
    },
    {
      "inputs": [
        {
          "internalType": "address",
          "name": "",
          "type": "address"
        },
        {
          "internalType": "uint256",
          "name": "",
          "type": "uint256"
        }
      ],
      "name": "underlyingTokens",
      "outputs": [
        {
          "internalType": "address",
          "name": "",
          "type": "address"
        }
      ],
      "stateMutability": "view",
      "type": "function"
    },
    {
      "inputs": [
        {
          "internalType": "address",
          "name": "underlying",
          "type": "address"
        }
      ],
      "name": "price",
      "outputs": [
        {
          "internalType": "uint256",
          "name": "",
          "type": "uint256"
        }
      ],
      "stateMutability": "view",
      "type": "function"
    },
    {
      "inputs": [
        {
          "internalType": "contract CToken",
          "name": "cToken",
          "type": "address"
        }
      ],
      "name": "getUnderlyingPrice",
      "outputs": [
        {
          "internalType": "uint256",
          "name": "",
          "type": "uint256"
        }
      ],
      "stateMutability": "view",
      "type": "function"
    },
    {
      "inputs": [
        {
          "internalType": "address",
          "name": "lpToken",
          "type": "address"
        }
      ],
      "name": "registerPool",
      "outputs": [],
      "stateMutability": "nonpayable",
      "type": "function"
    }
  ],
  "bytecode": "0x608060405234801561001057600080fd5b50610a73806100206000396000f3fe608060405234801561001057600080fd5b50600436106100625760003560e01c806301eadec4146100675780637b103999146100af578063988b1fa7146100b7578063abd90846146100dd578063aea9107814610105578063fc57d4df1461013d575b600080fd5b6100936004803603604081101561007d57600080fd5b506001600160a01b038135169060200135610163565b604080516001600160a01b039092168252519081900360200190f35b610093610198565b610093600480360360208110156100cd57600080fd5b50356001600160a01b03166101b0565b610103600480360360208110156100f357600080fd5b50356001600160a01b03166101cb565b005b61012b6004803603602081101561011b57600080fd5b50356001600160a01b03166104b7565b60408051918252519081900360200190f35b61012b6004803603602081101561015357600080fd5b50356001600160a01b03166104c8565b6000602052816000526040600020818154811061017c57fe5b6000918252602090912001546001600160a01b03169150829050565b737d86446ddb609ed0f5f8684acf30380a356b2b4c81565b6001602052600090815260409020546001600160a01b031681565b6001600160a01b038082166000908152600160205260409020541680156102235760405162461bcd60e51b8152600401808060200182810382526024815260200180610a1a6024913960400191505060405180910390fd5b6040805163bdf475c360e01b81526001600160a01b03841660048201529051737d86446ddb609ed0f5f8684acf30380a356b2b4c9163bdf475c3916024808301926020929190829003018186803b15801561027d57600080fd5b505afa158015610291573d6000803e3d6000fd5b505050506040513d60208110156102a757600080fd5b505190506001600160a01b0381166102f05760405162461bcd60e51b81526004018080602001828103825260448152602001806109d66044913960600191505060405180910390fd5b6001600160a01b03828116600090815260016020908152604080832080546001600160a01b0319169486169485179055805163940494f160e01b81526004810194909452519192737d86446ddb609ed0f5f8684acf30380a356b2b4c9263940494f192602480840193919291829003018186803b15801561037057600080fd5b505afa158015610384573d6000803e3d6000fd5b505050506040513d602081101561039a57600080fd5b505190506103a661096d565b60408051639ac90d3d60e01b81526001600160a01b03851660048201529051737d86446ddb609ed0f5f8684acf30380a356b2b4c91639ac90d3d91602480830192610100929190829003018186803b15801561040157600080fd5b505afa158015610415573d6000803e3d6000fd5b505050506040513d601f19601f8201168201806040525061010081101561043b57600080fd5b50905060005b828110156104b0576001600160a01b038516600090815260208190526040902082826008811061046d57fe5b6020908102919091015182546001808201855560009485529290932090920180546001600160a01b0319166001600160a01b039093169290921790915501610441565b5050505050565b60006104c2826105d1565b92915050565b600080826001600160a01b0316636f307dc36040518163ffffffff1660e01b815260040160206040518083038186803b15801561050457600080fd5b505afa158015610518573d6000803e3d6000fd5b505050506040513d602081101561052e57600080fd5b50516040805163313ce56760e01b815290519192506105ca916001600160a01b0384169163313ce567916004808301926020929190829003018186803b15801561057757600080fd5b505afa15801561058b573d6000803e3d6000fd5b505050506040513d60208110156105a157600080fd5b505160ff16600a0a6105c4670de0b6b3a76400006105be856105d1565b90610835565b9061088e565b9392505050565b6001600160a01b0380821660009081526001602052604081205490911680610640576040805162461bcd60e51b815260206004820152601b60248201527f4c5020746f6b656e206973206e6f7420726567697374657265642e0000000000604482015290519081900360640190fd5b6001600160a01b038316600090815260208181526040918290208054835181840281018401909452808452606093928301828280156106a857602002820191906000526020600020905b81546001600160a01b0316815260019091019060200180831161068a575b5050835193945060001993925060009150505b8181101561076e5760008482815181106106d157fe5b602002602001015190506000336001600160a01b031663aea91078836040518263ffffffff1660e01b815260040180826001600160a01b0316815260200191505060206040518083038186803b15801561072a57600080fd5b505afa15801561073e573d6000803e3d6000fd5b505050506040513d602081101561075457600080fd5b5051905084811015610764578094505b50506001016106bb565b506000198214156107b05760405162461bcd60e51b815260040180806020018281038252602881526020018061098d6028913960400191505060405180910390fd5b61082b670de0b6b3a76400006105c4866001600160a01b031663bb7b8b806040518163ffffffff1660e01b815260040160206040518083038186803b1580156107f857600080fd5b505afa15801561080c573d6000803e3d6000fd5b505050506040513d602081101561082257600080fd5b50518590610835565b9695505050505050565b600082610844575060006104c2565b8282028284828161085157fe5b04146105ca5760405162461bcd60e51b81526004018080602001828103825260218152602001806109b56021913960400191505060405180910390fd5b60006105ca83836040518060400160405280601a81526020017f536166654d6174683a206469766973696f6e206279207a65726f000000000000815250600081836109575760405162461bcd60e51b81526004018080602001828103825283818151815260200191508051906020019080838360005b8381101561091c578181015183820152602001610904565b50505050905090810190601f1680156109495780820380516001836020036101000a031916815260200191505b509250505060405180910390fd5b50600083858161096357fe5b0495945050505050565b604051806101000160405280600890602082028036833750919291505056fe4e6f206d696e696d756d20756e6465726c79696e6720746f6b656e20707269636520666f756e642e536166654d6174683a206d756c7469706c69636174696f6e206f766572666c6f774e6f20636f72726573706f6e64696e6720706f6f6c20666f756e6420666f722074686973204c5020746f6b656e20696e207468652043757276652072656769737472792e54686973204c5020746f6b656e20697320616c726561647920726567697374657265642ea2646970667358221220be984d6c7d5eb53d2be72274d782de9aad54b4ccf5e8ac1691ac00197e9cbeb664736f6c634300060c0033",
  "immutableReferences": {},
  "source": "pragma solidity 0.6.12;\r\n\r\nimport \"@openzeppelin/contracts-upgradeable/math/SafeMathUpgradeable.sol\";\r\nimport \"@openzeppelin/contracts-upgradeable/token/ERC20/ERC20Upgradeable.sol\";\r\n\r\nimport \"../external/compound/PriceOracle.sol\";\r\nimport \"../external/compound/CToken.sol\";\r\nimport \"../external/compound/CErc20.sol\";\r\n\r\nimport \"../external/curve/ICurveRegistry.sol\";\r\nimport \"../external/curve/ICurvePool.sol\";\r\n\r\nimport \"./BasePriceOracle.sol\";\r\n\r\n/**\r\n * @title CurveLpTokenPriceOracle\r\n * @author David Lucid <david@rari.capital> (https://github.com/davidlucid)\r\n * @notice CurveLpTokenPriceOracle is a price oracle for Curve LP tokens.\r\n * @dev Implements the `PriceOracle` interface used by Fuse pools (and Compound v2).\r\n */\r\ncontract CurveLpTokenPriceOracle is PriceOracle {\r\n    using SafeMathUpgradeable for uint256;\r\n\r\n    /**\r\n     * @notice Get the LP token price price for an underlying token address.\r\n     * @param underlying The underlying token address for which to get the price (set to zero address for ETH).\r\n     * @return Price denominated in ETH (scaled by 1e18).\r\n     */\r\n    function price(address underlying) external view returns (uint) {\r\n        return _price(underlying);\r\n    }\r\n\r\n    /**\r\n     * @notice Get the underlying price of a cToken.\r\n     * @dev Implements the PriceOracle interface for Fuse pools (and Compound v2).\r\n     * @param cToken The cToken address for price retrieval.\r\n     * @return Price denominated in ETH, with 18 decimals, for the given cToken address.\r\n     */\r\n    function getUnderlyingPrice(CToken cToken) external override view returns (uint) {\r\n        address underlying = CErc20(address(cToken)).underlying();\r\n        // Comptroller needs prices to be scaled by 1e(36 - decimals)\r\n        // Since `_price` returns prices scaled by 18 decimals, we must scale them by 1e(36 - 18 - decimals)\r\n        return _price(underlying).mul(1e18).div(10 ** uint256(ERC20Upgradeable(underlying).decimals()));\r\n    }\r\n\r\n    /**\r\n     * @dev Fetches the fair LP token/ETH price from Curve, with 18 decimals of precision.\r\n     */\r\n    function _price(address lpToken) internal view virtual returns (uint) {\r\n      address pool = poolOf[lpToken];\r\n      require(pool != address(0), \"LP token is not registered.\");\r\n      address[] memory tokens = underlyingTokens[lpToken];\r\n      uint256 minPx = uint256(-1);\r\n      uint256 n = tokens.length;\r\n\r\n      for (uint256 i = 0; i < n; i++) {\r\n          address ulToken = tokens[i];\r\n          uint256 tokenPx = BasePriceOracle(msg.sender).price(ulToken);\r\n          if (tokenPx < minPx) minPx = tokenPx;\r\n      }\r\n\r\n      require(minPx != uint256(-1), \"No minimum underlying token price found.\");      \r\n      return minPx.mul(ICurvePool(pool).get_virtual_price()).div(1e18); // Use min underlying token prices\r\n    }\r\n\r\n    /**\r\n     * @dev The Curve registry.\r\n     */\r\n    ICurveRegistry public constant registry = ICurveRegistry(0x7D86446dDb609eD0F5f8684AcF30380a356b2B4c);\r\n\r\n    /**\r\n     * @dev Maps Curve LP token addresses to underlying token addresses.\r\n     */\r\n    mapping(address => address[]) public underlyingTokens;\r\n\r\n    /**\r\n     * @dev Maps Curve LP token addresses to pool addresses.\r\n     */\r\n    mapping(address => address) public poolOf;\r\n\r\n    /**\r\n     * @dev Register the pool given LP token address and set the pool info.\r\n     * @param lpToken LP token to find the corresponding pool.\r\n     */\r\n    function registerPool(address lpToken) external {\r\n        address pool = poolOf[lpToken];\r\n        require(pool == address(0), \"This LP token is already registered.\");\r\n        pool = registry.get_pool_from_lp_token(lpToken);\r\n        require(pool != address(0), \"No corresponding pool found for this LP token in the Curve registry.\");\r\n        poolOf[lpToken] = pool;\r\n        uint n = registry.get_n_coins(pool);\r\n        address[8] memory tokens = registry.get_coins(pool);\r\n        for (uint256 i = 0; i < n; i++) underlyingTokens[lpToken].push(tokens[i]);\r\n    }\r\n}\r\n",
  "sourcePath": "C:/Users/david/Dropbox/Rari/v1/fuse-contracts/contracts/oracles/CurveLpTokenPriceOracle.sol",
  "compiler": {
    "name": "solc",
    "version": "0.6.12+commit.27d51765.Emscripten.clang"
  },
  "schemaVersion": "3.3.3",
  "updatedAt": "2021-03-09T04:23:29.142Z",
  "devdoc": {
    "author": "David Lucid <david@rari.capital> (https://github.com/davidlucid)",
    "details": "Implements the `PriceOracle` interface used by Fuse pools (and Compound v2).",
    "kind": "dev",
    "methods": {
      "getUnderlyingPrice(address)": {
        "details": "Implements the PriceOracle interface for Fuse pools (and Compound v2).",
        "params": {
          "cToken": "The cToken address for price retrieval."
        },
        "returns": {
          "_0": "Price denominated in ETH, with 18 decimals, for the given cToken address."
        }
      },
      "price(address)": {
        "params": {
          "underlying": "The underlying token address for which to get the price (set to zero address for ETH)."
        },
        "returns": {
          "_0": "Price denominated in ETH (scaled by 1e18)."
        }
      },
      "registerPool(address)": {
        "details": "Register the pool given LP token address and set the pool info.",
        "params": {
          "lpToken": "LP token to find the corresponding pool."
        }
      }
    },
    "stateVariables": {
      "poolOf": {
        "details": "Maps Curve LP token addresses to pool addresses."
      },
      "registry": {
        "details": "The Curve registry."
      },
      "underlyingTokens": {
        "details": "Maps Curve LP token addresses to underlying token addresses."
      }
    },
    "title": "CurveLpTokenPriceOracle",
    "version": 1
  },
  "userdoc": {
    "kind": "user",
    "methods": {
      "getUnderlyingPrice(address)": {
        "notice": "Get the underlying price of a cToken."
      },
      "price(address)": {
        "notice": "Get the LP token price price for an underlying token address."
      }
    },
    "notice": "CurveLpTokenPriceOracle is a price oracle for Curve LP tokens.",
    "version": 1
  }
}