{
  "contractName": "SynthetixPriceOracle",
  "abi": [
    {
      "inputs": [
        {
          "internalType": "contract CToken",
          "name": "cToken",
          "type": "address"
        }
      ],
      "name": "getUnderlyingPrice",
      "outputs": [
        {
          "internalType": "uint256",
          "name": "",
          "type": "uint256"
        }
      ],
      "stateMutability": "view",
      "type": "function"
    }
  ],
  "bytecode": "0x608060405234801561001057600080fd5b506105bf806100206000396000f3fe608060405234801561001057600080fd5b506004361061002b5760003560e01c8063fc57d4df14610030575b600080fd5b6100566004803603602081101561004657600080fd5b50356001600160a01b0316610068565b60408051918252519081900360200190f35b600080826001600160a01b0316636f307dc36040518163ffffffff1660e01b815260040160206040518083038186803b1580156100a457600080fd5b505afa1580156100b8573d6000803e3d6000fd5b505050506040513d60208110156100ce57600080fd5b50516040805163313ce56760e01b815290519192506000916001600160a01b0384169163313ce567916004808301926020929190829003018186803b15801561011657600080fd5b505afa15801561012a573d6000803e3d6000fd5b505050506040513d602081101561014057600080fd5b505160408051636a5c1cc960e11b8152905160ff909216600a0a92506001600160a01b0384169163d4b8399291600480820192602092909190829003018186803b15801561018d57600080fd5b505afa1580156101a1573d6000803e3d6000fd5b505050506040513d60208110156101b757600080fd5b50516040805163013cef3b60e21b815290519193506000916001600160a01b038516916304f3bcec916004808301926020929190829003018186803b1580156101ff57600080fd5b505afa158015610213573d6000803e3d6000fd5b505050506040513d602081101561022957600080fd5b50516040805163dacb2d0160e01b81526c45786368616e6765526174657360981b60048201908152602482019283526039604483018190526001600160a01b039094169363dacb2d0193919260640190610530823960400191505060206040518083038186803b15801561029c57600080fd5b505afa1580156102b0573d6000803e3d6000fd5b505050506040513d60208110156102c657600080fd5b810190808051906020019092919050505090506103e5826103df670de0b6b3a7640000846001600160a01b031663654a60ac886001600160a01b031663dbd06c856040518163ffffffff1660e01b815260040160206040518083038186803b15801561033157600080fd5b505afa158015610345573d6000803e3d6000fd5b505050506040513d602081101561035b57600080fd5b5051604080516001600160e01b031960e085901b1681526004810192909252602482018a90526208aa8960eb1b6044830152516064808301926020929190829003018186803b1580156103ad57600080fd5b505afa1580156103c1573d6000803e3d6000fd5b505050506040513d60208110156103d757600080fd5b5051906103ee565b90610450565b95945050505050565b6000826103fd5750600061044a565b8282028284828161040a57fe5b04146104475760405162461bcd60e51b81526004018080602001828103825260218152602001806105696021913960400191505060405180910390fd5b90505b92915050565b600061044783836040518060400160405280601a81526020017f536166654d6174683a206469766973696f6e206279207a65726f000000000000815250600081836105195760405162461bcd60e51b81526004018080602001828103825283818151815260200191508051906020019080838360005b838110156104de5781810151838201526020016104c6565b50505050905090810190601f16801561050b5780820380516001836020036101000a031916815260200191505b509250505060405180910390fd5b50600083858161052557fe5b049594505050505056fe4661696c656420746f206765742053796e74686574697827732045786368616e6765526174657320636f6e747261637420616464726573732e536166654d6174683a206d756c7469706c69636174696f6e206f766572666c6f77a264697066735822122068a8c40c60dca7c006749932a1593aacc226f4bc138ab0c6b9752450175cb68164736f6c634300060c0033",
  "immutableReferences": {},
  "source": "/**\r\n * COPYRIGHT © 2020 RARI CAPITAL, INC. ALL RIGHTS RESERVED.\r\n * No one is permitted to use the software for any purpose without the explicit permission of David Lucid of Rari Capital, Inc.\r\n * This license is liable to change at any time at the sole discretion of David Lucid of Rari Capital, Inc.\r\n */\r\n\r\npragma solidity 0.6.12;\r\n\r\nimport \"@openzeppelin/contracts-upgradeable/math/SafeMathUpgradeable.sol\";\r\nimport \"@openzeppelin/contracts-upgradeable/token/ERC20/ERC20Upgradeable.sol\";\r\n\r\nimport \"../external/compound/PriceOracle.sol\";\r\nimport \"../external/compound/CErc20.sol\";\r\n\r\nimport \"../external/synthetix/AddressResolver.sol\";\r\nimport \"../external/synthetix/ExchangeRates.sol\";\r\nimport \"../external/synthetix/ISynth.sol\";\r\nimport \"../external/synthetix/MixinResolver.sol\";\r\nimport \"../external/synthetix/Proxy.sol\";\r\n\r\n/**\r\n * @title SynthetixPriceOracle\r\n * @notice Returns prices for Synths from Synthetix's official `ExchangeRates` contract.\r\n * @dev Implements `PriceOracle`.\r\n * @author David Lucid <david@rari.capital> (https://github.com/davidlucid)\r\n */\r\ncontract SynthetixPriceOracle is PriceOracle {\r\n    using SafeMathUpgradeable for uint256;\r\n\r\n    /**\r\n     * @dev Returns the price in ETH of the token underlying `cToken` (implements `PriceOracle`).\r\n     */\r\n    function getUnderlyingPrice(CToken cToken) external override view returns (uint) {\r\n        address underlying = CErc20(address(cToken)).underlying();\r\n        uint256 baseUnit = 10 ** uint(ERC20Upgradeable(underlying).decimals());\r\n        underlying = Proxy(underlying).target(); // For some reason we have to use the logic contract instead of the proxy contract to get `resolver` and `currencyKey`\r\n        ExchangeRates exchangeRates = ExchangeRates(MixinResolver(underlying).resolver().requireAndGetAddress(\"ExchangeRates\", \"Failed to get Synthetix's ExchangeRates contract address.\"));\r\n        return exchangeRates.effectiveValue(ISynth(underlying).currencyKey(), baseUnit, \"ETH\").mul(1e18).div(baseUnit);\r\n    }\r\n}\r\n",
  "sourcePath": "C:/Users/david/Dropbox/Rari/v1/fuse-contracts/contracts/oracles/SynthetixPriceOracle.sol",
  "compiler": {
    "name": "solc",
    "version": "0.6.12+commit.27d51765.Emscripten.clang"
  },
  "schemaVersion": "3.3.3",
  "updatedAt": "2021-03-09T04:23:29.164Z",
  "devdoc": {
    "author": "David Lucid <david@rari.capital> (https://github.com/davidlucid)",
    "details": "Implements `PriceOracle`.",
    "kind": "dev",
    "methods": {
      "getUnderlyingPrice(address)": {
        "details": "Returns the price in ETH of the token underlying `cToken` (implements `PriceOracle`)."
      }
    },
    "title": "SynthetixPriceOracle",
    "version": 1
  },
  "userdoc": {
    "kind": "user",
    "methods": {},
    "notice": "Returns prices for Synths from Synthetix's official `ExchangeRates` contract.",
    "version": 1
  }
}