{
  "contractName": "UniswapLpTokenPriceOracle",
  "abi": [
    {
      "inputs": [
        {
          "internalType": "address",
          "name": "underlying",
          "type": "address"
        }
      ],
      "name": "price",
      "outputs": [
        {
          "internalType": "uint256",
          "name": "",
          "type": "uint256"
        }
      ],
      "stateMutability": "view",
      "type": "function"
    },
    {
      "inputs": [
        {
          "internalType": "contract CToken",
          "name": "cToken",
          "type": "address"
        }
      ],
      "name": "getUnderlyingPrice",
      "outputs": [
        {
          "internalType": "uint256",
          "name": "",
          "type": "uint256"
        }
      ],
      "stateMutability": "view",
      "type": "function"
    }
  ],
  "bytecode": "0x608060405234801561001057600080fd5b50610885806100206000396000f3fe608060405234801561001057600080fd5b50600436106100365760003560e01c8063aea910781461003b578063fc57d4df14610073575b600080fd5b6100616004803603602081101561005157600080fd5b50356001600160a01b0316610099565b60408051918252519081900360200190f35b6100616004803603602081101561008957600080fd5b50356001600160a01b03166100ac565b60006100a4826101b5565b90505b919050565b600080826001600160a01b0316636f307dc36040518163ffffffff1660e01b815260040160206040518083038186803b1580156100e857600080fd5b505afa1580156100fc573d6000803e3d6000fd5b505050506040513d602081101561011257600080fd5b50516040805163313ce56760e01b815290519192506101ae916001600160a01b0384169163313ce567916004808301926020929190829003018186803b15801561015b57600080fd5b505afa15801561016f573d6000803e3d6000fd5b505050506040513d602081101561018557600080fd5b505160ff16600a0a6101a8670de0b6b3a76400006101a2856101b5565b906105a2565b90610604565b9392505050565b6000808290506000816001600160a01b03166318160ddd6040518163ffffffff1660e01b815260040160206040518083038186803b1580156101f657600080fd5b505afa15801561020a573d6000803e3d6000fd5b505050506040513d602081101561022057600080fd5b5051905080610234576000925050506100a7565b600080836001600160a01b0316630902f1ac6040518163ffffffff1660e01b815260040160606040518083038186803b15801561027057600080fd5b505afa158015610284573d6000803e3d6000fd5b505050506040513d606081101561029a57600080fd5b50805160209182015160408051630dfe168160e01b815290516dffffffffffffffffffffffffffff93841696509290911693506000926001600160a01b03881692630dfe1681926004808201939291829003018186803b1580156102fd57600080fd5b505afa158015610311573d6000803e3d6000fd5b505050506040513d602081101561032757600080fd5b50516040805163d21220a760e01b815290519192506000916001600160a01b0388169163d21220a7916004808301926020929190829003018186803b15801561036f57600080fd5b505afa158015610383573d6000803e3d6000fd5b505050506040513d602081101561039957600080fd5b5051905060006001600160a01b03831673c02aaa39b223fe8d0a0e5c4f27ead9083c756cc2146104bf576104ba836001600160a01b031663313ce5676040518163ffffffff1660e01b815260040160206040518083038186803b1580156103ff57600080fd5b505afa158015610413573d6000803e3d6000fd5b505050506040513d602081101561042957600080fd5b5051604080516315d5220f60e31b81526001600160a01b0387166004820152905160ff909216600a0a916101a891670de0b6b3a764000091339163aea91078916024808301926020929190829003018186803b15801561048857600080fd5b505afa15801561049c573d6000803e3d6000fd5b505050506040513d60208110156104b257600080fd5b5051906105a2565b6104c9565b670de0b6b3a76400005b905060006001600160a01b03831673c02aaa39b223fe8d0a0e5c4f27ead9083c756cc2146105325761052d836001600160a01b031663313ce5676040518163ffffffff1660e01b815260040160206040518083038186803b1580156103ff57600080fd5b61053c565b670de0b6b3a76400005b9050600061055e886101a8600160701b6101a26105598c8c6105a2565b610646565b9050610593600160381b6101a861057485610646565b6101a2600160381b6101a86105888a610646565b6101a28960026105a2565b9b9a5050505050505050505050565b6000826105b1575060006105fe565b828202828482816105be57fe5b04146105fb5760405162461bcd60e51b815260040180806020018281038252602181526020018061082f6021913960400191505060405180910390fd5b90505b92915050565b60006105fb83836040518060400160405280601a81526020017f536166654d6174683a206469766973696f6e206279207a65726f00000000000081525061078c565b600081610655575060006100a7565b816001600160801b821061066e5760809190911c9060401b5b6801000000000000000082106106895760409190911c9060201b5b64010000000082106106a05760209190911c9060101b5b6201000082106106b55760109190911c9060081b5b61010082106106c95760089190911c9060041b5b601082106106dc5760049190911c9060021b5b600882106106e85760011b5b60018185816106f357fe5b048201901c9050600181858161070557fe5b048201901c9050600181858161071757fe5b048201901c9050600181858161072957fe5b048201901c9050600181858161073b57fe5b048201901c9050600181858161074d57fe5b048201901c9050600181858161075f57fe5b048201901c9050600081858161077157fe5b0490508082106107815780610783565b815b95945050505050565b600081836108185760405162461bcd60e51b81526004018080602001828103825283818151815260200191508051906020019080838360005b838110156107dd5781810151838201526020016107c5565b50505050905090810190601f16801561080a5780820380516001836020036101000a031916815260200191505b509250505060405180910390fd5b50600083858161082457fe5b049594505050505056fe536166654d6174683a206d756c7469706c69636174696f6e206f766572666c6f77a2646970667358221220793de2f5f64062a0c3b010b7218b59c560f765a1a53aff7846ccb5094b5d384464736f6c634300060c0033",
  "immutableReferences": {},
  "source": "/**\r\n * COPYRIGHT © 2020 RARI CAPITAL, INC. ALL RIGHTS RESERVED.\r\n * No one is permitted to use the software for any purpose without the explicit permission of David Lucid of Rari Capital, Inc.\r\n * This license is liable to change at any time at the sole discretion of David Lucid of Rari Capital, Inc.\r\n */\r\n\r\npragma solidity 0.6.12;\r\n\r\nimport \"@openzeppelin/contracts-upgradeable/math/SafeMathUpgradeable.sol\";\r\nimport \"@openzeppelin/contracts-upgradeable/token/ERC20/ERC20Upgradeable.sol\";\r\n\r\nimport \"../external/compound/PriceOracle.sol\";\r\nimport \"../external/compound/CToken.sol\";\r\nimport \"../external/compound/CErc20.sol\";\r\n\r\nimport \"../external/uniswap/IUniswapV2Pair.sol\";\r\n\r\nimport \"./BasePriceOracle.sol\";\r\n\r\n/**\r\n * @title UniswapLpTokenPriceOracle\r\n * @author David Lucid <david@rari.capital> (https://github.com/davidlucid)\r\n * @notice UniswapLpTokenPriceOracle is a price oracle for Uniswap (and SushiSwap) LP tokens.\r\n * @dev Implements the `PriceOracle` interface used by Fuse pools (and Compound v2).\r\n */\r\ncontract UniswapLpTokenPriceOracle is PriceOracle {\r\n    using SafeMathUpgradeable for uint256;\r\n\r\n    /**\r\n     * @dev WETH contract address.\r\n     */\r\n    address constant private WETH_ADDRESS = 0xC02aaA39b223FE8D0A0e5C4F27eAD9083C756Cc2;\r\n\r\n    /**\r\n     * @notice Get the LP token price price for an underlying token address.\r\n     * @param underlying The underlying token address for which to get the price (set to zero address for ETH)\r\n     * @return Price denominated in ETH (scaled by 1e18)\r\n     */\r\n    function price(address underlying) external view returns (uint) {\r\n        return _price(underlying);\r\n    }\r\n\r\n    /**\r\n     * @notice Get the underlying price of a cToken.\r\n     * @dev Implements the PriceOracle interface for Fuse pools (and Compound v2).\r\n     * @param cToken The cToken address for price retrieval\r\n     * @return Price denominated in ETH, with 18 decimals, for the given cToken address\r\n     */\r\n    function getUnderlyingPrice(CToken cToken) external override view returns (uint) {\r\n        address underlying = CErc20(address(cToken)).underlying();\r\n        // Comptroller needs prices to be scaled by 1e(36 - decimals)\r\n        // Since `_price` returns prices scaled by 18 decimals, we must scale them by 1e(36 - 18 - decimals)\r\n        return _price(underlying).mul(1e18).div(10 ** uint256(ERC20Upgradeable(underlying).decimals()));\r\n    }\r\n\r\n    /**\r\n     * @dev Fetches the fair LP token/ETH price from Uniswap, with 18 decimals of precision.\r\n     */\r\n    function _price(address token) internal view virtual returns (uint) {\r\n        IUniswapV2Pair pair = IUniswapV2Pair(token);\r\n        uint totalSupply = pair.totalSupply();\r\n        if (totalSupply == 0) return 0;\r\n        (uint reserve0, uint reserve1, ) = pair.getReserves();\r\n        address token0 = pair.token0();\r\n        address token1 = pair.token1();\r\n\r\n        // Get fair price of non-WETH token (underlying the pair) in terms of ETH\r\n        uint token0FairPrice = token0 == WETH_ADDRESS ? 1e18 : BasePriceOracle(msg.sender).price(token0).mul(1e18).div(10 ** uint256(ERC20Upgradeable(token0).decimals()));\r\n        uint token1FairPrice = token1 == WETH_ADDRESS ? 1e18 : BasePriceOracle(msg.sender).price(token1).mul(1e18).div(10 ** uint256(ERC20Upgradeable(token1).decimals()));\r\n\r\n        // Implementation from https://github.com/AlphaFinanceLab/homora-v2/blob/e643392d582c81f6695136971cff4b685dcd2859/contracts/oracle/UniswapV2Oracle.sol#L18\r\n        uint256 sqrtK = sqrt(reserve0.mul(reserve1)).mul(2 ** 112).div(totalSupply);\r\n        return sqrtK.mul(2).mul(sqrt(token0FairPrice)).div(2 ** 56).mul(sqrt(token1FairPrice)).div(2 ** 56);\r\n    }\r\n\r\n    /**\r\n     * @dev Fast square root function.\r\n     * Implementation from: https://github.com/Uniswap/uniswap-lib/commit/99f3f28770640ba1bb1ff460ac7c5292fb8291a0\r\n     * Original implementation: https://github.com/abdk-consulting/abdk-libraries-solidity/blob/master/ABDKMath64x64.sol#L687\r\n     */\r\n    function sqrt(uint x) internal pure returns (uint) {\r\n        if (x == 0) return 0;\r\n        uint xx = x;\r\n        uint r = 1;\r\n\r\n        if (xx >= 0x100000000000000000000000000000000) {\r\n            xx >>= 128;\r\n            r <<= 64;\r\n        }\r\n        if (xx >= 0x10000000000000000) {\r\n            xx >>= 64;\r\n            r <<= 32;\r\n        }\r\n        if (xx >= 0x100000000) {\r\n            xx >>= 32;\r\n            r <<= 16;\r\n        }\r\n        if (xx >= 0x10000) {\r\n            xx >>= 16;\r\n            r <<= 8;\r\n        }\r\n        if (xx >= 0x100) {\r\n            xx >>= 8;\r\n            r <<= 4;\r\n        }\r\n        if (xx >= 0x10) {\r\n            xx >>= 4;\r\n            r <<= 2;\r\n        }\r\n        if (xx >= 0x8) {\r\n            r <<= 1;\r\n        }\r\n\r\n        r = (r + x / r) >> 1;\r\n        r = (r + x / r) >> 1;\r\n        r = (r + x / r) >> 1;\r\n        r = (r + x / r) >> 1;\r\n        r = (r + x / r) >> 1;\r\n        r = (r + x / r) >> 1;\r\n        r = (r + x / r) >> 1; // Seven iterations should be enough\r\n        uint r1 = x / r;\r\n        return (r < r1 ? r : r1);\r\n    }\r\n}\r\n",
  "sourcePath": "C:/Users/david/Dropbox/Rari/v1/fuse-contracts/contracts/oracles/UniswapLpTokenPriceOracle.sol",
  "compiler": {
    "name": "solc",
    "version": "0.6.12+commit.27d51765.Emscripten.clang"
  },
  "schemaVersion": "3.3.3",
  "updatedAt": "2021-03-09T04:23:29.170Z",
  "devdoc": {
    "author": "David Lucid <david@rari.capital> (https://github.com/davidlucid)",
    "details": "Implements the `PriceOracle` interface used by Fuse pools (and Compound v2).",
    "kind": "dev",
    "methods": {
      "getUnderlyingPrice(address)": {
        "details": "Implements the PriceOracle interface for Fuse pools (and Compound v2).",
        "params": {
          "cToken": "The cToken address for price retrieval"
        },
        "returns": {
          "_0": "Price denominated in ETH, with 18 decimals, for the given cToken address"
        }
      },
      "price(address)": {
        "params": {
          "underlying": "The underlying token address for which to get the price (set to zero address for ETH)"
        },
        "returns": {
          "_0": "Price denominated in ETH (scaled by 1e18)"
        }
      }
    },
    "stateVariables": {
      "WETH_ADDRESS": {
        "details": "WETH contract address."
      }
    },
    "title": "UniswapLpTokenPriceOracle",
    "version": 1
  },
  "userdoc": {
    "kind": "user",
    "methods": {
      "getUnderlyingPrice(address)": {
        "notice": "Get the underlying price of a cToken."
      },
      "price(address)": {
        "notice": "Get the LP token price price for an underlying token address."
      }
    },
    "notice": "UniswapLpTokenPriceOracle is a price oracle for Uniswap (and SushiSwap) LP tokens.",
    "version": 1
  }
}