{
  "contractName": "UniswapV3TwapPriceOracleV2Factory",
  "abi": [
    {
      "inputs": [
        {
          "internalType": "address",
          "name": "_logic",
          "type": "address"
        }
      ],
      "stateMutability": "nonpayable",
      "type": "constructor"
    },
    {
      "inputs": [],
      "name": "WETH",
      "outputs": [
        {
          "internalType": "address",
          "name": "",
          "type": "address"
        }
      ],
      "stateMutability": "view",
      "type": "function",
      "constant": true
    },
    {
      "inputs": [],
      "name": "logic",
      "outputs": [
        {
          "internalType": "address",
          "name": "",
          "type": "address"
        }
      ],
      "stateMutability": "view",
      "type": "function",
      "constant": true
    },
    {
      "inputs": [
        {
          "internalType": "address",
          "name": "",
          "type": "address"
        },
        {
          "internalType": "uint256",
          "name": "",
          "type": "uint256"
        },
        {
          "internalType": "address",
          "name": "",
          "type": "address"
        }
      ],
      "name": "oracles",
      "outputs": [
        {
          "internalType": "contract UniswapV3TwapPriceOracleV2",
          "name": "",
          "type": "address"
        }
      ],
      "stateMutability": "view",
      "type": "function",
      "constant": true
    },
    {
      "inputs": [
        {
          "internalType": "address",
          "name": "uniswapV3Factory",
          "type": "address"
        },
        {
          "internalType": "uint24",
          "name": "feeTier",
          "type": "uint24"
        },
        {
          "internalType": "address",
          "name": "baseToken",
          "type": "address"
        }
      ],
      "name": "deploy",
      "outputs": [
        {
          "internalType": "address",
          "name": "",
          "type": "address"
        }
      ],
      "stateMutability": "nonpayable",
      "type": "function"
    }
  ],
  "bytecode": "0x60a060405234801561001057600080fd5b506040516104f13803806104f18339818101604052602081101561003357600080fd5b50516001600160a01b03811661007a5760405162461bcd60e51b81526004018080602001828103825260458152602001806104ac6045913960600191505060405180910390fd5b606081901b6001600160601b0319166080526001600160a01b03166103fb6100b1600039806101b552806102f852506103fb6000f3fe608060405234801561001057600080fd5b506004361061004c5760003560e01c80630e26154e1461005157806368c4a1ee146100a8578063ad5c4648146100de578063d7dfa0dd146100e6575b600080fd5b61008c6004803603606081101561006757600080fd5b506001600160a01b03813581169162ffffff60208201351691604090910135166100ee565b604080516001600160a01b039092168252519081900360200190f35b61008c600480360360608110156100be57600080fd5b506001600160a01b038135811691602081013591604090910135166102b3565b61008c6102de565b61008c6102f6565b60006001600160a01b0382166101165773c02aaa39b223fe8d0a0e5c4f27ead9083c756cc291505b6001600160a01b0380851660009081526020818152604080832062ffffff88168452825280832086851684529091529020541680156101565790506102ac565b60408051606087811b6bffffffffffffffffffffffff1990811660208085019190915260e889901b6001600160e81b03191660348501529187901b1660378301528251808303602b018152604b909201909252805191012060006101da7f00000000000000000000000000000000000000000000000000000000000000008361031a565b9050806001600160a01b031663d9d3d00a8888886040518463ffffffff1660e01b815260040180846001600160a01b031681526020018362ffffff168152602001826001600160a01b031681526020019350505050600060405180830381600087803b15801561024957600080fd5b505af115801561025d573d6000803e3d6000fd5b505050506001600160a01b0387811660009081526020818152604080832062ffffff8b16845282528083208985168452909152902080546001600160a01b031916918316919091179055925050505b9392505050565b600060208181529381526040808220855292815282812090935282529020546001600160a01b031681565b73c02aaa39b223fe8d0a0e5c4f27ead9083c756cc281565b7f000000000000000000000000000000000000000000000000000000000000000081565b6000604051733d602d80600a3d3981f3363d3d373d3d3d363d7360601b81528360601b60148201526e5af43d82803e903d91602b57fd5bf360881b6028820152826037826000f59150506001600160a01b0381166103bf576040805162461bcd60e51b815260206004820152601760248201527f455243313136373a2063726561746532206661696c6564000000000000000000604482015290519081900360640190fd5b9291505056fea26469706673582212207031ba8c86a5a5639c83372d821649c2f323477dbfdc6826ca73624c0574849e64736f6c634300060c0033556e697377617056335477617050726963654f7261636c65563220696d706c656d656e746174696f6e2f6c6f67696320636f6e7472616374206e6f7420646566696e65642e",
  "immutableReferences": {
    "23179": [
      {
        "length": 32,
        "start": 437
      },
      {
        "length": 32,
        "start": 760
      }
    ]
  },
  "source": "// SPDX-License-Identifier: UNLICENSED\r\npragma solidity 0.6.12;\r\n\r\nimport \"@openzeppelin/contracts-upgradeable/proxy/ClonesUpgradeable.sol\";\r\n\r\nimport \"./UniswapV3TwapPriceOracleV2.sol\";\r\n\r\n/**\r\n * @title UniswapV3TwapPriceOracleV2Factory\r\n * @notice Deploys and catalogs UniswapV3TwapPriceOracleV2 contracts.\r\n * @author David Lucid <david@rari.capital> (https://github.com/davidlucid)\r\n */\r\ncontract UniswapV3TwapPriceOracleV2Factory {\r\n    /**\r\n     * @dev WETH token contract address.\r\n     */\r\n    address constant public WETH = 0xC02aaA39b223FE8D0A0e5C4F27eAD9083C756Cc2;\r\n\r\n    /**\r\n     * @dev Implementation address for the `UniswapV3TwapPriceOracleV2`.\r\n     */\r\n    address immutable public logic;\r\n\r\n    /**\r\n     * @notice Maps `UniswapV3Factory` contracts to fee tiers to base tokens to `UniswapV3TwapPriceOracleV2` contract addresses.\r\n     */\r\n    mapping(address => mapping(uint256 => mapping(address => UniswapV3TwapPriceOracleV2))) public oracles;\r\n\r\n    /**\r\n     * @notice Constructor that stores the UniswapV3TwapPriceOracleV2 implementation/logic contract.\r\n     * @param _logic The `UniswapV3TwapPriceOracleV2` implementation contract.\r\n     */\r\n    constructor(address _logic) public {\r\n        require(_logic != address(0), \"UniswapV3TwapPriceOracleV2 implementation/logic contract not defined.\");\r\n        logic  = _logic;\r\n    }\r\n\r\n    /**\r\n     * @notice Deploys a `UniswapV3TwapPriceOracleV2`.\r\n     * @param uniswapV3Factory The `UniswapV3Factory` contract of the pairs for which this oracle will be used.\r\n     * @param feeTier The fee tier of the pairs for which this oracle will be used.\r\n     * @param baseToken The base token of the pairs for which this oracle will be used.\r\n     */\r\n    function deploy(address uniswapV3Factory, uint24 feeTier, address baseToken) external returns (address) {\r\n        // Input validation\r\n        if (baseToken == address(0)) baseToken = address(WETH);\r\n\r\n        // Return existing oracle if present\r\n        address currentOracle = address(oracles[uniswapV3Factory][feeTier][baseToken]);\r\n        if (currentOracle != address(0)) return currentOracle;\r\n\r\n        // Deploy oracle\r\n        bytes32 salt = keccak256(abi.encodePacked(uniswapV3Factory, feeTier, baseToken));\r\n        address oracle = ClonesUpgradeable.cloneDeterministic(logic, salt);\r\n        UniswapV3TwapPriceOracleV2(oracle).initialize(uniswapV3Factory, feeTier, baseToken);\r\n\r\n        // Set oracle in state\r\n        oracles[uniswapV3Factory][feeTier][baseToken] = UniswapV3TwapPriceOracleV2(oracle);\r\n\r\n        // Return oracle address\r\n        return oracle;\r\n    }\r\n}\r\n",
  "sourcePath": "C:/Users/david/Dropbox/Rari/v1/fuse-contracts/contracts/oracles/UniswapV3TwapPriceOracleV2Factory.sol",
  "compiler": {
    "name": "solc",
    "version": "0.6.12+commit.27d51765.Emscripten.clang"
  },
  "schemaVersion": "3.2.3",
  "updatedAt": "2021-10-01T20:30:26.997Z",
  "networkType": "ethereum",
  "devdoc": {
    "author": "David Lucid <david@rari.capital> (https://github.com/davidlucid)",
    "kind": "dev",
    "methods": {
      "constructor": {
        "params": {
          "_logic": "The `UniswapV3TwapPriceOracleV2` implementation contract."
        }
      },
      "deploy(address,uint24,address)": {
        "params": {
          "baseToken": "The base token of the pairs for which this oracle will be used.",
          "feeTier": "The fee tier of the pairs for which this oracle will be used.",
          "uniswapV3Factory": "The `UniswapV3Factory` contract of the pairs for which this oracle will be used."
        }
      }
    },
    "stateVariables": {
      "WETH": {
        "details": "WETH token contract address."
      },
      "logic": {
        "details": "Implementation address for the `UniswapV3TwapPriceOracleV2`."
      }
    },
    "title": "UniswapV3TwapPriceOracleV2Factory",
    "version": 1
  },
  "userdoc": {
    "kind": "user",
    "methods": {
      "constructor": "Constructor that stores the UniswapV3TwapPriceOracleV2 implementation/logic contract.",
      "deploy(address,uint24,address)": {
        "notice": "Deploys a `UniswapV3TwapPriceOracleV2`."
      },
      "oracles(address,uint256,address)": {
        "notice": "Maps `UniswapV3Factory` contracts to fee tiers to base tokens to `UniswapV3TwapPriceOracleV2` contract addresses."
      }
    },
    "notice": "Deploys and catalogs UniswapV3TwapPriceOracleV2 contracts.",
    "version": 1
  }
}