{
  "contractName": "YVaultV2PriceOracle",
  "abi": [
    {
      "inputs": [
        {
          "internalType": "contract CToken",
          "name": "cToken",
          "type": "address"
        }
      ],
      "name": "getUnderlyingPrice",
      "outputs": [
        {
          "internalType": "uint256",
          "name": "",
          "type": "uint256"
        }
      ],
      "stateMutability": "view",
      "type": "function"
    }
  ],
  "bytecode": "0x608060405234801561001057600080fd5b5061049c806100206000396000f3fe608060405234801561001057600080fd5b506004361061002b5760003560e01c8063fc57d4df14610030575b600080fd5b6100566004803603602081101561004657600080fd5b50356001600160a01b0316610068565b60408051918252519081900360200190f35b600080826001600160a01b0316636f307dc36040518163ffffffff1660e01b815260040160206040518083038186803b1580156100a457600080fd5b505afa1580156100b8573d6000803e3d6000fd5b505050506040513d60208110156100ce57600080fd5b505160408051637e062a3560e11b815290519192506000916001600160a01b0384169163fc0c546a916004808301926020929190829003018186803b15801561011657600080fd5b505afa15801561012a573d6000803e3d6000fd5b505050506040513d602081101561014057600080fd5b50519050600073c02aaa39b223fe8d0a0e5c4f27ead9083c756cc26001600160a01b038316146101e157604080516315d5220f60e31b81526001600160a01b03841660048201529051339163aea91078916024808301926020929190829003018186803b1580156101b057600080fd5b505afa1580156101c4573d6000803e3d6000fd5b505050506040513d60208110156101da57600080fd5b50516101eb565b670de0b6b3a76400005b90506000836001600160a01b031663313ce5676040518163ffffffff1660e01b815260040160206040518083038186803b15801561022857600080fd5b505afa15801561023c573d6000803e3d6000fd5b505050506040513d602081101561025257600080fd5b810190808051906020019092919050505060ff16600a0a90506102fa816102ee670de0b6b3a76400006102f4856102ee888b6001600160a01b03166399530b066040518163ffffffff1660e01b815260040160206040518083038186803b1580156102bc57600080fd5b505afa1580156102d0573d6000803e3d6000fd5b505050506040513d60208110156102e657600080fd5b505190610304565b90610366565b90610304565b9695505050505050565b60008261031357506000610360565b8282028284828161032057fe5b041461035d5760405162461bcd60e51b81526004018080602001828103825260218152602001806104466021913960400191505060405180910390fd5b90505b92915050565b600061035d83836040518060400160405280601a81526020017f536166654d6174683a206469766973696f6e206279207a65726f0000000000008152506000818361042f5760405162461bcd60e51b81526004018080602001828103825283818151815260200191508051906020019080838360005b838110156103f45781810151838201526020016103dc565b50505050905090810190601f1680156104215780820380516001836020036101000a031916815260200191505b509250505060405180910390fd5b50600083858161043b57fe5b049594505050505056fe536166654d6174683a206d756c7469706c69636174696f6e206f766572666c6f77a2646970667358221220d5726607294518af854f553d9dd62fed8ec7c09b7b41857cecce7e82c387068064736f6c634300060c0033",
  "immutableReferences": {},
  "source": "/**\r\n * COPYRIGHT © 2020 RARI CAPITAL, INC. ALL RIGHTS RESERVED.\r\n * No one is permitted to use the software for any purpose without the explicit permission of David Lucid of Rari Capital, Inc.\r\n * This license is liable to change at any time at the sole discretion of David Lucid of Rari Capital, Inc.\r\n */\r\n\r\npragma solidity 0.6.12;\r\n\r\nimport \"@openzeppelin/contracts-upgradeable/math/SafeMathUpgradeable.sol\";\r\n\r\nimport \"../external/compound/PriceOracle.sol\";\r\nimport \"../external/compound/CErc20.sol\";\r\n\r\nimport \"../external/yearn/IVaultV2.sol\";\r\n\r\nimport \"./BasePriceOracle.sol\";\r\n\r\n/**\r\n * @title YVaultV2PriceOracle\r\n * @notice Returns prices for yVaults using the sender as a root oracle.\r\n * @dev Implements the `PriceOracle` interface.\r\n * @author David Lucid <david@rari.capital> (https://github.com/davidlucid)\r\n */\r\ncontract YVaultV2PriceOracle is PriceOracle {\r\n    using SafeMathUpgradeable for uint256;\r\n\r\n    /**\r\n     * @dev Returns the price in ETH of the token underlying `cToken` (implements `PriceOracle`).\r\n     */\r\n    function getUnderlyingPrice(CToken cToken) external override view returns (uint256) {\r\n        // Get price of token underlying yVault\r\n        IVaultV2 yVault = IVaultV2(CErc20(address(cToken)).underlying());\r\n        address underlyingToken = yVault.token();\r\n        uint underlyingPrice = underlyingToken == 0xC02aaA39b223FE8D0A0e5C4F27eAD9083C756Cc2 ? 1e18 : BasePriceOracle(msg.sender).price(underlyingToken);\r\n\r\n        // yVault/ETH = yVault/token * token/ETH\r\n        // Return value = yVault/ETH scaled by 1e(36 - yVault decimals)\r\n        // `pricePerShare` = yVault/token scaled by 1e(yVault decimals)\r\n        // `underlyingPrice` = token/ETH scaled by 1e18\r\n        // Return value = `pricePerShare` * `underlyingPrice` * 1e(18 - (yVault decimals * 2))\r\n        uint256 baseUnit = 10 ** uint256(yVault.decimals());\r\n        return yVault.pricePerShare().mul(underlyingPrice).div(baseUnit).mul(1e18).div(baseUnit);\r\n    }\r\n}\r\n",
  "sourcePath": "C:/Users/david/Dropbox/Rari/v1/fuse-contracts/contracts/oracles/YVaultV2PriceOracle.sol",
  "compiler": {
    "name": "solc",
    "version": "0.6.12+commit.27d51765.Emscripten.clang"
  },
  "schemaVersion": "3.3.3",
  "updatedAt": "2021-03-09T04:23:29.179Z",
  "devdoc": {
    "author": "David Lucid <david@rari.capital> (https://github.com/davidlucid)",
    "details": "Implements the `PriceOracle` interface.",
    "kind": "dev",
    "methods": {
      "getUnderlyingPrice(address)": {
        "details": "Returns the price in ETH of the token underlying `cToken` (implements `PriceOracle`)."
      }
    },
    "title": "YVaultV2PriceOracle",
    "version": 1
  },
  "userdoc": {
    "kind": "user",
    "methods": {},
    "notice": "Returns prices for yVaults using the sender as a root oracle.",
    "version": 1
  }
}